:100000000C946C020C9421360C944E360C94940291
:100010000C9494020C9494020C9494020C94940208
:100020000C9494020C9494020C9494020C949402F8
:100030000C9494020C9494020C9494020C949402E8
:100040000C94CA360C9494020C94DA320C945D33FE
:100050000C9494020C9494020C9494020C949402C8
:100060000C94B90F0C9494020A444E537365727643
:100070003A20000A444843507372763A20000A47F7
:100080006174657761793A20000A4E65746D617319
:100090006B3A20000A495020416464723A200055AE
:1000A0006E61626C6520746F20726574726965762A
:1000B00065207468652049502041646472657373DB
:1000C000210D0A004D414320416464726573732021
:1000D0003A2000556E61626C6520746F2072657401
:1000E0007269657665204D41432041646472657391
:1000F00073210D0A002E004669726D7761726520CA
:10010000562E203A2000556E61626C6520746F2077
:1001100072657472696576652074686520666972B7
:100120006D776172652076657273696F6E210D0A55
:1001300000206279746573005458204275666665C4
:1001400072203A2000206279746573005258204270
:100150007566666572203A20005075626C69736836
:100160002074656D657261747572653D00707562AD
:100170006C697368696E672E2E2E007075626C69EB
:100180007368696E67206E6F77206F6E6C696E653D
:10019000204F4B007075626C697368696E67206EE2
:1001A0006F77206F6E6C696E652E2E2E00636F6EFA
:1001B0006E656374544350006D616B6520636F6EB0
:1001C0006E6563745443500057494649204F4B00B5
:1001D000574946492072657374617274696E67008D
:1001E0004C6F6F7000537562736372696265202390
:1001F000005075626C697368204134206973206E09
:100200006F77206F6E6C696E6500636C69656E74E4
:1002100020636F6E6E656374656400436F6E6E6518
:100220006374656420746F2042726F6B6572004264
:10023000524F434B455220495000676574486F73D5
:100240007442794E616D652E2E2E00526571756572
:100250007374204448435000436F6E6E6563746549
:100260006421004661696C656421000A746F206333
:100270006F6E6E6563742074696D656F75742000B0
:100280000A417474656D7074696E6720746F2063C1
:100290006F6E6E65637420746F20004661696C65D3
:1002A0006421000A44656C6574696E67206F6C6434
:1002B00020636F6E6E656374696F6E2070726F6617
:1002C000696C65730057726F6E67206669726D772F
:1002D0006172652076657273696F6E2100556E617B
:1002E000626C6520746F20696E697469616C6973F2
:1002F00065207468652043433330303021204368E3
:1003000065636B20796F757220776972696E673FDC
:10031000000A496E697469616C6973696E6720745B
:10032000686520434333303030202E2E2E00486540
:100330006C6C6F2C20434333303030210A00426F05
:1003400061726420726573746172746564005365D0
:1003500074757000493243005D204C454E47544847
:10036000205B00544F504943205B000D0A000D0AEA
:1003700000300030780000000000240027002A0030
:1003800000000000250028002B00000000002300D2
:1003900026002900040404040404040402020202E6
:1003A0000202030303030303010204081020408038
:1003B00001020408102001020408102000000007B8
:1003C000000201000003040600000000000000001D
:1003D00000407A10F35A00A0724E18090010A5D4FC
:1003E000E80000E87648170000E40B54020000CA59
:1003F0009A3B000000E1F50500008096980000009F
:1004000040420F000000A0860100000010270000FD
:100410000000E803000000006400000000000A0083
:10042000000000000100000000002C76D888DC6786
:100430004F0823DFC1DFAE59E1B1B796E5E3E453DE
:10044000C63AE651997696E8E6C28426EB898C9BFB
:1004500062ED407C6FFCEFBC9C9F40F2BAA56FA59B
:10046000F490055A2AF75C936B6CF9676DC11BFC1D
:10047000E0E40D47FEF520E6B500D0ED902E030038
:10048000943577050080841E080000204E0A000085
:1004900000C80C333333330F986E12831141EF8D44
:1004A0002114893BE65516CFFEE6DB18D1844B3884
:1004B0001BF77C1D901DA4BBE424203284725E22B5
:1004C0008100C9F124ECA1E53D275B05F40AA211E6
:1004D0007A24F32D10338F3311241FBECFEFD8E0D1
:1004E000DEBFCDBF12E0A0E0B1E0E4E3F6E702C07A
:1004F00005900D92A037B107D9F716E0A0E7B2E05A
:1005000001C01D92A237B107E1F714E0C8EDD4E0B5
:1005100004C02297FE010E94DD3ACA3CD107C9F708
:100520000E94BB360C94183B0C940000EF92FF9293
:100530000F931F93F22FF02E47FD02C0E4E001C09D
:10054000E4E1242F332727FD309537FF03C0309592
:1005500021953F4F4F2D512F0F2FEE2E0E9421033B
:100560008F2D912F1F910F91FF90EF900895A0E094
:10057000B0E0EDEBF2E00C94E93AEC01A880B98030
:10058000CA80DB80A114B104C104D10441F484E227
:10059000A82E89EDB82E8BE5C82E87E0D82EC6018F
:1005A000B5012DE133EF41E050E00E94C03A27EA67
:1005B00031E440E050E00E946B3A7B018C01C601BF
:1005C000B5012DE133EF41E050E00E94C03ACA018D
:1005D000B9012CEE34EF4FEF5FEF0E946B3A6E0DD6
:1005E0007F1D801F911F97FF04C0615070408040A5
:1005F0009048688379838A839B839B01AC015F77F2
:10060000B901CA01CDB7DEB7EAE00C94053B0E9400
:10061000B70208958BED91E00E94B70208956093B0
:10062000DB017093DC018093DD019093DE0108957E
:10063000FB01DC0102C001900D9241505040D8F7FF
:100640000895A9E0B0E0E7E2F3E00C94E53A6A012E
:10065000122FA02EBE2C2BE3201718F42CE3922E81
:1006600002C0902E9394AE014F5F5F4F27E0092D9B
:100670000E948304BC018981E82EFF24C701897090
:100680009070019711F4ADE209C0B1FE02C0ABE277
:1006900005C0B0FC02C0A0E001C0A0E2E3FE3BC088
:1006A000AA2311F423E001C024E0211710F020E078
:1006B00002C0121B212FEB2CB4FE02C0322F0AC045
:1006C000F601322F80E202C0819331503323E1F7EB
:1006D000C20ED11CAA2319F0F601A1936F01F601F5
:1006E0003196E2FE05C09EE4D6019C9381E404C0ED
:1006F0009EE6D6019C9381E611968C939183329667
:10070000DF01832F90E202C09D9381508823E1F79F
:10071000E30FF11D40C0E2FE42C0AA2311F423E022
:1007200001C024E0211710F020E002C0121B212F8D
:10073000EB2CB4FE02C0922F0AC0F601922F80E289
:1007400002C0819391509923E1F7C20ED11CAA23D4
:1007500019F0F601A1936F01F6013196E2FE08C08F
:1007600089E4D6018C938EE411968C9386E407C0BD
:1007700089E6D6018C938EE611968C9386E681836A
:100780003296DF01892F20E202C02D938150882309
:10079000E1F7E90FF11D10822EEF3FEFAFC0161603
:1007A00017061CF041E050E003C0AB014F5F5F4F04
:1007B000AA2019F480E090E003C08A2D90E0019611
:1007C00020E030E0AA2311F021E030E0240F351FB3
:1007D000280F391F812F90E02817390714F020E0E7
:1007E00002C0121B212F4B2D50E0CA018071907066
:1007F000B4FC0DC0B3FC0BC0F601322F40E202C0C6
:10080000419331503323E1F7C20ED11C01C0322F86
:10081000AA2319F0F601A1936F01892B11F0132F70
:100820000AC0F601132F80E302C0819311501123F7
:10083000E1F7C30ED11C092D060FBA8090E1892E75
:10084000912C8E209F20E4FE04C0F1E3BF1609F432
:100850000150101614F001E003C0093008F008E060
:100860009B0177FF02C020E030E0CB010196821BA4
:10087000930BFE013196E80FF91F8EE2F82E3B0133
:10088000601A71088A2D90E044275527481B590BA0
:100890008FEF2F3F380719F4D601FD926D016217D3
:1008A00073072CF06216730614F4808101C080E394
:1008B0002150304031962417350724F0D6018D930E
:1008C0006D01E6CF2617370749F4B5E3BB1528F0CD
:1008D000BB1621F48114910409F481E3F60181939C
:1008E000D601812F90E202C09C93815011968823FB
:1008F000D9F7E10FF11D108220E030E0C9012996FF
:10090000EEE00C94013B283008F027E03327DA01B1
:10091000990F311D87FD916000966105710539F4CD
:1009200032602E5F3D9330E32A95E1F708959F3FB3
:1009300030F080387105610509F03C5F3C5F3D9304
:10094000913008F08068911DDF93CF931F930F9330
:10095000FF92EF92192F987F9695E92F969596958D
:10096000E90FFF27E65DFB4F99273327EE24FF248D
:10097000A701E70105900894079428F4360FE71EB5
:10098000F81E491F511D660F771F881F991F069477
:10099000A1F70590079428F4E70EF81E491F561F8B
:1009A000C11D770F881F991F661F0694A1F7059038
:1009B000079428F4F80E491F561FC71FD11D880F32
:1009C000991F661F771F0694A1F70590079420F4DE
:1009D000490F561FC71FD81F990F661F771F881F03
:1009E0000694A9F784911095177041F0D695C79594
:1009F00057954795F794E7941A95C1F7E0EDF3E022
:100A000068941590159135916591959105907FE2C7
:100A10007395E118F10A430B560BC90BD009C0F7C7
:100A2000E10CF11E431F561FC91FD01D7EF4703309
:100A300011F48A95E6CFE894015030F0080F0AF4DB
:100A40000027021708F4202F2395022F7A3328F06D
:100A500079E37D932A95E9F710C07D932A9589F66D
:100A6000069497956795379517951794E118F10AAD
:100A7000430B560BC90BD00998F023957E917395C3
:100A80007A3308F070E37C932013B8F77E9170619D
:100A90007D9330F0839571E37D9370E32A95E1F7C0
:100AA0001124EF90FF900F911F91CF91DF91992723
:100AB00087FD90950895CF92DF92EF92FF920F936A
:100AC0001F9384E693E060E040E020E000E00E94B5
:100AD000833340E7C42E42E0D42EC6016AE043E0EF
:100AE00025E004E030ECE32E35E0F32E0E943924BB
:100AF00001E712E0C8010E94532488EC92E064EC04
:100B000072E04BE557E02BE839E076010E94C4091A
:100B10001F910F91FF90EF90DF90CF900895EF928B
:100B2000FF920F931F93DF93CF93CDB7DEB76497F8
:100B30000FB6F894DEBF0FBECDBF80E792E0BE01D6
:100B40006F5F7F4FAE014B5F5F4F9E01275F3F4F4F
:100B50008E01035F1F4FE1E1EE2EF12CEC0EFD1E26
:100B60000E948329882341F480EC95E06FE970E0CE
:100B70000E946B3480E04BC080EC95E064E970E04B
:100B80000E94203449815A816B817C8180E792E008
:100B90000E94982B80EC95E069E870E00E94203478
:100BA0004D815E816F81788580E792E00E94982B6D
:100BB00080EC95E06EE770E00E94203449855A850C
:100BC0006B857C8580E792E00E94982B80EC95E015
:100BD00063E770E00E9420344D855E856F857889DB
:100BE00080E792E00E94982B80EC95E068E670E048
:100BF0000E94203449895A896B897C8980E792E078
:100C00000E94982B80EC95E00E944B3481E0649622
:100C10000FB6F894DEBF0FBECDBFCF91DF911F910D
:100C20000F91FF90EF9008950F931F93DF93CF9351
:100C300000D000D000D0CDB7DEB780E792E08E01C3
:100C40000F5F1F4FB8010E946F2B882339F480EC8F
:100C500095E063ED70E00E946B340FC080EC95E08E
:100C600064EC70E00E94203480E792E0B80126E056
:100C700030E040E050E00E94EA2B26960FB6F89450
:100C8000DEBF0FBECDBFCF91DF911F910F910895B1
:100C9000DF93CF9300D0CDB7DEB780E792E0BE01FF
:100CA0006F5F7F4FAE014E5F5F4F0E94482B8823DE
:100CB00049F480EC95E066E071E00E946B3420E03E
:100CC00030E020C080EC95E067EF70E00E942034B7
:100CD00080EC95E069814AE050E00E94333580EC79
:100CE00095E065EF70E00E94203480EC95E06A8129
:100CF0004AE050E00E944535998180E02A8130E049
:100D0000282B392BC9010F900F90CF91DF910895B7
:100D10000F931F9300EC15E0C8016CE471E00E9492
:100D20002034C80163E870E04AE050E00E94A33537
:100D3000C80165E471E00E946B34C80168E371E0AA
:100D40000E942034C80163E870E04AE050E00E944D
:100D5000A335C80161E371E00E946B341F910F91CC
:100D60000895EF92FF920F931F93DF93CF93CDB728
:100D7000DEB7C355D0400FB6F894DEBF0FBECDBF6F
:100D800080EC95E06EE273E00E946B3480E792E0C5
:100D900060E00E94112BA89580E00E94C3370E945A
:100DA000880680EC95E061E173E00E946B3480E797
:100DB00092E060E040E020E030E00E94572C882381
:100DC00039F480EC95E06DED72E00E946B34FFCF5A
:100DD000A8950E94480621E08331920751F088517E
:100DE000914039F080EC95E065EC72E00E946B3444
:100DF000FFCFA8950E94140680EC95E063EA72E0AC
:100E00000E946B3480E792E00E94DB2A882339F449
:100E100080EC95E06BE972E00E946B34FFCFA895FF
:100E200080EC95E060E872E00E94203480EC95E070
:100E300060E071E00E94D83580EC95E06BE672E0EE
:100E40000E94203480EC95E060E177E24AE050E0D7
:100E50000E94B63588E10FB6F89480936000109236
:100E600060000FBE80E792E060E071E046E051E094
:100E700023E001E00E94792D882391F480EC95E035
:100E800063E672E00E946B3429E288E190E00FB6DD
:100E9000F894A895809360000FBE20936000FFCF68
:100EA00029E288E190E00FB6F894A895809360005D
:100EB0000FBE20936000A89580EC95E068E572E095
:100EC0000E946B3480EC95E06BE472E00E946B341E
:100ED00006C064E670E080E090E00E945B3780E747
:100EE00092E00E944C288823A1F3A89506C068EEE2
:100EF00073E080E090E00E945B370E948F058823BA
:100F0000B1F3A89580EC95E06AE372E00E946B343F
:100F100006C068EE73E080E090E00E945B3780E7F7
:100F200092E061E171E044EC52E00E946E28892B6E
:100F300081F3A89580EC95E06FE272E00E946B343B
:100F40004091C4025091C5026091C6027091C702DF
:100F500080EC95E02AE030E00E940E352091C4023A
:100F60003091C5024091C6025091C7027E0108949B
:100F7000E11CF11CC70160E772E00BE517E00E947D
:100F8000792781E792E0B7010E94E22880EC95E0A2
:100F90006BE172E00E946B3481E792E00E944B2685
:100FA000882359F180EC95E06AE072E00E946B348E
:100FB00088EC92E065E271E040E251E09A010E9423
:100FC000420D8823D1F080EC95E061EF71E00E9442
:100FD0006B3488EC92E060E471E045E551E00E94FA
:100FE000700D80EC95E065EE71E00E946B3488EC4A
:100FF00092E066E671E00E94E90BA895CD5ADF4FBA
:101000000FB6F894DEBF0FBECDBFCF91DF911F9119
:101010000F91FF90EF9008950F931F931092DF01AF
:1010200000EC15E0C80140E855E260E070E026E021
:101030000E94CA31C8016EE373E00E946B341F91B5
:101040000F91089588E10FB6F89480936000109294
:1010500060000FBE60ED77E080E090E00E945B37BB
:1010600029E288E190E00FB6F894A895809360009B
:101070000FBE2093600084E294E00E9442128091AF
:10108000DF01882311F00E940C0880EC95E06EE4EB
:1010900073E00E946B340E94B106089580EC95E0E5
:1010A00064E573E00E946B3484E294E064E070E0F5
:1010B0000E946811E0912404F09125040280F381DC
:1010C000E02D84E294E06AE771E045E050E00995A4
:1010D00084E294E0609163030E94EA1184E294E068
:1010E0000E942D1280916303882321F481E0809374
:1010F000630302C01092630380EC95E06091630388
:101100004AE050E00E94453584E294E064E070E0FB
:1011100046E050E00E943E1209C084E294E00E9442
:101120007B11682F80EC95E00E94433484E294E0C8
:101130000E947211892B89F70895EF92FF920F9305
:101140001F93DF93CF93CDB7DEB7CD55D0400FB609
:10115000F894DEBF0FBECDBFA89588EC92E00E9448
:101160007E0D0E944E08A89580EC95E060EE71E03F
:101170000E946B34A89580E792E00E94252B03978C
:1011800049F080EC95E060ED71E00E946B340E94C4
:10119000B106B3C080EC95E068EC71E00E946B345E
:1011A0006AE070E080E090E028E230E040E050E06B
:1011B0000E949D360E947C3923E333E343E550E4EB
:1011C0000E94083A20E030E040E85AE30E94083AE2
:1011D00020E030E040E05FE30E94AD3820E030E006
:1011E00048EC52E40E94083A20E030E040E151E44B
:1011F0000E94083A20E030E040EA50E40E941239B0
:1012000020E030E040E052E40E94AE3840E023E0CD
:101210007E010894E11CF11C87010E94960281E77F
:1012200092E00E944B26882309F048C080EC95E0AC
:1012300068EB71E00E946B34FBE0EF2EF12CEC0EBA
:10124000FD1E2091C4023091C5024091C60250910A
:10125000C702C70160E772E00BE517E00E9479273B
:1012600081E792E0B7010E94E22881E792E00E94C4
:101270004B268823D9F180EC95E06DEA71E00E945D
:101280006B3488EC92E060E871E00E94570D88238F
:1012900069F180EC95E064E971E00E946B3488ECC0
:1012A00092E060E471E04BE951E00E94700D80EC47
:1012B00095E06BE771E00E946B3418C080EC95E01C
:1012C0006DE671E00E946B3488EC92E061EB71E0B6
:1012D000A7010E94700D80EC95E069E571E00E9425
:1012E000203480EC95E0B7010E94D835A89564EFD2
:1012F00071E080E090E00E945B37C35ADF4F0FB689
:10130000F894DEBF0FBECDBFCF91DF911F910F913B
:10131000FF90EF900895AF92BF92CF92DF92EF923D
:10132000FF920F931F937C015B016A0100EC15E0B3
:10133000C80163E673E00E942034C801B7010E942F
:10134000D535C80168E573E00E942034C801B601B4
:101350004AE050E00E942235C80160EC71E00E9432
:10136000D535C801B501A6010E94F633C80168EC65
:1013700071E00E94D8351F910F91FF90EF90DF90A0
:10138000CF90BF90AF900895EF92FF920F931F936D
:10139000FC01DB0111830083F382E282E157FF4FFE
:1013A000219331938D919D910D90BC91A02D8083BF
:1013B0009183A283B3833696419351931182108215
:1013C0001F910F91FF90EF900895CF93DF93EC0161
:1013D000E881F981A081B18114962D913C911597F6
:1013E000CF01F9010995892B99F3E881F981A08151
:1013F000B18116962D913C911797CF01F90109956E
:10140000DF91CF9108952F923F924F925F926F920A
:101410007F928F929F92AF92BF92CF92DF92EF9284
:10142000FF920F931F93CF93DF93EC012B010E9448
:10143000E5098C834E0141E0A42EB12C31E0C32E8E
:10144000D12CE12CF12C66247724CE010E94E509F1
:10145000182FF40185830894A11CB11C682F70E03B
:1014600080E090E06F77707080709070A7019601B7
:101470000E946B3A660E771E27E0CC0CDD1CEE1C3A
:10148000FF1C2A95D1F70894811C911C17FDDDCF14
:101490008A2D8150F20180838C81807F803321F0FE
:1014A000EE24FF2480E028C0CE010E94E509FE0161
:1014B000EA0DFB1D848385010F5F1F4FCE010E9443
:1014C000E509FE01E00FF11F848358010894A11C77
:1014D000B11CF2018081FE01E80FF11D958180E0D1
:1014E00026817C01E20EF11C8C8181FF04C022E088
:1014F00030E0E20EF31E82E0082F10E099E9C92ED9
:10150000D12CCC0EDD1E8EEF282E8FEF382E36C05C
:10151000CE010E94E509982EF601A081B1811097B5
:10152000C1F08C81807F8033A1F4F2018081910130
:10153000281B3109C9018A0D9B1DE816F90648F4DC
:10154000ED91FC9111970190F081E02DCD01692D75
:10155000099530E8A316B10440F4FE01EA0DFB1D25
:1015600094820894A11CB11C07C0F601808191816E
:10157000892B11F4AA24BB240F5F1F4F06151705F2
:1015800038F2C501DF91CF911F910F91FF90EF903D
:10159000DF90CF90BF90AF909F908F907F906F9093
:1015A0005F904F903F902F900895CF93DF93D90194
:1015B0001296EA01C20FD31FFB0180E090E004C045
:1015C0002983119631960196208121962223C1F715
:1015D000FD01E81BF90BE40FF51F3297919380830F
:1015E000CD01DF91CF9108950F938AE693E060E0FB
:1015F00040E020E000E00E9483330F9108951F93A4
:10160000CF93DF93EC01A881B981109711F410E01A
:101610000FC0ED91FC9111970488F589E02DCD0163
:101620000995182F882321F48A819B810E940A2B17
:10163000812FDF91CF911F910895CF92DF92EF928A
:10164000FF920F931F93DF93CF9300D000D0CDB7BD
:10165000DEB76C01162FBA017901B22F80E0AE011E
:101660004F5F5F4FAB2FAF77BB1FBB27BB1F09F08F
:10167000A068FA01E80FF11DA0838F5FBB2391F7EB
:1016800090E024E030E0281B390BFB01E20FF31F50
:101690001083DA01FB01E81BF90B35968C01400F32
:1016A000511F02C08D918193A417B507D9F7F60198
:1016B000A081B1810894E11CF11CE00EF11EED91B6
:1016C000FC911197620F731F0280F381E02DCD0111
:1016D000A7010995082F0E94123726E830E0C20EB4
:1016E000D31EF601608371838283938380E010E0D0
:1016F0000E151F0509F481E00F900F900F900F90C9
:10170000CF91DF911F910F91FF90EF90DF90CF90DD
:1017100008950F931F93CF93DF93EC018B010E94E9
:10172000FF0A882351F019870A87CE0160E42496C6
:10173000AE0122E030E00E941D0BDF91CF911F919E
:101740000F910895DF92EF92FF920F931F93CF9323
:10175000DF93EC017B01D42E81E0841788F1CE0168
:101760000E94FF0A882361F1FE01EC57FF4F808140
:101770009181019691838083892B21F481E090E00F
:1017800091838083FE01EC57FF4F8181898780819F
:101790008A878E010C5F1F4FCE01B701A80127E099
:1017A00030E00E94D50A9C01FE01E80FF91FD482A7
:1017B00024503040CE0162E8A8010E941D0B01C0F8
:1017C00080E0DF91CF911F910F91FF90EF90DF901C
:1017D000089540E00E94A20B08959F92AF92BF929D
:1017E000CF92DF92EF92FF920F931F93CF93DF93ED
:1017F0007C016B015A01E901902E0E94FF0A8823A7
:1018000061F187010C5F1F4FC701B601A80125E0F8
:1018100030E00E94D50AAC014C5F5F4FD701A40FA6
:10182000B51F4450504020E030E007C0F501E20F02
:10183000F31F80818D932F5F3F4F2C173D07B0F32F
:10184000992011F061E301C060E32597C40FD51F13
:10185000C701A8019E010E941D0BDF91CF911F912E
:101860000F91FF90EF90DF90CF90BF90AF909F903F
:1018700008952F923F924F925F926F927F928F9234
:101880009F92AF92BF92CF92EF920F931F93DF93ED
:10189000CF93CDB7DEB72C970FB6F894DEBF0FBE4F
:1018A000CDBF4C017C876B872A01190138011E2DA1
:1018B0000E94FF0A882309F4C8C024E830E0820EA1
:1018C000931E81E090E0D4018D939C93ECE7FFEFB1
:1018D0008E0E9F1EDE011296E5EEF1E089E001908A
:1018E0000D928150E1F7DE011296F4019E01255F11
:1018F0003F4F8D9181873196A217B307D1F76114BD
:10190000710411F482E009C0110F110F110F16605C
:101910008C2D8295880F807E812B4114510429F0F3
:1019200080682114310409F08064D40152968C93AC
:10193000529753961C9253978FE054968C93840140
:101940000C5F1F4FC4016B857C85A80121E130E04D
:101950000E94D50A9C016114710461F0C401B301B5
:10196000A8010E94D50A9C01C401B501A8010E94EA
:10197000D50A9C014114510479F0C401B201A801B7
:101980000E94D50A9C012114310431F0C401B10137
:10199000A8010E94D50A9C0125503040C40160E195
:1019A000A8010E941D0B0E941237E6E8F0E08E0E9F
:1019B0009F1ED4016D937D938D939C931397EAE7BB
:1019C000FFEF8E0E9F1EF401E657FF4F6083718379
:1019D000828393838F0110C00E941237D8012D910A
:1019E0003D914D915C91621B730B840B950B695972
:1019F0007A438040904048F5D401ED91FC91A0815C
:101A0000B18114962D913C911597CF01F90109955B
:101A1000892B11F3C401BE016F5F7F4F0E94030A3F
:101A2000049799F4F4018781882379F40E9412378E
:101A30002AE830E0820E931ED4016D937D938D933E
:101A40009D93FD01108281E006C0F40182819381A3
:101A50000E940A2B80E02C960FB6F894DEBF0FBED2
:101A6000CDBFCF91DF911F910F91EF90CF90BF909D
:101A7000AF909F908F907F906F905F904F903F902E
:101A80002F900895AF92BF92CF92EF920F931F9332
:101A900000E010E0EE24CC24AA24BB240E94390CE0
:101AA0001F910F91EF90CF90BF90AF900895AF929C
:101AB000BF92CF92EF920F931F9340E050E020E04F
:101AC00030E000E010E0EE24CC24AA24BB240E94E5
:101AD000390C1F910F91EF90CF90BF90AF90089568
:101AE0000F93DA010D900020E9F71197A41BB50BB5
:101AF0009D0100E00E94ED0B0F9108954F925F92BF
:101B00006F927F928F929F92AF92BF92CF92DF920D
:101B1000EF92FF920F931F93DF93CF930F92CDB766
:101B2000DEB77C014DB65EB60E94FF0A882309F439
:101B300050C10E9412375B016C012AE830E0E20ECE
:101B4000F31EF70180819181A281B38126E73FEFE7
:101B5000E20EF31EA6019501281B390B4A0B5B0B05
:101B6000DA01C90189599A43A040B040D0F446E84F
:101B700050E0E40EF51EF70180819181A281B381CE
:101B80002AE73FEFE20EF31EA6019501281B390B51
:101B90004A0B5B0BDA01C90189599A43A040B04056
:101BA000F0F1870102571F4FD8018C91882339F03B
:101BB000F701828193810E940A2B80E00AC180ECA8
:101BC000D70114968C93149715961C9215970D9027
:101BD000BC91A02DED91FC91119724E030E0E20E34
:101BE000F31E0280F381E02DCD01B70142E050E009
:101BF000099542E850E0E40EF51ED701AD92BD9282
:101C0000CD92DD927D01FD01A082B182C282D3829C
:101C100026E73FEFE20EF31E81E0D8018C93D70157
:101C2000ED91FC91A081B18114962D913C91159775
:101C3000CF01F9010995892B09F4CAC0C701BE017A
:101C40006F5F7F4F0E94030A4C01009709F4C0C0E8
:101C5000EAE8F0E0EE0EFF1ED701AD92BD92CD9204
:101C6000DC921397E6E7FFEFEE0EFF1ED701149606
:101C70008C91807F803309F08BC0EFE8F0E0EE0EAE
:101C8000FF1ED7018D919C91E1E7FFEFEE0EFF1E45
:101C9000892B09F49DC07DB66EB68981A82FB0E06E
:101CA000F701EA0FFB1F958180E026816C01C20ECF
:101CB000D11CC60101962DB73EB7281B390B0FB6B4
:101CC000F8943EBF0FBE2DBFADB6BEB60894A11CA2
:101CD000B11CBD016D5F7F4F1796A7014A0F5B1FB7
:101CE000179720E030E00AC08501020F131FFA01A8
:101CF0008191AF01F80180832F5F3F4F2C153D0587
:101D000098F3F501EC0DFD1D1082F7018481970118
:101D100021573F4F81FF20C0B6016A0F7B1FE60F9E
:101D2000F71F178100E08085080F111D675F7F4F47
:101D30006E0D7F1D4BEF5FEF4A1B5B0B4C195D096E
:101D4000480D591DD901ED91FC91C5010995C701B7
:101D5000B8010E94890B13C06C0D7D1D6C5F7F4F15
:101D60006E0D7F1D4DEF5FEF4A1B5B0B4C195D093C
:101D7000480D591DD901ED91FC91C5010995872D9B
:101D8000962D9C010FB6F8943EBF0FBE2DBF20C00C
:101D9000803CB1F480EDF70184831582A081B1818C
:101DA000ED91FC91119724E030E0E20EF31E0280E9
:101DB000F381E02DCD01B70142E050E0099508C064
:101DC000803D31F44EE850E0E40EF51ED7011C9240
:101DD00081E00FB6F8945EBE0FBE4DBE0F90CF915E
:101DE000DF911F910F91FF90EF90DF90CF90BF9008
:101DF000AF909F908F907F906F905F904F900895DD
:101E0000382F413210F040E042C0809170038823A7
:101E1000E1F791E090937003209372038FEF80932A
:101E2000DD03109298034150409399034F5F9093C4
:101E3000710380917103330F832B80937103809121
:101E40007303813041F41092730380917103809386
:101E5000BB0085EC01C085EE8093BC0080917003CF
:101E60008130E1F380919803841710F44091980336
:101E700020E030E00AC0FB01E20FF31FD901A858AF
:101E8000BC4F8C9180832F5F3F4F2417A0F3842F8A
:101E900008950F931F93582F122F413210F081E0B5
:101EA0004AC0809170038823E1F782E08093700339
:101EB000009372038FEF8093DD0310929803409399
:101EC0009903A8E7B3E0FB0102C081918D938E2FA7
:101ED000861B8417D0F31092710380917103550F04
:101EE000852B8093710380917303813041F41092AC
:101EF0007303809171038093BB0085EC01C085EE74
:101F00008093BC00112321F0809170038230E1F3B3
:101F10008091DD038F3F11F480E00DC08091DD03DF
:101F2000803211F482E007C08091DD03803311F02C
:101F300084E001C083E01F910F910895482F613222
:101F400010F081E0089580917003843011F082E0F8
:101F500008956093BB03AAE9B3E0842F9C01F901C3
:101F600002C081918D938E2F841B8617D0F380E061
:101F700008951F920F920FB60F9211242F933F9343
:101F80004F935F936F937F938F939F93AF93BF9381
:101F9000EF93FF938091B90090E0887F9070803636
:101FA000910509F4F2C081369105CCF5883291058E
:101FB00009F47BC089329105B4F48031910509F4AC
:101FC0006FC0813191053CF4009709F447C108972F
:101FD00009F04FC165C08831910509F466C080974A
:101FE00009F047C182C08034910509F4A4C081344E
:101FF000910544F48033910509F482C0C89709F033
:1020000038C189C08035910509F489C088359105AA
:1020100009F496C08834910509F02BC1AEC0883907
:10202000910509F413C189399105ECF488379105BC
:1020300009F4ABC0893791054CF48836910509F451
:10204000A4C08037910509F014C19FC0883891055C
:1020500009F4FCC08039910509F49DC080389105D0
:1020600009F007C198C0803B910509F4C6C0813BC7
:1020700091054CF4803A910509F49FC0883A910586
:1020800009F0F7C0BAC0803C910509F4E3C0883C70
:10209000910509F4DFC0883B910509F0EAC0C2C090
:1020A000809171038093BB00CFC090919803809181
:1020B0009903981768F490919803E92FF0E0E85895
:1020C000FC4F80818093BB009F5F90939803BCC0BE
:1020D00080917203882309F44BC085ED8093BC0086
:1020E0008091BC0084FDFCCFC2C080E28093DD0300
:1020F00085ED8093BC008091BC0084FDFCCFB7C00F
:1021000080E38093DD0385ED8093BC008091BC006B
:1021100084FDFCCFACC088E38093DD039BC080913D
:1021200098039091BB00E82FF0E0E858FC4F9083B3
:102130008F5F80939803909198038091990382C058
:10214000809198039091BB00E82FF0E0E858FC4F95
:1021500090838F5F8093980380917203882341F06E
:1021600085ED8093BC008091BC0084FDFCCF7FC0D6
:1021700081E08093730384EA6EC085ED8093BC0098
:102180008091BC0084FDFCCF72C083E0809370031B
:102190001092DC0359C08091DC03803208F056C0F5
:1021A0008091DC039091BB00E82FF0E0E454FC4FF9
:1021B00090838F5F8093DC0347C08091DC03803283
:1021C00030F4E091DC03F0E0E454FC4F108285ED44
:1021D0008093BC008091BC0084FDFCCF1092700302
:1021E0006091DC03E0917603F09177038CEB93E050
:1021F00070E009951092DC032DC084E08093700399
:102200001092BA031092BB03E0917403F09175032E
:1022100009958091BB03882329F481E08093BB0357
:1022200010929A039091BA03E92FF0E0E656FC4F22
:1022300080818093BB009F5F9093BA039091BA0313
:102240008091BB03981710F485EC01C085E880935A
:10225000BC000FC085EC8093BC0009C01092DD0368
:1022600085ED8093BC008091BC0084FDFCCF109272
:102270007003FF91EF91BF91AF919F918F917F91EB
:102280006F915F914F913F912F910F900FBE0F90E3
:102290001F9018951092700381E080937203109242
:1022A000730382E161E00E94053883E161E00E94EE
:1022B0000538E9EBF0E080818E7F808380818D7F1F
:1022C000808388E48093B80085E48093BC000895FF
:1022D00081E0809323046093000410922104109203
:1022E000220408952091FF0330E08091FE03281B13
:1022F0003109C90108954091FE038091FF034817F9
:1023000018F02FEF3FEF0AC0E42FF0E0E252FC4F4D
:102310008081282F30E04F5F4093FE03C90108956C
:10232000E091FE038091FF03E81718F0EFEFFFEF55
:1023300006C0F0E0E252FC4F8081E82FF0E0CF01D0
:1023400008950895109227041092260488EE93E0D1
:10235000A0E0B0E08093280490932904A0932A047D
:10236000B0932B0482EF91E0909325048093240492
:102370000895CF92DF92EF92FF920F931F93CF9326
:10238000DF937C016B018A01809123048823A1F0F3
:10239000C0E0D0E00DC0D701ED91FC91D601AC0FAB
:1023A000BD1F0190F081E02DC7016C910995219628
:1023B000C017D10780F304C0CB01642F0E949E0F89
:1023C000C801DF91CF911F910F91FF90EF90DF90A7
:1023D000CF900895DF93CF930F92CDB7DEB7FC0176
:1023E0006983809123048823C9F08091220480327C
:1023F00038F081E090E09383828320E030E015C0E4
:1024000080912104E82FF0E0EF5FFB4F99819083EA
:102410008F5F809321048093220405C0CE01019632
:1024200061E00E949E0F21E030E0C9010F90CF9142
:10243000DF9108950F93062F8091000461E074E00E
:102440004091220421E00E94490F10922104109231
:102450002204109223040F91089561E00E941A1241
:102460000895413208F040E2862F6EED73E00E943D
:10247000000F1092FE038093FF03089521E00E9455
:10248000311208951092FE031092FF03109221045E
:10249000109222040E944A110895882319F48CB5E1
:1024A000806202C08CB58F7D8CBD08959CB5937FF2
:1024B000982B9CBD08952CB5382F33702C7F322B70
:1024C0003CBD2DB590E09595879595958795817044
:1024D0002E7F822B8DBD08958AE061E00E94053831
:1024E0008AE061E00E94C6378CB580618CBD8CB5F6
:1024F00080648CBD8DE061E00E94C6378BE061E0B6
:102500000E94C6370895CF93DF93FC01DC014D9301
:102510009D01BB27A72F962F852F8183F901319627
:10252000CB01AA27BB27E9018983472F55276627B7
:10253000772741833296CF01DF91CF910895DC0157
:10254000FC01619311967C933196CF010895FB01B4
:10255000E80FF91F318120E08081280F311DC9016A
:102560000895FB01E80FF91F238130E040E050E0BF
:10257000522F442733272227828190E0A0E0B0E049
:10258000DC0199278827280F391F4A1F5B1F80818C
:10259000280F311D411D511D818190E0A0E0B0E068
:1025A000BA2FA92F982F8827280F391F4A1F5B1F82
:1025B000B901CA010895AF92BF92CF92DF92EF9214
:1025C000FF920F931F9359016A01683071058105CD
:1025D0009105A0F522E0A216B104C104D10470F562
:1025E00021E030E0062E02C0220F331F0A94E2F7EA
:1025F00020953095442737FD4095542FE090E00119
:10260000F090E1010091E2011091E3012E213F21C0
:1026100040235123062E04C0AA0CBB1CCC1CDD1C7D
:102620000A94D2F72A293B294C295D292093E001FD
:102630003093E1014093E2015093E3011F910F9128
:10264000FF90EF90DF90CF90BF90AF9008959B01E7
:10265000AC016830710581059105E8F481E090E0F6
:1026600002C0880F991F2A95E2F79C01442737FD85
:102670004095542F8091E0019091E101A091E201F9
:10268000B091E301282339234A235B232115310527
:102690004105510521F021E030E040E050E0B90172
:1026A000CA0108958F929F92AF92BF92CF92DF920C
:1026B000EF92FF920F931F93DF93CF93CDB7DEB7C7
:1026C000A9970FB6F894DEBF0FBECDBF8C0161E0B5
:1026D00070E00E94A7129C016C01EE24FF24D6FE3C
:1026E0006DC081E42030380709F068C0C80165E09A
:1026F00070E00E94A7124C0197E0A92EB12CA00E09
:10270000B11ECC24DD24EE24FF24870112C0C501B4
:1027100062E070E00E94A712A0E0B0E0E80EF91EAF
:102720000A1F1B1FA4E0B0E0AA0EBB1E0894C11C28
:10273000D11CC814D90458F380914C0490914D04D5
:102740008E0D9F1D90934D0480934C0480915804EE
:1027500090915904A0915A04B0915B04E80EF91EBF
:102760000A1F1B1FE0925804F092590400935A0468
:1027700010935B04209158043091590440915A04FD
:1027800050915B048091540490915504A09156049B
:10279000B0915704281739074A075B0709F0ADC005
:1027A00080915C04882309F4A8C0E0913E04F09174
:1027B0003F0469E970E080E090E04AC0C6018070A3
:1027C0009078892B09F4F2C0B0E820343B0709F473
:1027D00099C0E0E821343E07A0F4F0E824303F0738
:1027E00051F180E82530380738F421503048223044
:1027F000310508F07EC11FC02051304809F079C171
:102800002BC0A4E820303A07B1F0B4E821303B07F0
:1028100048F4E0E820383E0771F02050324809F0D3
:1028200068C109C088E82030380709F4ADC02050DD
:10283000394809F05EC180913E0490913F04892B94
:1028400009F45BC0E0913E04F0913F04C701B6017A
:1028500040E050E020E050C0F8013596D8011596D0
:102860008C9115978D8B81818E8B82818F8B83814B
:10287000888FF801399619968C911997898F8181E3
:102880008A8F82818B8F83818C8FF8013D961D9674
:102890008C911D978D8F81818E8F82818F8F838107
:1028A00088A3F801719651968C91519789A38181E3
:1028B0008AA382818BA383818CA3F8017596559698
:1028C0008C9155978DA381818EA382818FA3838163
:1028D00088A714968C9189A780913E0490913F041B
:1028E000892B59F0E0913E04F0913F04C701B601F5
:1028F000AE014B5E5F4F25E1099521E030E040E0FD
:1029000050E0FBC00B5F1F4FC80160E070E00E9409
:10291000B11269837A838B839C83C80164E070E081
:102920000E94B1126D837E838F839887C80168E00F
:1029300070E00E94B11269877A878B879C87C801F3
:102940006CE070E00E94B1126D877E878F87988B54
:10295000C80160E170E00E94B1129B01AC0180915E
:102960003E0490913F04892B41F2E0913E04F091A6
:102970003F04298B3A8B4B8B5C8BC701B601AE01B0
:102980004F5F5F4F24E1B8CF80913E0490913F04A8
:10299000892B09F4B2CFE0913E04F0913F040B5F24
:1029A0001F4FC701B601A80121E0A6CFB3E0CB16A7
:1029B000B0E1DB06B0E0EB06B0E0FB0699F0EFE03B
:1029C000CE16E0E1DE06E0E0EE06E0E0FE0651F0C5
:1029D000FEE0CF16F0E1DF06F0E0EF06F0E0FF06E4
:1029E00009F06AC085E0C82ED12CC00ED11EC601E8
:1029F00064E070E00E94B112675C7F4F8F4F9F4F81
:102A000009F077C0D80114968C9190E0A0E0B0E076
:102A10008093480490934904A0934A04B0934B04D4
:102A2000C60160E070E00E94B1127B018C01C6011A
:102A300064E070E00E94B112675C7F4F8F4F9F4F40
:102A400009F05BCFE8E0EE16F1040105110508F08E
:102A500054CF81E090E00E2C02C0880F991F0A9499
:102A6000E2F780959095AA2797FDA095BA2F20911F
:102A7000E0013091E1014091E2015091E3018223B4
:102A80009323A423B52321E030E040E050E00E2C56
:102A900004C0220F331F441F551F0A94D2F7822B04
:102AA000932BA42BB52B8093E0019093E101A0938D
:102AB000E201B093E30121CF809130049091310481
:102AC000A0E0B0E0C816D906EA06FB0691F060E087
:102AD000F0E0CF16F0E1DF06F0E0EF06F0E0FF06F1
:102AE00009F461E081E06827262F30E040E050E003
:102AF00004C020E030E040E050E0B901CA01A996EE
:102B00000FB6F894DEBF0FBECDBFCF91DF911F91FE
:102B10000F91FF90EF90DF90CF90BF90AF909F907C
:102B20008F9008958091320490913304892BD1F0D5
:102B3000E0913404F09135048081843099F4CF0120
:102B40000E945213613071058105910559F410926C
:102B50003304109232040E94902E21E030E040E0D5
:102B600050E004C020E030E040E050E0B901CA018C
:102B70000895DF93CF9300D000D0CDB7DEB7198290
:102B80001A821B821C82FC018581823021F18330F4
:102B900009F43FC0813009F05FC080913A04909100
:102BA0003B04892B91F0E0913A04F0913B04CE0173
:102BB00001960995AC01009741F06091360470913F
:102BC000370429813A8181E045C0609136047091D3
:102BD000370481E03BC08091380490913904892BFF
:102BE00091F0E0913804F0913904CE0101960995F5
:102BF000AC01009741F0609136047091370429814F
:102C00003A8182E027C0609136047091370482E0F7
:102C10001DC080913C0490913D04892B91F0E0917E
:102C20003C04F0913D04CE0101960995AC0100975A
:102C300041F0609136047091370429813A8183E034
:102C400009C0609136047091370483E040E050E0A1
:102C500020E030E00E94D8190F900F900F900F9055
:102C6000CF91DF9108954F925F926F927F928F92F2
:102C70009F92AF92BF92CF92DF92EF92FF920F930B
:102C80001F93CF93DF936C012B013A01AA24BB243D
:102C90000E94C62F8091320490913304892BC1F396
:102CA0008090340490903504D4018C91843009F0E4
:102CB000BFC2C40161E070E00E94A7125C01C401C0
:102CC0000E945213611571058105910509F0A4C296
:102CD000E4012596B8E0AB16B0E1BB0608F056C09B
:102CE000E6E0AE16E0E1BE0608F0CCC0F2E0AF16BA
:102CF000F2E0BF0609F4C6C003E0A01602E0B00689
:102D000000F51DE0A116B10480F468E0A616B10438
:102D100008F0B8C081E0A816B10408F47DC297E0BD
:102D2000A916B10408F4AEC0D4C1ADE0AA16B1042E
:102D300009F4A3C0B1E0AB16B2E0BB0609F06CC267
:102D40009CC0E3E0AE16E0E1BE0698F4F1E0AF16F9
:102D5000F0E1BF0608F096C005E0A01602E0B0065C
:102D600008F48BC017E0A11612E0B10609F054C2B6
:102D70008DC064E0A61660E1B60609F4DCC085E00B
:102D8000A81680E1B80608F0B1C042C191E1A916C9
:102D900090E1B90609F471C0A2E1AA16A0E1BA0651
:102DA00058F5BBE0AB16B0E1BB0609F46BC0ECE034
:102DB000AE16E0E1BE0668F4F9E0AF16F0E1BF063A
:102DC00009F460C00AE0A01600E1B00608F073C183
:102DD0003AC11FE0A11610E1B10609F419C160E182
:102DE000A61660E1B60608F061C08DE0A81680E185
:102DF000B80609F011C29FC095E0A91690E2B90685
:102E000009F4A4C1A6E0AA16A0E2BA0668F4B2E1E9
:102E1000AB16B0E1BB0609F460C0E1E0AE16E0E23B
:102E2000BE0608F4F9C129C0FAE0AF16F0E2BF0609
:102E300060F408E0A01600E2B006F8F416E0A1166F
:102E400010E2B10609F0E8C118C06BE0A61660E414
:102E5000B60609F0E1C1D40115968C9190E09093EB
:102E60004D0480934C04CE0161E070E00E94A712F3
:102E700090934F0480934E04CFC1E4018C81F601FE
:102E80008083CAC1CE0160E070E01EC0F40184817D
:102E9000D6018D936D01CE0160E070E00E94B11209
:102EA000AB01BC01C6010E948312B6C1CE0160E035
:102EB00070E00E94B112F601619371938193919336
:102EC0006F01CE0164E070E00E94B112D6016D93F3
:102ED0007D938D939C9313979FC1CE0160E070E02A
:102EE0000E94A712E6019983888396C1CE0160E013
:102EF00070E00E94B112F6016193719381939193F6
:102F00008F01CE0164E070E00E94B112D6011496E8
:102F10006D937D938D939C931797E4E0CE2ED12CE7
:102F2000C00ED11ED601FE01389680E101900D92AF
:102F30008150E1F771C1CE0160E070E00E94B112F2
:102F4000F60161937193819391938F01CE0164E0B7
:102F500070E00E94B112D60114966D937D938D930B
:102F60009C93179774E0C72ED12CC00ED11ECE01B2
:102F700068E070E00E94B1129B01AC01E8016C8333
:102F80007D838E839F83F60184819581A681B7819D
:102F9000875C9F4FAF4FBF4F09F03EC128303105CE
:102FA0004105510508F038C1822F21E030E0082E9C
:102FB00002C0220F331F0A94E2F720953095442770
:102FC00037FD4095542FE090E001F090E101009131
:102FD000E2011091E3012E213F214023512361E0C2
:102FE000E62EF12C012D112D04C0EE0CFF1C001F4C
:102FF000111F8A95D2F72E293F29402B512B209360
:10300000E0013093E1014093E2015093E30104C1F8
:10301000CE0160E070E00E94B112D6016D937D9305
:103020008D939D938D01CE0164E070E00E94B112FA
:10303000E6016C837D838E839F8354E0C52ED12C63
:10304000C00ED11EE9C0CE0160E070E00E94B11256
:10305000F60161937193819391938F01CE0164E0A6
:1030600070E00E94B112D60114966D937D938D93FA
:103070009C93179744E0E42EF12CE00EF11ECE0154
:1030800068E070E00E94B112F80164837583868362
:10309000978334E0C32ED12CCE0CDF1CCE016CE024
:1030A00070E00E94B112D70114966D937D938D93B9
:1030B0009C931797B1C0E4018C81F60184838D81C4
:1030C0009E81AF81B885E60188839983AA83BB83FB
:1030D000A3C0CE0160E070E00E94B112F6016193DE
:1030E0007193819391938F01CE0164E070E00E940F
:1030F000B112D60114966D937D938D939C9317977F
:10310000CE0168E070E00E94A712A0E0B0E0F801F4
:1031100084839583A683B783CE016AE070E00E9422
:10312000A712A0E0B0E0F60182879387A487B58755
:103130002CE0E22EF12CCE0CDF1CD601FE013C96D9
:1031400086E201900D928150E1F766C0D401159698
:103150008C91F60181938981D60111968C931197F8
:103160008A8181838B8182831496F4013996E401EC
:103170008985E6018C8381818D8382818E83838121
:103180008F839D012C5F3F4FF4013D96E4018D85B7
:1031900014968C9314978181E601898782818A87AE
:1031A00083818B87F4017196E4018989E9018C831D
:1031B0008181E6018D8782818E8783818F87F401EB
:1031C0007596E4018D89E901888781811D968C932C
:1031D0001D9782811E968C931E9783811F968C93D8
:1031E000E4019601F401D601A4014A5F5F4F818D8D
:1031F00054968C93549731961196E417F507B9F7C6
:10320000A401405E5F4F8F8DF901828F21962F5F61
:103210003F4FC417D507B9F780913004909131041E
:10322000A816B906B9F5109231041092300432C0D4
:10323000D40112960C91C40163E070E00E94A712C1
:10324000EC0141145104A1F0C401059664E070E062
:103250000E94B112462FF3016083718382839383AE
:1032600094012B5E3F4FC201B90150E00E94180348
:10327000202F30E0FE01E21BF30B2B5F3F4F280DA8
:10328000391DC601B901AF010E9418031092530401
:103290001092520410923304109232040E94902E25
:1032A000D4018C91843041F4B0E0AB16B0E1BB06A0
:1032B00019F4C4010E94B915809130049091310431
:1032C000892B09F0E5CC8091520490915304892B0D
:1032D00009F0DECC80E090E0DF91CF911F910F915B
:1032E000FF90EF90DF90CF90BF90AF909F908F9026
:1032F0007F906F905F904F90089521E030E0309381
:103300005304209352040E9433160895909331047D
:1033100080933004CB0160E070E040E050E00E9418
:1033200033160895CF92DF92EF92FF920F931F937F
:103330006B01890192E0FB01958386834783040F2B
:10334000151F0E0D1F1DCB010896B8010E949F127C
:103350000B5F1F4FC601B8010E944C3060E070E067
:1033600080E090E01F910F91FF90EF90DF90CF9061
:103370000895EF92FF920F931F939C017B01042FFE
:1033800081E0FB018583CB010696B9010E949F1263
:10339000FC01008310E00C5F1F4FC701B8010E94C1
:1033A0004C3080E090E01F910F91FF90EF900895D6
:1033B0004F925F926F927F928F929F92AF92BF9245
:1033C000CF92DF92EF92FF920F931F93CF93DF93F1
:1033D0006B014A01E90145E0442E512C460E571E6F
:1033E00093E0FB019583868337E0632E712C660E94
:1033F000771E8E010E5F1F4FC301B8010E949F12FE
:103400007C012BE0A22EB12CAC0CBD1CF3E0C93E1C
:10341000DF0790F4BE010E949F12C701BE010E9407
:103420009F12C501B401AE010E9418032696C60181
:10343000BE010E944C3047C0CE0168EE73E00E948E
:103440008A3A660F771F060F171FC701B8010E943F
:103450009F12C70168EE73E00E949F12D501F4012C
:1034600088EE93E001900D920197E1F78E01085EDE
:10347000134088EEE82E83E0F82EE80CF91CC60114
:103480006EEE73E01BC00E94C62F83E0093E180752
:1034900020F4E80100E010E004C0085E1340C8EE2C
:1034A000D3E0F201D183C083C301B701AE010E9412
:1034B0001803EC0EFD1E2296C201BE010E944C3084
:1034C0000115110501F7DF91CF911F910F91FF9029
:1034D000EF90DF90CF90BF90AF909F908F907F90B4
:1034E0006F905F904F9008950F931F938C016091A0
:1034F00036047091370485E090E240E00E94B919EB
:1035000085E090E2B8010E9486191F910F910895FD
:103510000F931F93DF93CF9300D000D00F92CDB7BE
:10352000DEB78C01609136047091370487E092E039
:1035300040E00E94B91987E092E0BE016F5F7F4FC3
:103540000E9486198C81F80180838D818183898115
:103550000F900F900F900F900F90CF91DF911F91D0
:103560000F9108952F923F924F925F926F927F92A8
:103570008F929F92AF92BF92CF92DF92EF92FF9283
:103580000F931F93DF93CF930F92CDB7DEB74B010D
:103590005C0129013A018FEF898320903604309035
:1035A0003704C1010996B501A4010E948312B30139
:1035B000A2010E948312B801A7010E94831281E038
:1035C00092E0B1014CE00E94B91981E092E0BE01A5
:1035D0006F5F7F4F0E948619C60160E070E040E097
:1035E00050E00E947D19698170E080E090E00F90CA
:1035F000CF91DF911F910F91FF90EF90DF90CF90CF
:10360000BF90AF909F908F907F906F905F904F9002
:103610003F902F900895CF92DF92EF92FF920F93F9
:103620001F93DF93CF930F92CDB7DEB7D62EC72E61
:103630008A014132510518F02FEF3FEF36C0E0907C
:103640003604F0903704AC0160E070E0C7010996E1
:103650000E94831248E050E060E070E00E94831214
:10366000A80160E070E00E948312DC018D2D9C2D8A
:10367000FC019F01200F311F02C081918D93E21741
:10368000F307D9F7402F445F81E190E1B7010E9431
:10369000B91981E190E1BE016F5F7F4F0E948619E9
:1036A0008981282F332727FD3095C9010F90CF91AD
:1036B000DF911F910F91FF90EF90DF90CF900895D1
:1036C000CF92DF92EF92FF920F931F93DF93CF93EE
:1036D00000D000D0CDB7DEB78B019C016A018FEF1F
:1036E0009FEFAFEFBFEF89839A83AB83BC83E090FA
:1036F0003604F0903704C7010996B901A8010E9469
:10370000831248E050E060E070E00E94831248E0DD
:1037100050E060E070E00E948312DC0120E030E0C5
:1037200007C0F601E20FF31F80818D932F5F3F4F9B
:1037300028303105B1F787E090E1B70144E10E94FC
:10374000B91987E090E1BE016F5F7F4F0E94861933
:1037500069817A818B819C819B01209370063093D3
:1037600071060F900F900F900F90CF91DF911F91E6
:103770000F91FF90EF90DF90CF900895AF92BF929E
:10378000CF92DF92EF92FF920F931F93DF93CF932D
:10379000CDB7DEB728970FB6F894DEBF0FBECDBF0A
:1037A000B82EA92E8B016A018FEF9FEF90937106BF
:1037B00080937006673E710518F02FEF3FEF3BC016
:1037C000E0903604F0903704C701099648E050E0D5
:1037D00060E070E00E948312A80160E070E00E9447
:1037E0008312DC018B2D9A2DFC019F01200F311FCC
:1037F00002C081918D93E217F307D9F7402F485FFC
:1038000080E190E1B7010E94B91980E190E1BE0129
:103810006F5F7F4F0E94861929813A81309371062C
:10382000209370068D819E81AF81B885F6018083DB
:103830009183A283B383C90128960FB6F894DEBFA3
:103840000FBECDBFCF91DF911F910F91FF90EF90F1
:10385000DF90CF90BF90AF9008952F923F924F92FC
:103860005F926F927F928F929F92AF92BF92CF9210
:10387000DF92EF92FF920F931F93DF93CF93CDB719
:10388000DEB764970FB6F894DEBF0FBECDBF2B0135
:103890003C015E874D870F87188B298B3A8B15016A
:1038A0009C8A8B8A89A49AA4ABA4BCA400913604F8
:1038B00010913704C8010996B301A2010E94831236
:1038C0004F85588969897A890E948312B701A601B8
:1038D0000E948312C401B8014CE00E94B919C401CE
:1038E000BE016F5F7F4F0E9486198D819E81AF81DF
:1038F000B885181619061A061B063CF48D859E8598
:10390000B1014B895C890E947D198D819E818093D4
:1039100070069093710664960FB6F894DEBF0FBEE2
:10392000CDBFCF91DF911F910F91FF90EF90DF906E
:10393000CF90BF90AF909F908F907F906F905F904F
:103940004F903F902F9008958F929F92AF92BF9289
:10395000CF92DF92EF92FF920F931F9300D000D08F
:10396000F4E08F2EF0E19F2EA12CB12CEDB7FEB725
:1039700081829282A382B482AA24BB2488249924BF
:103980000E942D1C0F900F900F900F901F910F9180
:10399000FF90EF90DF90CF90BF90AF909F908F906F
:1039A00008954F925F926F927F928F929F92AF9203
:1039B000BF92CF92DF92EF92FF920F931F93DF930C
:1039C000CF93CDB7DEB760970FB6F894DEBF0FBECA
:1039D000CDBF5B016C014A01390128018701E090EC
:1039E0003604F0903704C7010996B601A5010E947C
:1039F000831244E150E060E070E00E94831244E1F1
:103A000050E060E070E00E94831244E150E060E02A
:103A100070E00E94831244E150E060E070E00E9498
:103A2000831240E050E060E070E00115110521F4E0
:103A300041E050E060E070E00E9483128114910444
:103A400029F440E050E060E070E005C0F4014081FE
:103A50005181628173810E9483126114710429F47F
:103A600040E050E060E070E005C0F301408151812A
:103A7000628173810E9483124114510429F440E051
:103A800050E060E070E005C0F20140815181628148
:103A900073810E9483129C010115110551F1F801F7
:103AA00080819181A281B3810097A105B10591F434
:103AB00084819581A681B78188589341A040B04008
:103AC0004CF488E893E1A0E0B0E0F80184839583AA
:103AD000A683B783F8014081518162817381C90156
:103AE0000E948312F80144815581668177810E948A
:103AF000831288E090E1B7014CE20E94B91988E096
:103B000090E1BE016F5F7F4F0E94861989819A8183
:103B1000AB81BC81B7FD27C08114910449F08D8130
:103B20009E81AF81B885F40180839183A283B383A2
:103B30006114710449F089859A85AB85BC85F301D0
:103B400080839183A283B3834114510449F08D850E
:103B50009E85AF85B889F20180839183A283B38368
:103B600029813A8106C090937106809370062FEFE9
:103B70003FEFC90160960FB6F894DEBF0FBECDBF10
:103B8000CF91DF911F910F91FF90EF90DF90CF9039
:103B9000BF90AF909F908F907F906F905F904F906D
:103BA0000895CF92DF92EF92FF920F931F93DF93CE
:103BB000CF9300D000D0CDB7DEB76B017C018FEF83
:103BC0009FEFAFEFBFEF89839A83AB83BC830091F4
:103BD000360410913704C8010996B701A6010E9466
:103BE00083128BE090E1B80144E00E94B9198BE0A8
:103BF00090E1BE016F5F7F4F0E94861989819A8193
:103C00009093710680937006C701B60121E030E001
:103C100040E050E00E94DB1269817A818B819C81B7
:103C20000F900F900F900F90CF91DF911F910F91F8
:103C3000FF90EF90DF90CF9008954F925F926F9238
:103C40007F928F929F92AF92BF92CF92DF92EF922C
:103C5000FF920F931F93DF93CF9300D000D0CDB787
:103C6000DEB75B016C0139014A018FEF9FEFAFEFC7
:103C7000BFEF89839A83AB83BC8340903604509016
:103C80003704C2010996B601A5010E948312B4014E
:103C9000A3010E948312B801A7010E94831281E050
:103CA00090E1B2014CE00E94B91981E090E1BE01BF
:103CB0006F5F7F4F0E94861969817A818B819C8119
:103CC000709371066093700620E030E040E050E0B1
:103CD0000E94DB1269817A818B819C810F900F9009
:103CE0000F900F90CF91DF911F910F91FF90EF9068
:103CF000DF90CF90BF90AF909F908F907F906F900C
:103D00005F904F9008952F923F924F925F926F92E3
:103D10007F928F929F92AF92BF92CF92DF92EF925B
:103D2000FF920F931F93DF93CF93CDB7DEB76497C6
:103D30000FB6F894DEBF0FBECDBF8C010E941237C4
:103D40006D877E878F87988B480125E096948794AE
:103D50002A95E1F7C8018F71907091E0A92EB12CDE
:103D6000C12CD12C04C0AA0CBB1CCC1CDD1C8A9518
:103D7000D2F79801442737FD4095542F298B3A8B71
:103D80004B8B5C8B880C991C880C991C1E01089429
:103D9000211C311C820C931C0F5F1F4F28016624CD
:103DA00057FC6094762C8091480490914904A0912E
:103DB0004A04B0914B040097A105B105B1F0809180
:103DC000480490914904A0914A04B0914B049C018D
:103DD00090937106809370061092480410924904E3
:103DE00010924A0410924B0463C069897A898B89C6
:103DF0009C890E942713611571058105910519F0B1
:103E00002FEF3FEF55C00E9412372D853E854F851D
:103E10005889621B730B840B950B61537547804067
:103E2000904018F02DEF3FEF43C080914C049091EB
:103E30004D04892B59F519821A821B821C82F401C8
:103E400080819181A281B3818A299B29AC29BD29D6
:103E500080839183A283B3831D821E821F82188672
:103E600028E833E140E050E029873A874B875C87B8
:103E7000C301B201A10120E030E000E010E0A5E0C4
:103E8000EA2EF12CEC0EFD1E0E94D11C80914C04F8
:103E900090914D04892B09F486CF80914C04909128
:103EA0004D04019790934D0480934C0420E030E042
:103EB000C90164960FB6F894DEBF0FBECDBFCF9197
:103EC000DF911F910F91FF90EF90DF90CF90BF9007
:103ED000AF909F908F907F906F905F904F903F90AA
:103EE0002F9008952F923F924F925F926F927F9200
:103EF0008F929F92AF92BF92CF92DF92EF92FF92FA
:103F00000F931F93DF93CF93CDB7DEB76A970FB6AA
:103F1000F894DEBF0FBECDBF1B012C015C8B4B8B19
:103F200038014901CD8ADE8AEF8AF88EBA8EA98ED1
:103F3000CFA4D8A8E9A8FAA8CB010E94831E9C01AF
:103F4000009709F0CAC08091540490915504A09143
:103F50005604B09157040196A11DB11D80935404DD
:103F600090935504A0935604B093570420913604BF
:103F7000309137043A8B298B8BA99CA9ADA9BEA996
:103F800081389105A105B105D1F083389105A105CE
:103F9000B10519F02FEF3FEFA0C0A4019301285FF6
:103FA0003F4F4F4F5F4F2D873E874F87588BA988D4
:103FB000BA8842E250E0A40EB51E18E10CC0A988F0
:103FC000BA888AE190E0A80EB91E1A8E198ECC2408
:103FD000DD24760110E189899A890A96B201A1014E
:103FE0000E948312012F10E004501040A80160E0ED
:103FF00070E00C5F1F4F0E948312B401A3010E9466
:1040000083124D895E896F89788D0E9483122BA956
:104010003CA94DA95EA9233831054105510561F43C
:104020004D855E856F8578890E94831248E050E057
:1040300060E070E00E94831220E030E00AC0EB896B
:10404000FC89E20FF31F8081D5018D935D012F5F05
:104050003F4FC901A0E0B0E086159705A805B90556
:1040600074F32BA93CA94DA95EA92338310541055C
:104070005105A9F420E030E00AC0E98DFA8DE20F85
:10408000F31F8081D5018D935D012F5F3F4FC901E3
:10409000A0E0B0E08C159D05AE05BF0574F38BA9BB
:1040A00069897A89A8019301098D1A8D76010E9488
:1040B0009219BE016F5F7F4F2BA93CA94DA95EA944
:1040C000233831054105510519F48FE090E102C014
:1040D00083E090E10E9486199301C9016A960FB6A8
:1040E000F894DEBF0FBECDBFCF91DF911F910F912E
:1040F000FF90EF90DF90CF90BF90AF909F908F9008
:104100007F906F905F904F903F902F9008958F9287
:104110009F92AF92BF92CF92DF92EF92FF920F9356
:104120001F93EDB7FEB738970FB6F894FEBF0FBEDA
:10413000EDBF1182128213821482B1E88B2E912C72
:10414000A12CB12C85829682A782B086AA24BB249A
:104150000E94721F2DB73EB7285F3F4F0FB6F894ED
:104160003EBF0FBE2DBF1F910F91FF90EF90DF90CC
:10417000CF90BF90AF909F908F900895AF92BF92D5
:10418000CF92DF92EF92FF920F931F9370933904B7
:104190006093380450933B0440933A0430933D04B9
:1041A00020933C041093410400934004F092430494
:1041B000E0924204D0924504C0924404B092470475
:1041C000A092460490933F0480933E0481E0809344
:1041D0005C041F910F91FF90EF90DF90CF90BF9004
:1041E000AF900895DF93CF9300D000D0CDB7DEB766
:1041F0008FEF9FEFAFEFBFEF89839A83AB83BC83D1
:10420000609136047091370489E090E040E00E94AC
:10421000B91989E090E0BE016F5F7F4F0E94861957
:1042200069817A818B819C810F900F900F900F9004
:10423000CF91DF9108950F931F93DF93CF9300D019
:1042400000D0CDB7DEB7AB01BC01DB01CA0188707D
:104250009078A070B07088509048A040B040A9F409
:1042600010925C04483080E8580780E0680780E0DE
:10427000780729F420E030E040E050E02AC0477F92
:104280005F7760707070506803C081E080935C0459
:104290008FEF9FEFAFEFBFEF89839A83AB83BC8330
:1042A0000091360410913704C80109960E948312C8
:1042B00088E090E0B80144E00E94B91988E090E0FD
:1042C000BE016F5F7F4F0E94861929813A814B8121
:1042D0005C81B901CA010F900F900F900F90CF91A0
:1042E000DF911F910F9108952F923F924F925F920D
:1042F0006F927F928F929F92AF92BF92CF92DF92F6
:10430000EF92FF920F931F93DF93CF93CDB7DEB75A
:1043100028970FB6F894DEBF0FBECDBF3B014C010E
:1043200019012A018DA58F839EA598878091360457
:10433000909137049E838D83099644E250E060E0BB
:1043400070E00E948312B401A3010E948312B201A3
:10435000A1010E948312B801A7010E948312B60135
:10436000A5010E9483124D8D5E8D6F8D78A10E94F4
:10437000831249A15AA16BA17CA10E9483124DA175
:104380005EA16FA178A50E94831249A55AA56BA5CD
:104390007CA50E948312DC018F819885FC019F011E
:1043A000205C3F4F81918D93E217F307D9F783E0AB
:1043B00090E06D817E8144E60E94B91983E090E02F
:1043C000BE016F5F7F4F0E94861969817A818B8160
:1043D0009C8128960FB6F894DEBF0FBECDBFCF915B
:1043E000DF911F910F91FF90EF90DF90CF90BF90E2
:1043F000AF909F908F907F906F905F904F903F9085
:104400002F9008950F931F93DF93CF9300D000D088
:10441000CDB7DEB7AB01BC01009136041091370473
:10442000C80109960E9483128FEF9FEFAFEFBFEF95
:1044300089839A83AB83BC8386E090E0B80144E033
:104440000E94B91986E090E0BE016F5F7F4F0E9425
:10445000861969817A818B819C810F900F900F90D2
:104460000F90CF91DF911F910F9108954F925F921E
:104470006F927F928F929F92AF92BF92CF92DF9274
:10448000EF92FF920F931F93DF93CF9300D000D052
:10449000CDB7DEB75B016C0139014A018FEF9FEFA9
:1044A000AFEFBFEF89839A83AB83BC834090360420
:1044B00050903704C2010996B601A5010E948312EB
:1044C000B401A3010E948312B801A7010E948312C4
:1044D00084E090E0B2014CE00E94B91984E090E0E1
:1044E000BE016F5F7F4F0E94861969817A818B813F
:1044F0009C810F900F900F900F90CF91DF911F91A3
:104500000F91FF90EF90DF90CF90BF90AF909F9072
:104510008F907F906F905F904F9008952F923F9271
:104520004F925F926F927F928F929F92AF92BF92C3
:10453000CF92DF92EF92FF920F931F93DF93CF936F
:10454000CDB7DEB760970FB6F894DEBF0FBECDBF14
:104550002B013C015C874B870D871E872F87388B8B
:1045600016018E010B5F1F4F86E0F80111928A95AC
:10457000E9F78FEF9FEFAFEFBFEF89839A83AB83AC
:10458000BC83C0903604D0903704C60109964CE134
:1045900050E060E070E00E9483124D855E856F857B
:1045A00078890E948312B301A2010E9483124D8573
:1045B0005E856F857889405F5F4F6F4F7F4F0E94A8
:1045C0008312B501A4010E94831260E070E00E9492
:1045D0009F12AC01E114F10471F0DC0120E030E045
:1045E000F701E20FF31F80818D932F5F3F4F26303D
:1045F0003105B1F70AC0F801DC019E01255F3F4F8C
:1046000081918D93E217F307D9F74A5F5F4F20E05E
:1046100030E00AC0EB85FC85E20FF31F8081FA01D0
:104620008193AF012F5F3F4FC901A0E0B0E0ED845F
:10463000FE840F8518898E159F05A007B10754F3D6
:1046400081149104A104B104B9F021143104A1F042
:1046500020E030E009C0F101E20FF31F8081FA0190
:104660008193AF012F5F3F4FC901A0E0B0E08815F3
:104670009905AA05BB057CF34D85445E480D81E094
:1046800090E0B6010E94B91981E090E0BE016F5F31
:104690007F4F0E94861969817A818B819C819B0161
:1046A000209370063093710660960FB6F894DEBFC3
:1046B0000FBECDBFCF91DF911F910F91FF90EF9073
:1046C000DF90CF90BF90AF909F908F907F906F9032
:1046D0005F904F903F902F900895E0914604F091A5
:1046E000470480E00995E0914004F0914104099568
:1046F0006115710581059105B1F3809136049091A2
:104700003704892B21F010923704109236040E944E
:10471000FE2D0895EF92FF920F931F93CF93DF9397
:10472000EC01109254041092550410925604109209
:104730005704109258041092590410925A0410927F
:104740005B04109231041092300410924D041092C8
:104750004C0410924F0410924E0410925104109287
:104760005004109253041092520410924804109274
:10477000490410924A0410924B0410923304109290
:10478000320410923504109234048BE395E0909338
:104790003704809336048CE294E20E946131E09108
:1047A0004004F091410409957B018C01E09146049D
:1047B000F091470481E00995E114F1040105110528
:1047C00059F0E0914004F09141040995611571059B
:1047D00081059105B1F714C0E0914004F0914104C6
:1047E00009956115710581059105B1F3E0914004CA
:1047F000F091410409956115710581059105B1F7A5
:10480000E0913604F0913704CD2B11F480E001C023
:1048100082E0818780E090E4BF0141E00E94B91905
:1048200080E090E460E070E00E94861960913604B8
:10483000709137048BE090E440E00E94B9198BE05E
:1048400090E460E070E00E948619DF91CF911F91A3
:104850000F91FF90EF90089521E030E03093330402
:104860002093320490933504809334040E9492156F
:104870000895EF92FF920F93FC01108260935D0404
:1048800040935E0420935F048FEF80936004009355
:10489000610410929704F0929904E09298040F91A9
:1048A000FF90EF900895FC011382128288EE93E04E
:1048B000A0E0B0E084839583A683B78382E092E092
:1048C00091838083E15BFF4F8FEF9FEFAFEFBFEFEF
:1048D00080839183A283B3830895FC01A081B18179
:1048E00054962D913C915597F9010995811181E0DC
:1048F000089508950F938AE994E060E040E020E095
:1049000000E00E9483330F910895CF92DF92EF92DF
:10491000FF920F931F93DB01FC01E15BFF4F60816E
:104920007181828193818A0120E030E0AD01CC2445
:10493000DD2476010E94A41C1F910F91FF90EF903F
:10494000DF90CF9008958F929F92AF92BF92CF92B7
:10495000DF92EF92FF920F931F93DF93CF93CDB728
:10496000DEB72C970FB6F894DEBF0FBECDBFFC01AB
:10497000E15BFF4F80819181A281B381EF54F040D0
:10498000B7FF03C020E030E082C0E35BFF4F20812F
:104990003181ED54F0401216130664F4E45BFF4FCE
:1049A0008081EC54F04090E0821793071CF4281BA0
:1049B000390B6DC019821A821B821C82E15BFF4F8A
:1049C000C080D180E280F380C701B60120E230E0F0
:1049D00040E050E00E94C03A922E832E022F132F07
:1049E000000F111F000F111F5E010894A11CB11CC4
:1049F0000A0D1B1DC701B60120E230E040E050E087
:104A00000E94C03A21E030E040E050E004C0220FB4
:104A1000331F441F551F6A95D2F7E92DF82DEE0F6D
:104A2000FF1FEE0FFF1FEA0DFB1D80819181A28108
:104A3000B381282B392B4A2B5B2BF8012083318340
:104A4000428353831D821E821F82188688E893E169
:104A5000A0E0B0E089879A87AB87BC870894C11C27
:104A6000D11CE11CF11CC701B601A50120E030E01A
:104A700000E010E0E5E0EE2EF12CEC0EFD1E0E94B1
:104A8000D11C20E030E0019711F421E030E0C901B1
:104A90002C960FB6F894DEBF0FBECDBFCF91DF913D
:104AA0001F910F91FF90EF90DF90CF90BF90AF904C
:104AB0009F908F9008950F931F938C01015B1F4F60
:104AC000F80160817181828193810E94D11D2FEF55
:104AD0003FEF4FEF5FEFF801208331834283538331
:104AE0001F910F9108954F925F926F927F928F92D4
:104AF0009F92AF92BF92CF92DF92EF92FF920F936D
:104B00001F93CF93DF93EC019CE0492E512C4C0E68
:104B10005D1E8DE4882E912C8C0E9D1E0CE4A02E23
:104B2000B12CAC0EBD1E1FE4612E712C6C0E7D1ECF
:104B30001FC00E94C62FF301608171818281938121
:104B4000A20100E410E020E030E0CC24DD24760176
:104B50000E94A41CF40191838083875C9F4F31F4F1
:104B6000CE010E945B2520E030E014C0F5011082E8
:104B7000F4012081318112161306DCF6F5018081E3
:104B8000E82FF0E02E173F07A1F2EC0FFD1F848500
:104B9000282F30E0C901DF91CF911F910F91FF9035
:104BA000EF90DF90CF90BF90AF909F908F907F90CD
:104BB0006F905F904F9008954F925F926F927F92A7
:104BC0008F929F92AF92BF92CF92DF92EF92FF921D
:104BD0000F931F93CF93DF93EC015CE0452E512C94
:104BE000480E591E4DE4842E912C880E991E3CE4EB
:104BF000A32EB12CA80EB91E2FE4622E712C680EC4
:104C0000791E1FC00E94C62FF301608171818281CD
:104C10009381A20100E410E020E030E0CC24DD2408
:104C200076010E94A41CF40191838083875C9F4FCE
:104C300031F4CE010E945B2520E030E017C0F50181
:104C40001082F4018081918118161906DCF6F501B5
:104C50002081E22FF0E08E179F07A1F2EC0FFD1FDD
:104C600084852F5FF5012083282F30E0C901DF9173
:104C7000CF911F910F91FF90EF90DF90CF90BF9059
:104C8000AF909F908F907F906F905F904F9008951E
:104C90000E945B2508950F931F93CF93DF93EC0140
:104CA0008C01015B1F4FF80180819181A281B3814A
:104CB000B7FD27C0E881F9810480F581E02DCE01A0
:104CC0000995892B01F5D8012D913D914D915C916C
:104CD000F901E958FB4F80818130A9F4CA01B9017B
:104CE0000E94D11DD801ED91FC91E958FB4F108233
:104CF0008FEF9FEFAFEFBFEFF80180839183A28327
:104D0000B38380E001C081E0DF91CF911F910F91CB
:104D10000895CF92DF92EF92FF920F931F93DF934C
:104D2000CF930F92CDB7DEB76983FC01E15BFF4FF4
:104D30006081718182819381AE014F5F5F4F01E09D
:104D400010E020E030E0CC24DD2476010E948720B2
:104D50009C01442737FD4095542F57FF02C020E0A7
:104D600030E0C9010F90CF91DF911F910F91FF901B
:104D7000EF90DF90CF900895CF92DF92EF92FF9265
:104D80000F931F93DB01FC01E15BFF4F6081718199
:104D9000828193818A0120E030E0AD01CC24DD24C2
:104DA00076010E9487201F910F91FF90EF90DF9076
:104DB000CF9008956F927F928F929F92AF92BF9201
:104DC000CF92DF92EF92FF920F931F93DF93CF93D7
:104DD000CDB7DEB760970FB6F894DEBF0FBECDBF7C
:104DE0005C014B013A018DE490E0A80EB91ED5019B
:104DF0001D921C92F50112925F0184EB9FEFA80EA9
:104E0000B91E62E070E080E090E021E030E040E038
:104E100050E0E6E0EE2EF12C012D112D0E941D1E1A
:104E20006B017C019FEFC9169FEFD9069FEFE90642
:104E30009FEFF906C9F1F601E958FB4F10828E0188
:104E40000F5F1F4F80E1D8011D928A95E9F782E03C
:104E500090E09A8389837B826C82F40182819381C2
:104E6000A481B5812B2F3327442755272D839D01FE
:104E7000442755272E83892F9A2FAB2FBB278F834B
:104E800082818887C701B601A80100E110E020E017
:104E900030E00E94601B6F5F7F4F8F4F9F4F39F450
:104EA000C701B6010E94D11D20E030E00CC08FE4A4
:104EB00090E0A80EB91ED501CD92DD92ED92FC9244
:104EC000139721E030E0C90160960FB6F894DEBF79
:104ED0000FBECDBFCF91DF911F910F91FF90EF904B
:104EE000DF90CF90BF90AF909F908F907F906F900A
:104EF00008952F923F924F925F926F927F928F927E
:104F00009F92AF92BF92CF92DF92EF92FF920F9358
:104F10001F93DF93CF93CDB7DEB760970FB6F894AA
:104F2000DEBF0FBECDBF582E492E59016A011801B0
:104F300062E070E080E090E021E030E040E050E0AE
:104F4000E6E0EE2EF12C012D112D0E941D1E3B01DD
:104F50004C018FEF68168FEF78068FEF88068FEF82
:104F60009806B9F4E52DF42D1382128288EE93E0B1
:104F7000A0E0B0E084839583A683B78382E092E0CB
:104F800091838083E15BFF4F608271828282938292
:104F900068C0F301E958FB4F1082FE01319680E1B1
:104FA000DF011D928A95E9F782E090E09A83898378
:104FB0003B822C828D2D9927AA27BB278D83C60182
:104FC000AA27BB278E83BB27AD2D9C2D8B2D8F83CE
:104FD000A886C401B301AF0100E110E020E030E099
:104FE0000E94601B7B018C0182E0C82E82E0D82EDB
:104FF000BFEFEB16BFEFFB06BFEF0B07BFEF1B07C3
:10500000C9F4C401B3010E94D11DE52DF42D138212
:10501000128288EE93E0A0E0B0E084839583A683BB
:10502000B783D182C082E15BFF4FE082F1820283CD
:10503000138317C0E52DF42D1382128288EE93E0BE
:10504000A0E0B0E084839583A683B783D182C08239
:10505000E15BFF4F60827182828293821292129290
:105060001292852D942D60960FB6F894DEBF0FBE78
:10507000CDBFCF91DF911F910F91FF90EF90DF9007
:10508000CF90BF90AF909F908F907F906F905F90E8
:105090004F903F902F900895DF93CF9300D000D092
:1050A000CDB7DEB78091970482FF09C08EEC91E006
:1050B00069E070E0AE014F5F5F4F0E94BE1B8091C0
:1050C000970490E0969587959695879581700F90B7
:1050D0000F900F900F90CF91DF910895FC01808188
:1050E0008823A9F08091970481FF11C080919704D3
:1050F00082FF0DC0DB010D900020E9F71197A61B80
:10510000B70BCB01BD010E94BE1B9C0102C020E079
:1051100030E0C9010895AF92BF92CF92DF92EF9233
:10512000FF920F931F93DF93CF93CDB7DEB72A97EC
:105130000FB6F894DEBF0FBECDBF6C01CB015A0194
:1051400019821A821B821C82DB010D900020E9F774
:105150001197A61BB70BBD01AE014F5F5F4F0E94B9
:10516000BE1B49815A816B817C81411551056105C6
:105170007105A1F0892B91F0D601ED91FC91E484A9
:10518000F5848E010B5F1F4FC8010E94E033C601FA
:10519000B801A501F70109959C0102C020E030E0AB
:1051A000C9012A960FB6F894DEBF0FBECDBFCF91CE
:1051B000DF911F910F91FF90EF90DF90CF90BF9004
:1051C000AF900895CF93DF93FC019B01E15BFF4F0C
:1051D000215B3F4FE90188819981AA81BB8180834E
:1051E0009183A283B383D9019E918E9192938293EE
:1051F000ED018A918293E054F040DE01A054B0406A
:1052000080E40D9001928150E1F7DF91CF910895F4
:10521000EF92FF920F931F937B018C01FA01422FB3
:1052200080E8E81680E8F80680E0080780E01807C4
:1052300031F4809197048160809397042BC081E0C2
:10524000E81680E8F80680E0080780E0180731F4E7
:105250008091970482608093970428C082E0E816CA
:1052600080E8F80680E0080780E0180731F48091B4
:105270009704897F809397042FC080E1E81680E827
:10528000F80680E0080780E0180721F48091970471
:10529000846009C089E9E816F1040105110531F4BB
:1052A0008091970488608093970428C080E4E81672
:1052B00080E8F80680E0080780E0180769F480912C
:1052C00062048F5F8093620423E634E0C901BF016A
:1052D00050E00E94180312C080E0E81688E8F80643
:1052E00080E0080780E0180749F44081403230F43C
:1052F000E42FF0E0E958FB4F81E080831F910F918C
:10530000FF90EF9008958F929F92AF92BF92CF92AD
:10531000DF92EF92FF920F931F93DF93CF93CDB75E
:10532000DEB7EA970FB6F894DEBF0FBECDBFFC0123
:105330006B015A01490180818823F1F18091970422
:1053400081FF3AC08091970482FF36C0CE0101965A
:105350000E94741A8C81882379F189819A81AB81AA
:10536000BC81F60180839183A283B3838D819E816A
:10537000AF81B885F50180839183A283B38389854A
:105380009A85AB85BC85F40180839183A283B38326
:105390008D859E85AF85B889F80180839183A2832E
:1053A000B38389899A89AB89BC89F701808391830A
:1053B000A283B38381E001C080E0EA960FB6F8943F
:1053C000DEBF0FBECDBFCF91DF911F910F91FF9038
:1053D000EF90DF90CF90BF90AF909F908F90089507
:1053E0002F923F924F925F926F927F928F929F92F5
:1053F000AF92BF92CF92DF92EF92FF920F931F93E3
:10540000FC01D62EC72E342E252E8081882309F448
:1054100066C02801390184E0481651046104710412
:1054200008F05DC0A62FB72FFD0101900020E9F71D
:105430003197EA1BFB0BB19708F051C0A42FB52F91
:10544000FD0101900020E9F73197EA1BFB0BB197B2
:1054500008F045C060E070E080E090E020E030E0DF
:1054600040E050E0EE24FF2487010E9436226115BF
:1054700071058105910599F564EF71E080E090E098
:105480000E945B37ED2DFC2DDF010D900020E9F728
:105490008D01015010400E1B1F0BE32DF22DDF017B
:1054A0000D900020E9F74D010894810891088E1AAB
:1054B0009F0A20E030E0AA24BB24C301B2014D2D95
:1054C0005C2DEE24FF24C32CD22C0E948E2220E0DF
:1054D000611571058105910519F421E001C020E0F5
:1054E000822F1F910F91FF90EF90DF90CF90BF9090
:1054F000AF909F908F907F906F905F904F903F9074
:105500002F9008958F929F92AF92BF92CF92DF9289
:10551000EF92FF920F931F93FC01D62EC72E80812E
:105520008823E1F160E070E080E090E020E030E08E
:1055300040E050E0EE24FF2487010E9436226115EE
:1055400071058105910551F564EF71E080E090E00F
:105550000E945B37ED2DFC2DDF010D900020E9F757
:105560008D01015010400E1B1F0B20E030E060E069
:1055700070E080E090E04D2D5C2DEE24FF24CC24E3
:10558000DD248824992454010E948E2220E0611594
:1055900071058105910519F421E001C020E0822FF9
:1055A0001F910F91FF90EF90DF90CF90BF90AF9041
:1055B0009F908F900895EF92FF920F931F93FC019D
:1055C0008081882301F160E070E080E090E020E0DD
:1055D00030E040E050E0EE24FF2487010E943622B4
:1055E000611571058105910571F46FEF70E080E040
:1055F00090E00E94022220E061157105810591056D
:1056000019F421E001C020E0822F1F910F91FF903B
:10561000EF900895FC018081882311F00E946D2392
:1056200008951F93FC01162F8081882361F00E944A
:105630006D2368E873E180E090E00E945B37812F82
:1056400090E00E948A231F910895FC0180818823A5
:10565000D9F00E94F220623071058105910559F060
:10566000633071058105910561F061307105810537
:10567000910551F403C022E030E008C021E030E0A1
:1056800005C023E030E002C020E030E0C901089509
:10569000EF92FF920F931F93DF93CF9300D0CDB77C
:1056A000DEB7FC018B017A018081882371F0CE0185
:1056B00001960E94881A882341F48981F801808329
:1056C0008A81F701808381E001C080E00F900F9014
:1056D000CF91DF911F910F91FF90EF900895CF929E
:1056E000DF92EF92FF920F931F93FC016B01808179
:1056F000882311F420E014C066E070E080E090E0C0
:1057000026E030E040E050E0EE24FF2487010E94D4
:10571000B21A20E0611571058105910509F421E0B7
:10572000822F1F910F91FF90EF90DF90CF900895FF
:10573000EF92FF920F931F937A018B01809198044F
:1057400090919904009709F440C0272F33274427EC
:105750005527622F4AE050E00E943335809198042B
:10576000909199046EE20E94433498014427552792
:105770008091980490919904622F4AE050E00E9431
:10578000333580919804909199046EE20E944334DD
:105790005527412F302F2F2D8091980490919904F7
:1057A000622F4AE050E00E94333580919804909136
:1057B00099046EE20E944334809198049091990478
:1057C0006E2D4AE050E00E9433351F910F91FF90FB
:1057D000EF9008956F927F928F929F92AF92BF92B7
:1057E000CF92DF92EF92FF920F931F93CF93DF93AD
:1057F00059016A018091980490919904892B09F4C8
:1058000047C0EB01EE24FF248701350146010894CF
:10581000610871088108910830C063E773E00E9455
:1058200020348881803140F48091980490919904CB
:1058300061E773E00E94203480919804909199046C
:10584000688140E150E00E94333582E0A816B1043F
:10585000C104D10460F0E614F7040805190539F015
:10586000809198049091990460E20E9443340894D6
:10587000E11CF11C011D111D21968091980490914D
:105880009904EA14FB040C051D0538F20E944B3400
:10589000DF91CF911F910F91FF90EF90DF90CF900C
:1058A000BF90AF909F908F907F906F9008956F9270
:1058B0007F928F929F92AF92BF92CF92DF92EF92A0
:1058C000FF920F931F93CF93DF93EC01962E842EBC
:1058D000722E632E8881882309F08EC080915E0429
:1058E000823011F480E005C0833011F08FEF01C0E9
:1058F00081E0809360040E94183188E099E26EE1B3
:105900007EE24EE05EE226E13EE206E21EE2B4E81E
:10591000EB2EBEE2FB2EAEE3CA2EAEE2DA2EF2E3AF
:10592000AF2EFEE2BF2E0E94BE20892D90E00E9485
:105930008A238820A1F460E070E080E090E020E01D
:1059400030E040E050E0EE24FF2487010E94362240
:105950006FEF70E080E090E00E9402220FC060E0F4
:1059600070E080E090E020E030E040E050E0E1E0F6
:10597000EE2EF12C012D112D0E94362264E072E8EA
:1059800080E090E00E941B21611571058105910561
:10599000A9F581E08883882079F100E010E00EC04D
:1059A0000E94C62F0F5F1F4F83E00A3E180731F198
:1059B0006AE070E080E090E00E945B37809197049D
:1059C00081FFEECF68EE73E080E090E00E945B37ED
:1059D0008091970482FF10C0E72DF62DDF010D9016
:1059E0000020E9F71197AE1BBF0B81E090E0672D17
:1059F000762DAD010E940B1B81E001C080E0DF919C
:105A0000CF911F910F91FF90EF90DF90CF90BF90BB
:105A1000AF909F908F907F906F900895AF92BF92BC
:105A2000CF92DF92EF92FF920F931F93CF93DF936A
:105A3000FC018081882311F420E04FC08DB79EB710
:105A400042970FB6F8949EBF0FBE8DBFEDB7FEB75D
:105A500031968FEF9FE1A0E0B0E0CDB7DEB789834C
:105A60009A83AB83BC8388E89FEFAFEFBFEF84835B
:105A70009583A683B78310861186128613868CE2DF
:105A800091E0A0E0B0E084879587A687B7878AE198
:105A900092E0918B808BCB01BA0124E130E040E0B1
:105AA00050E0F4E6EF2EF12C012D112DE5E0AE2EA5
:105AB000B12CC12CD12C0E94742120E04DB75EB7CF
:105AC0004E5E5F4F0FB6F8945EBF0FBE4DBF6115BF
:105AD00071058105910509F421E0822FDF91CF91B5
