:100000000C94B5000C94DD000C94DD000C94DD0024
:100010000C94DD000C94DD000C94DD000C94DD00EC
:100020000C94DD000C94DD000C94DD000C94DD00DC
:100030000C94DD000C94DD000C94DD000C94DD00CC
:100040000C9480050C94DD000C9432030C94B503E1
:100050000C94DD000C94DD000C94DD000C94DD00AC
:100060000C94DD000C94DD00576169742E2E2E2057
:1000700000537461727421006C6173742074696D33
:1000800065206F6E206F66663A200054616E6B20AB
:100090006D6178204C6576656C207374617475733E
:1000A0003A200057656C6C204C6F77204C65766564
:1000B0006C207374617475733A20000A50756D700A
:1000C00020737461727420776F726B2074696D6530
:1000D0003A20000A50756D702072756E207374613D
:1000E0007475733A20004348414E4745207374614C
:1000F0007475732E20000A536D61727446415A451F
:100100004E44412F57656C6C2F50756D7000000088
:100110000000240027002A0000000000250028001D
:100120002B00000000002300260029000404040422
:100130000404040402020202020203030303030391
:10014000010204081020408001020408102001026E
:10015000040810200000000700020100000304064C
:100160000000000000000000680311241FBECFEF54
:10017000D8E0DEBFCDBF11E0A0E0B1E0E2E5FFE0F6
:1001800002C005900D92A231B107D9F711E0A2E1AA
:10019000B1E001C01D92A33CB107E1F711E0CAE64E
:1001A000D1E004C02297FE010E94A307C836D10700
:1001B000C9F70E9471050C94A7070C94000089E010
:1001C0000E940C0720E0892B09F421E0822F08957A
:1001D00088E00E940C0720E0892B09F421E0822F9F
:1001E0000895109212011092190110921A011092A2
:1001F0001B0110921C0187E060E00E94B806089580
:100200000E94C805209115013091160140911701F7
:1002100050911801621B730B840B950B615177424F
:100220008040904020F480910001882381F081E09B
:100230008093120187E061E00E94B80610920001ED
:100240008DE191E061E770E00E94480408958DE13E
:1002500091E068E670E00E9405040E94C805AB01C9
:10026000BC018091150190911601A0911701B091E8
:100270001801481B590B6A0B7B0B8DE191E02AE0BA
:1002800030E00E94EB0408950E94DF00882309F00B
:1002900080C00E94E800882309F07BC00E94000112
:1002A00090911301809112019817A1F00E94C80546
:1002B00060931501709316018093170190931801B4
:1002C00080911201809313018DE191E066EE70E060
:1002D0000E9405040E94E800809314018DE191E0E2
:1002E00063ED70E00E9405048DE191E060911201E0
:1002F0004AE050E00E94FF048DE191E06BEB70E07A
:100300000E9405044091190150911A0160911B014E
:1003100070911C018DE191E02AE030E00E945D05C2
:100320008DE191E063EA70E00E9405040E94E8001C
:10033000682F8DE191E04AE050E00E94FF048DE1DA
:1003400091E06BE870E00E9405040E94DF00682FD6
:100350008DE191E04AE050E00E94FF048DE191E0E0
:1003600068E770E00E940504409115015091160164
:1003700060911701709118018DE191E02AE030E061
:100380000E945D0560ED77E080E090E00E9411063C
:1003900008950E94F10084CF0F931F930DE111E0A7
:1003A000C80140E855E260E070E026E00E942202C9
:1003B000C80166EF70E00E94480487E061E00E9497
:1003C00079068DE061E00E94790688E062E00E9493
:1003D000790689E062E00E9479060E94F1001F918F
:1003E0000F910895DC015C968C915C97FD01E80FFC
:1003F000F11DE35AFF4F20815C968C915C9790E051
:1004000001968F7390705C968C935C975696ED91E5
:10041000FC91579720835096ED91FC9151978081E4
:10042000806480835B969C915B975C968C915C97D3
:10043000981739F45296ED91FC91539780818F7DF6
:1004400080830895DF92EF92FF920F931F93CF93D3
:10045000DF93EC017A018B01D22EE889F98982E0E1
:100460008083403081EE580780E0680780E078079D
:10047000A1F060E079E08DE390E0A80197010E948F
:100480007F07215030404040504056954795379562
:10049000279580E12030380798F0E889F9891082A3
:1004A00060E874E88EE190E0A80197010E947F0760
:1004B00021503040404050405695479537952795FC
:1004C000EC85FD853083EE85FF852083188EEC89D1
:1004D000FD89D082EA89FB89808180618083EA89F5
:1004E000FB89808188608083EA89FB8980818068BC
:1004F0008083EA89FB8980818F7D8083DF91CF9122
:100500001F910F91FF90EF90DF900895FC01218DD6
:10051000828D30E0205C3F4F281B31092F733070F3
:10052000C9010895FC01918D828D981719F42FEF60
:100530003FEF06C0828DE80FF11D858D282F30E03A
:10054000C9010895DC0159969C9159975A968C914E
:100550005A97981719F42FEF3FEF10C05A968C91C5
:100560005A97FD01E80FF11D958D5A968C915A9777
:100570008F5F8F735A968C93292F30E0C9010895AD
:10058000CF93DF93EC01888D882361F419C08C919F
:1005900085FF0AC0E889F989808185FF05C0CE0101
:1005A0000E94F201AA89BB898C9185FD05C0E8896A
:1005B000F989808186FD04C00FB607FEE8CFF4CF2D
:1005C000DF91CF9108950F931F93CF93DF93EC01A9
:1005D000062F9B8D8C8D981791F5E889F98980817C
:1005E00085FF2DC0EE89FF896083E889F9898081C4
:1005F000806480831DC00FB607FC08C0E889F989B4
:10060000808185FF03C0CE010E94F2018C8D1817F6
:1006100091F38B8DFE01E80FF11DE35AFF4F00832C
:100620001B8FEA89FB8980818062808381E0888FCB
:1006300081E090E0DF91CF911F910F9108951B8D84
:100640001F5F1F73E3CF8BEA93E0892B51F080E0AB
:1006500090E0892B31F00E94AB03882311F00E94B7
:10066000000008951F920F920FB60F9211242F933E
:100670008F939F93EF93FF93E0912D01F0912E01C3
:10068000808182FD16C0E0913301F0913401208118
:10069000909136019F5F9F7380913701981771F099
:1006A000E0913601F0E0E35EFE4F258F9093360136
:1006B00005C0E0913301F0913401E081FF91EF91A9
:1006C0009F918F912F910F900FBE0F901F901895B3
:1006D0001092200110921F0188EE93E0A0E0B0E09C
:1006E0008093210190932201A0932301B0932401D0
:1006F00085E091E090931E0180931D0185EC90E0D0
:1007000090932A018093290184EC90E090932C012E
:1007100080932B0180EC90E090932E0180932D012B
:1007200081EC90E09093300180932F0182EC90E077
:10073000909332018093310186EC90E090933401E4
:1007400080933301109236011092370110923801D4
:100750001092390108958DE191E00E94860220E017
:10076000892B09F021E0822F08951F920F920FB676
:100770000F9211242F933F934F935F936F937F9327
:100780008F939F93AF93BF93EF93FF938DE191E08E
:100790000E94F201FF91EF91BF91AF919F918F91D4
:1007A0007F916F915F914F913F912F910F900FBE6D
:1007B0000F901F901895CF92DF92EF92FF920F93B8
:1007C0001F93CF93DF937C016B018A01C0E0D0E0DF
:1007D0000FC0D6016D916D01D701ED91FC91019093
:1007E000F081E02DC7010995C80FD91F01501040B5
:1007F0000115110571F7CE01DF91CF911F910F9176
:10080000FF90EF90DF90CF900895EF92FF920F93BB
:100810001F93CF93DF937C018B01C0E0D0E0F80100
:100820000F5F1F4F6491662359F0D701ED91FC9142
:100830000190F081E02DC7010995C80FD91FEFCFB6
:10084000CE01DF91CF911F910F91FF90EF9008950E
:10085000EF92FF920F931F938C01DC01ED91FC91BD
:100860000190F081E02D6DE009957C01D801ED91BA
:10087000FC910190F081E02DC8016AE009959C018E
:100880002E0D3F1DC9011F910F91FF90EF9008950C
:10089000EF92FF920F931F937C010E9405048C013D
:1008A000C7010E9428049C01200F311FC9011F911C
:1008B0000F91FF90EF900895CF93DF93EC016115B6
:1008C000710519F420E030E00FC0DB010D9000202D
:1008D000E9F71197A61BB70BE881F9810280F38134
:1008E000E02DAD0109959C01C901DF91CF910895DB
:1008F0004F925F927F928F929F92AF92BF92CF92D0
:10090000DF92EF92FF920F931F93DF93CF93CDB7B8
:10091000DEB7A1970FB6F894DEBF0FBECDBF2C0196
:10092000742ECB01223008F42AE019A231E2C32E42
:10093000D12CCC0EDD1E822E9924AA24BB24672D37
:10094000752FA50194010E947F0779018A01C801D2
:10095000B701A50194010E946007472D461B08942A
:10096000C108D1084A3014F4405D01C0495CF60169
:100970004083E114F1040105110521F07E2C5F2D67
:10098000C801DDCFC201B6010E945C04A1960FB67A
:10099000F894DEBF0FBECDBFCF91DF911F910F91B5
:1009A000FF90EF90DF90CF90BF90AF909F908F908F
:1009B0007F905F904F900895DC012115310541F43F
:1009C000ED91FC910190F081E02D642F099508953F
:1009D0000E9478040895EF92FF920F931F937C0179
:1009E0000E94DC048C01C7010E9428049C01200F96
:1009F000311FC9011F910F91FF90EF900895CF9281
:100A0000DF92EF92FF920F931F936C01E62E9A01F3
:100A1000FF2400E010E0B801A7010E94DC048C0173
:100A2000C6010E942804080F191FC8011F910F91C9
:100A3000FF90EF90DF90CF900895CF92DF92EF92EA
:100A4000FF920F931F93CF93DF93EC016A017B0119
:100A50002115310541F4E881F9810190F081E02D03
:100A6000642F09951FC02A303105D1F477FF17C0D4
:100A7000E881F9810190F081E02D6DE209958C010A
:100A800044275527BA014C195D096E097F09CE012B
:100A90002AE00E9478049801280F391F04C02AE038
:100AA0000E9478049C01C901DF91CF911F910F91A1
:100AB000FF90EF90DF90CF900895EF92FF920F9309
:100AC0001F937C010E941D058C01C7010E94280410
:100AD0009C01200F311FC9011F910F91FF90EF90D2
:100AE0000895CF93DF930E94D6050E94CC01C3E204
:100AF000D3E00E9444012097E1F30E942303F9CF41
:100B00001F920F920FB60F9211242F933F938F9342
:100B10009F93AF93BF938091BE019091BF01A0912D
:100B2000C001B091C1013091C2010196A11DB11D5A
:100B3000232F2D5F2D3720F02D570196A11DB11DBC
:100B40002093C2018093BE019093BF01A093C00186
:100B5000B093C1018091BA019091BB01A091BC01F9
:100B6000B091BD010196A11DB11D8093BA01909372
:100B7000BB01A093BC01B093BD01BF91AF919F9108
:100B80008F913F912F910F900FBE0F901F9018954E
:100B90008FB7F8942091BE013091BF014091C00100
:100BA0005091C1018FBFB901CA010895789484B5ED
:100BB000826084BD84B5816084BD85B5826085BD59
:100BC00085B5816085BDEEE6F0E08081816080833F
:100BD000E1E8F0E010828081826080838081816022
:100BE0008083E0E8F0E0808181608083E1EBF0E0E9
:100BF000808184608083E0EBF0E08081816080838D
:100C0000EAE7F0E080818460808380818260808375
:100C10008081816080838081806880831092C100A0
:100C20000895EF92FF920F931F93CF93DF937B0171
:100C30008C013FB7F8948091BA019091BB01A091CB
:100C4000BC01B091BD0126B5A89B05C02F3F19F08E
:100C50000196A11DB11D3FBFBA2FA92F982F88273C
:100C6000820F911DA11DB11D52E0880F991FAA1F6F
:100C7000BB1F5A95D1F7EC0130C00E945F073FB708
:100C8000F8948091BA019091BB01A091BC01B09100
:100C9000BD0126B5A89B05C02F3F19F00196A11DE7
:100CA000B11D3FBFBA2FA92F982F8827820F911D02
:100CB000A11DB11D32E0880F991FAA1FBB1F3A95D5
:100CC000D1F78C1B9D0B885E9340B8F20894E10825
:100CD000F10801091109C851DC4FE114F1040105C3
:100CE000110559F6DF91CF911F910F91FF90EF9071
:100CF0000895CF93DF93482F50E0CA01805C9E4F48
:100D0000FC013491445D5E4FFA018491882369F1BE
:100D100090E0880F991FFC01E25FFE4FA591B4910E
:100D2000FC01E85EFE4FC591D491662351F42FB7C4
:100D3000F8948C91932F909589238C9388818923A3
:100D40000BC0623061F42FB7F8948C91932F90957B
:100D500089238C938881832B88832FBF06C09FB7FC
:100D6000F8948C91832B8C939FBFDF91CF91089542
:100D7000482F50E0CA018C5A9E4FFC012491CA01B1
:100D8000805C9E4FFC019491445D5E4FFA0134916A
:100D9000332309F440C0222351F1233071F0243071
:100DA00028F42130A1F0223011F514C02630B1F022
:100DB0002730C1F02430D9F404C0809180008F77AF
:100DC00003C0809180008F7D8093800010C084B527
:100DD0008F7702C084B58F7D84BD09C08091B0003B
:100DE0008F7703C08091B0008F7D8093B000E32F98
:100DF000F0E0EE0FFF1FE85EFE4FA591B4912FB714
:100E0000F894662321F48C919095892302C08C91EB
:100E1000892B8C932FBF0895682F70E0CB018C5ADB
:100E20009E4FFC012491CB01805C9E4FFC014491BC
:100E3000645D7E4FFB019491992319F420E030E02A
:100E40003CC0222351F1233071F0243028F42130AA
:100E5000A1F0223011F514C02630B1F02730C1F0D6
:100E60002430D9F404C0809180008F7703C0809132
:100E700080008F7D8093800010C084B58F7702C082
:100E800084B58F7D84BD09C08091B0008F7703C089
:100E90008091B0008F7D8093B000892F90E0880F03
:100EA000991F8E5D9E4FFC01A591B4918C9120E01D
:100EB00030E0842311F021E030E0C9010895089565
:100EC000629FD001739FF001829FE00DF11D649F2E
:100ED000E00DF11D929FF00D839FF00D749FF00DBA
:100EE000659FF00D9927729FB00DE11DF91F639F5B
:100EF000B00DE11DF91FBD01CF0111240895A1E23C
:100F00001A2EAA1BBB1BFD010DC0AA1FBB1FEE1F83
:100F1000FF1FA217B307E407F50720F0A21BB30BCE
:100F2000E40BF50B661F771F881F991F1A9469F74A
:100F300060957095809590959B01AC01BD01CF01A6
:100F40000895EE0FFF1F0590F491E02D0994F89499
:020F5000FFCFD1
:100F52000100000000E302DB038602A2029202C04B
:020F620002008B
:040000050080010076
:00000001FF
