:100000000C94C0000C94E8000C94E8000C94E800F8
:100010000C94E8000C94E8000C94E8000C94E800C0
:100020000C94E8000C94E8000C94E8000C94E800B0
:100030000C94E8000C94E8000C94E8000C94E800A0
:100040000C94BC060C94E8000C94A2040C942505B6
:100050000C94E8000C94E8000C94E8000C94E80080
:100060000C94E8000C94E80073746F705F6368652B
:10007000636B3A6D61785F74696D6521000A0054A5
:10008000616E6B3A4D41585F4C4556454C00576583
:100090006C6C3A4C4F575F4C4556454C002073658D
:1000A000632E00202F200050756D703A53544F502E
:1000B0002000207365632E00202F200050756D7086
:1000C0003A52554E20000A000A4348414E47452007
:1000D000737461747573206D6F746F722052554E16
:1000E0003D000A203C3C3C3C204552524F52204DA2
:1000F0004F544F52204D415820574F524B20544996
:100100004D45203E3E3E3E3E3E3E3E000A536D6122
:10011000727446415A454E44412F57656C6C2F50BE
:10012000756D700000000000240027002A00000008
:100130000000250028002B000000000023002600FE
:10014000290004040404040404040202020202025A
:10015000030303030303010204081020408001028B
:10016000040810200102040810200000000700020B
:100170000100000304060000000000000000D80495
:1001800011241FBECFEFD8E0DEBFCDBF11E0A0E04D
:10019000B1E0E0E0F2E102C005900D92A031B107BC
:1001A000D9F711E0A0E1B1E001C01D92AD3CB1076B
:1001B000E1F711E0C0E8D1E004C02297FE010E94FF
:1001C000FA08CE37D107C9F70E94AD060C94FE0895
:1001D0000C94000010921B0110921C0110921D0142
:1001E00010921E011092100187E060E00E94F40757
:1001F000089510921F011092200110922101109277
:10020000220181E08093100187E061E00E94F40701
:1002100008950F931F93CF93DF9360E87FE482E10B
:1002200090E020911F0130912001409121015091D7
:100230002201621B730B840B950B20EC34ED41E023
:1002400050E00E94DD080BE010E0021B130BC0E041
:10025000D0E015C08DE060E00E94F40762E370E03A
:1002600080E090E00E944D078DE061E00E94F4077D
:1002700064E670E080E090E00E944D072196C01790
:10028000D10744F3DF91CF911F910F910895CF9340
:10029000DF93C0E0D0E08DE061E00E94F40764EFFE
:1002A00071E080E090E00E944D078DE060E00E94E8
:1002B000F40764E670E080E090E00E944D0721962C
:1002C000C530D10541F7DF91CF910895CF93DF93EA
:1002D000C0E0D0E08DE061E00E94F40764EF71E0DF
:1002E00080E090E00E944D078DE060E00E94F407FE
:1002F00064E670E080E090E00E944D072196C330F4
:10030000D10541F7DF91CF910895CF93DF93C0E0FE
:10031000D0E08DE060E00E94F40764E670E080E0E9
:1003200090E00E944D078DE061E00E94F40764E6D2
:1003300070E080E090E00E944D072196C431D10525
:1003400041F7DF91CF91089589E00E94480820E0AD
:10035000892B09F421E0822F089588E00E94480843
:1003600020E0892B09F421E0822F089580911B0160
:1003700090911C01A0911D01B0911E01815A9B4BCF
:10038000AD40B04014F480E0089587E291E068E663
:1003900070E00E94B80581E0809312010895809179
:1003A000130190911401A0911501B09116010097CD
:1003B000A105B105A1F00E940407E0E0209113011E
:1003C000309114014091150150911601621B730B7D
:1003D000840B950B61587F448241904008F0E1E026
:1003E0008E2F089580911201882379F087E291E0A1
:1003F00062EE70E00E9475050E94EA000E9485018D
:1004000068EE73E080E090E031C10E94A40188238F
:1004100019F00E94470109C00E94AD01882319F01C
:100420000E94660102C00E9409010E94A401882363
:1004300009F01FC10E94AD01882309F01AC10E9472
:10044000CF01882311F00E94F9000E94B601882391
:1004500011F00E94EA00909110018091110189171A
:1004600009F44CC0992359F40E94040760931301C6
:1004700070931401809315019093160127C00E9478
:10048000040760931F0170932001809321019093D2
:1004900022010E9404076093170170931801809352
:1004A000190190931A018091230190912401A09148
:1004B0002501B09126010196A11DB11D8093230154
:1004C00090932401A0932501B093260180911001FF
:1004D0008093110187E291E068EC70E00E9475055D
:1004E00087E291E0609110014AE050E00E945B06D3
:1004F00087E291E066EC70E00E94B80580911001FF
:100500008823B9F00E940407209117013091180147
:100510004091190150911A01621B730B840B950BCA
:1005200060931B0170931C0180931D0190931E0129
:1005300016C00E94040720911301309114014091CC
:10054000150150911601621B730B840B950B609380
:100550001F017093200180932101909322018091CB
:100560001001882399F187E291E06CEB70E00E9422
:10057000750560911B0170911C0180911D01909186
:100580001E0128EE33E040E050E00E94DD0887E2E3
:1005900091E0BA01A9012AE030E00E946D0687E2ED
:1005A00091E068EB70E00E94750587E291E044E815
:1005B00053E060E070E02AE030E00E946D0687E2E0
:1005C00091E062EB70E00E94B8054CC087E291E0D8
:1005D00067EA70E00E94750560911F01709120012B
:1005E000809121019091220128EE33E040E050E01B
:1005F0000E94DD0887E291E0BA01A9012AE030E01B
:100600000E946D0687E291E063EA70E00E94750542
:1006100087E291E040EB54E060E070E02AE030E0F7
:100620000E946D0687E291E06DE970E00E94B805D6
:100630000E94AD01882331F087E291E06EE870E01E
:100640000E9475050E94A401882331F087E291E0A1
:100650006FE770E00E94750587E291E06DE770E05A
:100660000E94750560ED77E080E090E00E944D0704
:1006700008950E94EA00E9CE0F931F9307E211E06C
:10068000C80140E855E260E070E026E00E94920375
:10069000C8016CE071E00E94B80587E061E00E944B
:1006A000B5078DE061E00E94B50788E062E00E9436
:1006B000B50789E062E00E94B5070E94EA001F9139
:1006C0000F910895DC015C968C915C97FD01E80F19
:1006D000F11DE35AFF4F20815C968C915C9790E06E
:1006E00001968F7390705C968C935C975696ED9103
:1006F000FC91579720835096ED91FC915197808102
:10070000806480835B969C915B975C968C915C97F0
:10071000981739F45296ED91FC91539780818F7D13
:1007200080830895DF92EF92FF920F931F93CF93F0
:10073000DF93EC017A018B01D22EE889F98982E0FE
:100740008083403081EE580780E0680780E07807BA
:10075000A1F060E079E08DE390E0A80197010E94AC
:10076000BB08215030404040504056954795379542
:10077000279580E12030380798F0E889F9891082C0
:1007800060E874E88EE190E0A80197010E94BB0840
:100790002150304040405040569547953795279519
:1007A000EC85FD853083EE85FF852083188EEC89EE
:1007B000FD89D082EA89FB89808180618083EA8912
:1007C000FB89808188608083EA89FB8980818068D9
:1007D0008083EA89FB8980818F7D8083DF91CF913F
:1007E0001F910F91FF90EF90DF900895FC01218DF4
:1007F000828D30E0205C3F4F281B31092F73307011
:10080000C9010895FC01918D828D981719F42FEF7D
:100810003FEF06C0828DE80FF11D858D282F30E057
:10082000C9010895DC0159969C9159975A968C916B
:100830005A97981719F42FEF3FEF10C05A968C91E2
:100840005A97FD01E80FF11D958D5A968C915A9794
:100850008F5F8F735A968C93292F30E0C9010895CA
:10086000CF93DF93EC01888D882361F419C08C91BC
:1008700085FF0AC0E889F989808185FF05C0CE011E
:100880000E946203AA89BB898C9185FD05C0E88915
:10089000F989808186FD04C00FB607FEE8CFF4CF4A
:1008A000DF91CF9108950F931F93CF93DF93EC01C6
:1008B000062F9B8D8C8D981791F5E889F989808199
:1008C00085FF2DC0EE89FF896083E889F9898081E1
:1008D000806480831DC00FB607FC08C0E889F989D1
:1008E000808185FF03C0CE010E9462038C8D1817A2
:1008F00091F38B8DFE01E80FF11DE35AFF4F00834A
:100900001B8FEA89FB8980818062808381E0888FE8
:1009100081E090E0DF91CF911F910F9108951B8DA1
:100920001F5F1F73E3CF8BE195E0892B51F080E0CF
:1009300090E0892B31F00E941B05882311F00E9462
:10094000000008951F920F920FB60F9211242F935B
:100950008F939F93EF93FF93E0913701F0913801CC
:10096000808182FD16C0E0913D01F0913E01208121
:10097000909140019F5F9F7380914101981771F0A2
:10098000E0914001F0E0E95DFE4F258F909340013A
:1009900005C0E0913D01F0913E01E081FF91EF91B2
:1009A0009F918F912F910F900FBE0F901F901895D0
:1009B00010922A011092290188EE93E0A0E0B0E0A5
:1009C00080932B0190932C01A0932D01B0932E01C5
:1009D00084E091E0909328018093270185EC90E0DA
:1009E000909334018093330184EC90E0909336012E
:1009F0008093350180EC90E090933801809337012B
:100A000081EC90E090933A018093390182EC90E080
:100A100090933C0180933B0186EC90E090933E01E3
:100A200080933D01109240011092410110924201C9
:100A300010924301089587E291E00E94F60320E0BE
:100A4000892B09F021E0822F08951F920F920FB693
:100A50000F9211242F933F934F935F936F937F9344
:100A60008F939F93AF93BF93EF93FF9387E291E0B0
:100A70000E946203FF91EF91BF91AF919F918F917F
:100A80007F916F915F914F913F912F910F900FBE8A
:100A90000F901F901895CF92DF92EF92FF920F93D5
:100AA0001F93CF93DF937C016B018A01C0E0D0E0FC
:100AB0000FC0D6016D916D01D701ED91FC910190B0
:100AC000F081E02DC7010995C80FD91F01501040D2
:100AD0000115110571F7CE01DF91CF911F910F9193
:100AE000FF90EF90DF90CF900895EF92FF920F93D9
:100AF0001F93CF93DF937C018B01C0E0D0E0F8011E
:100B00000F5F1F4F6491662359F0D701ED91FC915F
:100B10000190F081E02DC7010995C80FD91FEFCFD3
:100B2000CE01DF91CF911F910F91FF90EF9008952B
:100B3000EF92FF920F931F938C01DC01ED91FC91DA
:100B40000190F081E02D6DE009957C01D801ED91D7
:100B5000FC910190F081E02DC8016AE009959C01AB
:100B60002E0D3F1DC9011F910F91FF90EF90089529
:100B7000EF92FF920F931F937C010E9475058C01E9
:100B8000C7010E9498059C01200F311FC9011F91C8
:100B90000F91FF90EF900895CF93DF93EC016115D3
:100BA000710519F420E030E00FC0DB010D9000204A
:100BB000E9F71197A61BB70BE881F9810280F38151
:100BC000E02DAD0109959C01C901DF91CF910895F8
:100BD0004F925F927F928F929F92AF92BF92CF92ED
:100BE000DF92EF92FF920F931F93DF93CF93CDB7D6
:100BF000DEB7A1970FB6F894DEBF0FBECDBF2C01B4
:100C0000742ECB01223008F42AE019A231E2C32E5F
:100C1000D12CCC0EDD1E822E9924AA24BB24672D54
:100C2000752FA50194010E94BB0879018A01C801B2
:100C3000B701A50194010E949C08472D461B08940A
:100C4000C108D1084A3014F4405D01C0495CF60186
:100C50004083E114F1040105110521F07E2C5F2D84
:100C6000C801DDCFC201B6010E94CC05A1960FB626
:100C7000F894DEBF0FBECDBFCF91DF911F910F91D2
:100C8000FF90EF90DF90CF90BF90AF909F908F90AC
:100C90007F905F904F900895DC012115310541F45C
:100CA000ED91FC910190F081E02D642F099508955C
:100CB0000E94E8050895EF92FF920F931F939A0107
:100CC000E62EFF2400E010E0B801A7010E944C06C8
:100CD0001F910F91FF90EF900895CF92DF92EF92C6
:100CE000FF920F931F93CF93DF93EC016A017B0177
:100CF0002115310541F4E881F9810190F081E02D61
:100D0000642F09951FC02A303105D1F477FF17C031
:100D1000E881F9810190F081E02D6DE209958C0167
:100D200044275527BA014C195D096E097F09CE0188
:100D30002AE00E94E8059801280F391F04C02AE024
:100D40000E94E8059C01C901DF91CF911F910F918D
:100D5000FF90EF90DF90CF900895CF93DF930E94A4
:100D600012070E943C03C3E9D4E00E94F2012097DD
:100D7000E1F30E949304F9CF1F920F920FB60F92E6
:100D800011242F933F938F939F93AF93BF938091A1
:100D9000C8019091C901A091CA01B091CB013091D5
:100DA000CC010196A11DB11D232F2D5F2D3720F001
:100DB0002D570196A11DB11D2093CC018093C80130
:100DC0009093C901A093CA01B093CB018091C40153
:100DD0009091C501A091C601B091C7010196A11DD6
:100DE000B11D8093C4019093C501A093C601B09337
:100DF000C701BF91AF919F918F913F912F910F901C
:100E00000FBE0F901F9018958FB7F8942091C801CE
:100E10003091C9014091CA015091CB018FBFB901F6
:100E2000CA010895789484B5826084BD84B58160D8
:100E300084BD85B5826085BD85B5816085BDEEE6E2
:100E4000F0E0808181608083E1E8F0E010828081C1
:100E500082608083808181608083E0E8F0E080812F
:100E600081608083E1EBF0E0808184608083E0EB4F
:100E7000F0E0808181608083EAE7F0E08081846037
:100E80008083808182608083808181608083808193
:100E9000806880831092C1000895EF92FF920F93B3
:100EA0001F93CF93DF937B018C013FB7F894809120
:100EB000C4019091C501A091C601B091C70126B5AA
:100EC000A89B05C02F3F19F00196A11DB11D3FBF82
:100ED000BA2FA92F982F8827820F911DA11DB11D10
:100EE00052E0880F991FAA1FBB1F5A95D1F7EC013A
:100EF00030C00E949B083FB7F8948091C401909144
:100F0000C501A091C601B091C70126B5A89B05C037
:100F10002F3F19F00196A11DB11D3FBFBA2FA92F78
:100F2000982F8827820F911DA11DB11D32E0880FD7
:100F3000991FAA1FBB1F3A95D1F78C1B9D0B885E8A
:100F40009340B8F20894E108F10801091109C85169
:100F5000DC4FE114F1040105110559F6DF91CF9141
:100F60001F910F91FF90EF900895CF93DF93482F3B
:100F700050E0CA018A5A9E4FFC0134914E5B5E4F8D
:100F8000FA018491882369F190E0880F991FFC0190
:100F9000EC5DFE4FA591B491FC01E25DFE4FC59161
:100FA000D491662351F42FB7F8948C91932F909598
:100FB00089238C93888189230BC0623061F42FB719
:100FC000F8948C91932F909589238C938881832B0F
:100FD00088832FBF06C09FB7F8948C91832B8C9386
:100FE0009FBFDF91CF910895482F50E0CA018659E5
:100FF0009E4FFC012491CA018A5A9E4FFC01949194
:101000004E5B5E4FFA013491332309F440C0222332
:1010100051F1233071F0243028F42130A1F0223036
:1010200011F514C02630B1F02730C1F02430D9F4C6
:1010300004C0809180008F7703C0809180008F7DF5
:101040008093800010C084B58F7702C084B58F7DF7
:1010500084BD09C08091B0008F7703C08091B0003B
:101060008F7D8093B000E32FF0E0EE0FFF1FE25D75
:10107000FE4FA591B4912FB7F894662321F48C917B
:101080009095892302C08C91892B8C932FBF089552
:10109000682F70E0CB0186599E4FFC012491CB0153
:1010A0008A5A9E4FFC0144916E5B7E4FFB019491E6
:1010B000992319F420E030E03CC0222351F1233081
:1010C00071F0243028F42130A1F0223011F514C041
:1010D0002630B1F02730C1F02430D9F404C080911B
:1010E00080008F7703C0809180008F7D8093800087
:1010F00010C084B58F7702C084B58F7D84BD09C0D0
:101100008091B0008F7703C08091B0008F7D809375
:10111000B000892F90E0880F991F885C9E4FFC01DA
:10112000A591B4918C9120E030E0842311F021E06E
:1011300030E0C90108950895629FD001739FF001C6
:10114000829FE00DF11D649FE00DF11D929FF00D57
:10115000839FF00D749FF00D659FF00D9927729F8E
:10116000B00DE11DF91F639FB00DE11DF91FBD0119
:10117000CF0111240895A1E21A2EAA1BBB1BFD0169
:101180000DC0AA1FBB1FEE1FFF1FA217B307E40766
:10119000F50720F0A21BB30BE40BF50B661F771FBE
:1011A000881F991F1A9469F760957095809590959E
:1011B0009B01AC01BD01CF01089597FB092E0526C7
:1011C0000ED057FD04D0D7DF0AD0001C38F450955C
:1011D0004095309521953F4F4F4F5F4F0895F6F75B
:1011E00090958095709561957F4F8F4F9F4F089593
:1011F000EE0FFF1F0590F491E02D0994F894FFCFB6
:101200000000000053044B05F603120402043004EE
:00000001FF
