:100000000C9476010C949E010C949E010C949E011C
:100010000C949E010C949E010C949E010C949E01E4
:100020000C949E010C949E010C949E010C949E01D4
:100030000C949E010C949E010C949E010C949E01C4
:100040000C948C0E0C949E010C940C0A0C943E0A99
:100050000C949E010C949E010C949E010C949E01A4
:100060000C94A7060C949E01005EBCE2613FDD8308
:10007000C29C7E20A3FD1F419DC3217FFCA2401E88
:100080005F01E3BD3E6082DC237D9FC1421CFEA078
:10009000E1BF5D0380DE3C62BEE0025CDF81633D68
:1000A0007C22C09E1D43A1FF4618FAA427799BC558
:1000B00084DA3866E5BB5907DB856739BAE4065848
:1000C0001947A5FB7826C49A653BD987045AB8E638
:1000D000A7F91B45C6987A24F8A6441A99C7257B28
:1000E0003A6486D85B05E7B98CD2306EEDB3510F18
:1000F0004E10F2AC2F7193CD114FADF3702ECC9208
:10010000D38D6F31B2EC0E50AFF1134DCE90722CF7
:100110006D33D18F0C52B0EE326C8ED0530DEFB1E7
:10012000F0AE4C1291CF2D73CA947628ABF51749D7
:100130000856B4EA6937D58B5709EBB536688AD4C7
:1001400095CB2977F4AA4816E9B7550B88D6346AB7
:100150002B7597C94A14F6A8742AC896154BA9F7A7
:10016000B6E80A54D7896B35000000080002010088
:100170000003040700000000000000000102040862
:100180001020408001020408102001020408102001
:10019000040404040404040402020202020203032D
:1001A0000303030300000000250028002B004E413C
:1001B0004E494E495459494E46CDCCCC3D0AD723E1
:1001C0003C17B7D13877CC2B329595E6241FB14F29
:1001D0000A000020410000C84200401C4620BCBE6E
:1001E0004CCA1B0E5AAEC59D7400407A10F35A00DB
:1001F000A0724E18090010A5D4E80000E876481750
:100200000000E40B54020000CA9A3B000000E1F534
:1002100005000080969800000040420F000000A0FA
:100220008601000000102700000000E80300000025
:10023000006400000000000A00000000000100004F
:100240000000002C76D888DC674F0823DFC1DFAEC2
:1002500059E1B1B796E5E3E453C63AE6519976968B
:10026000E8E6C28426EB898C9B62ED407C6FFCEF54
:10027000BC9C9F40F2BAA56FA5F490055A2AF75C82
:10028000936B6CF9676DC11BFCE0E40D47FEF52034
:10029000E6B500D0ED902E030094357705008084FC
:1002A0001E080000204E0A000000C80C3333333310
:1002B0000F986E12831141EF8D2114893BE655167C
:1002C000CFFEE6DB18D1844B381BF77C1D901DA4B4
:1002D000BBE424203284725E228100C9F124ECA1A7
:1002E000E53D27000304C3086E0A0F0411241FBE56
:1002F000CFEFD8E0DEBFCDBF11E0A0E0B1E0ECE190
:10030000FFE202C005900D92A63CB107D9F723E0A9
:10031000A6ECB1E001C01D92A835B207E1F712E0EA
:10032000CAEED2E004C02297FE010E94AD10C43E86
:10033000D107C9F70E947D0E0C9481170C94000020
:10034000E6ECF1E0DF010D900020E9F7AD0141504E
:100350005109465C5140E0915702F09158020280E9
:10036000F381E02D66EC71E087E592E0099426E0E8
:1003700040E052EC61E070E08CEA92E00E94AA0951
:1003800066E271E08CEA92E00E94030B62E070E0AA
:1003900087E592E00E94B70860EA71E087E592E0A5
:1003A0000E94BE0867E174E087E592E00C94B9080A
:1003B0000C947B0EEF92FF920F931F93CF93DF93DA
:1003C000CDB7DEB72A970FB6F894DEBF0FBECDBF0C
:1003D0007C016230710541F17CF461157105D9F041
:1003E0006130710599F5609114017091150180914A
:1003F0001601909117012EC063307105F1F0643041
:10040000710521F5609108017091090180910A013F
:1004100090910B011FC0609118017091190180919A
:100420001A0190911B0116C0609110017091110189
:1004300080911201909113010DC060910C01709197
:100440000D0180910E0190910F0104C060E070E0F9
:1004500080EC9FE78E010F5F1F4F23E047E00E9473
:10046000B110B801C7010E94830BC7010E94110E91
:10047000C7012A960FB6F894DEBF0FBECDBFDF913D
:10048000CF911F910F91FF90EF9008950F931F93BD
:10049000CF93DF938C01EB01CB010E94110E6CE234
:1004A00071E0C8010E94C40C882361F0CE010E9453
:1004B000700E609318017093190180931A01909344
:1004C0001B014BC062E371E0C8010E94C40C882389
:1004D00061F0CE010E94700E6093140170931501BB
:1004E000809316019093170138C068E371E0C8014A
:1004F0000E94C40C882361F0CE010E94700E6093AC
:10050000100170931101809312019093130125C083
:100510006EE371E0C8010E94C40C882361F0CE0133
:100520000E94700E60930C0170930D0180930E0178
:1005300090930F0112C064E471E0C8010E94C40CE2
:10054000882359F0CE010E94700E609308017093C9
:10055000090180930A0190930B01DF91CF911F91C4
:100560000F910895DC0180E0615038F0ED91E827AB
:10057000F0E0E859FF4F8491F7CF0895CF92DF92D2
:10058000EF92FF920F931F93CF93DF93CDB7DEB718
:1005900068970FB6F894DEBF0FBECDBF8C01CDB605
:1005A000DEB663E671E0CE0101960E94830BBE01C8
:1005B0006F5F7F4FC8010E94AE0D9C0140E050E08C
:1005C000B801CE0143960E94B80DCE0101960E945B
:1005D000150BF801E480F580F1E0EF1AF10863E60D
:1005E00071E0CE0101960E94830BBE016F5F7F4FC9
:1005F000C8010E94AE0DAC014F5F5F4F9701B8017B
:10060000CE010D960E94B80DCE0101960E94150BE9
:10061000EF88F88C63E671E0CE0101960E94830BAF
:10062000BE016F5F7F4FCE0143960E945C0DAC010F
:100630004F5F5F4F9701BE016D5E7F4FCE01079602
:100640000E94B80DCE0101960E94150B4F89588D5E
:100650004F5F5F4F8DB79EB7841B950B0FB6F89415
:100660009EBF0FBE8DBFEDB7FEB731967F0120E074
:1006700030E0BF01C8010E94160D6F896F5FC7018E
:100680000E94B20240E1682FCE0101960E94D10B78
:10069000CE0101960E94FD0DBE01635F7F4FCE012A
:1006A00001960E94810C8C01CE0101960E94150BCF
:1006B000CE0107960E94150BCE010D960E94150BD8
:1006C000CE0143960E94150B81E0012B09F080E0DA
:1006D0000FB6F894DEBE0FBECDBE68960FB6F89486
:1006E000DEBF0FBECDBFDF91CF911F910F91FF9065
:1006F000EF90DF90CF900895CF92DF92EF92FF922C
:100700000F931F93CF93DF93CDB7DEB72C970FB620
:10071000F894DEBF0FBECDBF8C01CDB6DEB6FC01B6
:10072000448155814F5F5F4F8DB79EB7841B950BFA
:100730000FB6F8949EBF0FBE8DBFEDB7FEB73196D2
:100740007F0120E030E0BF01C8010E94160DF801D2
:1007500064816F5FC7010E94B20240E1682FCE0141
:1007600007960E94D10BCE0107960E94FD0D63E60D
:1007700071E0CE0101960E94830BBE01695F7F4F3D
:10078000CE0101960E94540C65EB71E00E94670C4B
:10079000BC01C8010E942A0CCE0101960E94150BD3
:1007A00020E030E047E150E066EC71E0C8010E94D3
:1007B000160D63EE71E08CEA92E00E94EF0A66EC9F
:1007C00071E08CEA92E00E94FD0A6AE471E08CEA32
:1007D00092E00E94030BCE0107960E94150B0FB604
:1007E000F894DEBE0FBECDBE2C960FB6F894DEBFD9
:1007F0000FBECDBFDF91CF911F910F91FF90EF9072
:10080000DF90CF9008956CE471E083EE91E00E9458
:10081000830B62E571E08DED91E00C94830B8DED1F
:1008200091E00E94150B83EE91E00C94150BEF9272
:10083000FF920F931F93CF93DF93CDB7DEB7A497AB
:100840000FB6F894DEBF0FBECDBF48970CF01DC2A7
:1008500066EB71E0CE014F960E94830B87E592E034
:100860000E94D407892B51F087E592E00E94DC07B3
:10087000682FCE014F960E94410CF0CF6DED71E0D4
:100880008CEA92E00E94EF0ABE01615E7F4F8CEA23
:1008900092E00E94EF0A6AE471E08CEA92E00E9422
:1008A000030B67E571E0CE0107960E94830BBE0142
:1008B000695F7F4FCE014F960E94070D811115C0D1
:1008C0006EE571E0CE0101960E94830BBE016F5F61
:1008D0007F4FCE014F960E94070D11E0811110E06D
:1008E000CE0101960E94150B01C010E0CE010796C3
:1008F0000E94150B1111C5C1CE014F960E94BE0278
:10090000811124C065E671E0CE0107960E94830B39
:10091000BE01695F7F4FCE0101960E94B00BCE01F0
:1009200001960E947C03CE0101960E94150B63EE96
:1009300071E08CEA92E00E94EF0A6FE671E08CEAC7
:1009400092E00E94030BCE01079699C167E571E022
:10095000CE0101960E94830BBE016F5F7F4FCE01D7
:100960004F960E94070D882329F011E08BA19CA1CE
:10097000099709F010E0CE0101960E94150B112392
:1009800009F44AC0809106019091070184309105D5
:1009900034F40196909307018093060104C01092ED
:1009A000070110920601E0910601F0910701EE0F98
:1009B000FF1FE45EFE4F60817181CE010D960E94A3
:1009C000830B63E671E0CE010D960E94310C6091BD
:1009D000060170910701CE0107960E94DA01BE015F
:1009E000695F7F4FCE010D960E942A0CBE01635FA6
:1009F0007F4FCE0101960E94B00BCE0101960E945E
:100A00007C03CE0101960E94150BCE0107960E9431
:100A1000150BCE010D9633C167E571E0CE0101964D
:100A20000E94830BBE016F5F7F4FCE014F960E94E5
:100A3000070D182FCE0101960E94150B112309F402
:100A400055C063E671E0CE0101960E94830BBE01A2
:100A50006F5F7F4FCE014F960E94AE0D8C0163E613
:100A600071E0CE0107960E94830BBE01695F7F4F44
:100A7000CE014F960E945C0DAC014F5F5F4F980115
:100A8000BE01615E7F4FCE0149960E94B80DCE0136
:100A900007960E94150BCE0101960E94150B9CE152
:100AA000E92E91E0F92E00E010E0F70161917191DB
:100AB0007F01CE0143960E94830BBE01675E7F4F8C
:100AC000CE0143960E94B10C882331F0B801CE01CB
:100AD0000D960E94DA01A2C0CE0143960E94150B2A
:100AE0000F5F1F4F0530110501F7C7C06EE571E0BC
:100AF000CE0101960E94830BBE016F5F7F4FCE0136
:100B00004F960E94070D182FCE0101960E94150BDB
:100B1000112309F4B6C063E671E0CE0101960E948C
:100B2000830BBE016F5F7F4FCE014F960E94AE0DCB
:100B30008C0163E671E0CE0107960E94830BBE0133
:100B4000695F7F4FCE014F960E945C0DAC014F5FF5
:100B50005F4F9801BE01615E7F4FCE0149960E94B2
:100B6000B80DCE0107960E94150BCE0101960E948A
:100B7000150B63E671E0CE0101960E94830BBE0166
:100B80006F5F7F4FCE0149960E945C0D9C0140E053
:100B900050E0BE01675E7F4FCE0143960E94B80DC4
:100BA000CE0101960E94150B63E671E0CE0101961D
:100BB0000E94830BBE016F5F7F4FCE0149960E945A
:100BC0005C0D2D8D3E8DAC014F5F5F4FBE01675EAA
:100BD0007F4FCE010D960E94B80DCE0101960E9466
:100BE000150BBE01635F7F4FCE0101960E94B00BD3
:100BF000BE016D5E7F4FCE0107960E94B00BBE0115
:100C00006F5F7F4FCE0107960E944602CE01079686
:100C10000E94150BCE0101960E94150BBE016D5E60
:100C20007F4FCE0107960E94B00B63E671E0CE01C4
:100C300007960E94310CBE01635F7F4FCE0107967D
:100C40000E942A0CBE01695F7F4FCE0101960E946F
:100C5000B00BCE0101960E947C03CE0101960E944A
:100C6000150BCE0107960E94150BCE010D960E9422
:100C7000150BCE0143960E94150BCE0149960E949A
:100C8000150BCE014F960E94150BA4960FB6F89443
:100C9000DEBF0FBECDBFDF91CF911F910F91FF90AF
:100CA000EF9008951092560281E0809354021092C2
:100CB000530261E082E10E943A0F61E083E10E9409
:100CC0003A0FE9EBF0E080818E7F808380818D7F19
:100CD000808388E48093B80085E48093BC00089505
:100CE000880F8093BA000895613298F420915602DB
:100CF000243089F460930B02FC018DE092E0DC016A
:100D00002A2F281B261718F421912D93F9CF80E064
:100D1000089581E0089582E00895909350028093B1
:100D20004F0208959093520280935102089585EDE9
:100D30008093BC008091BC0084FDFCCF10925602D1
:100D4000089585EC8093BC001092560208951F927E
:100D50000F920FB60F9211242F933F934F935F93EF
:100D60006F937F938F939F93AF93BF93EF93FF9373
:100D70008091B900887F803609F49CC068F588327C
:100D800009F45BC090F4803109F454C038F488232E
:100D900009F4F5C0883009F44DC0F5C0883109F474
:100DA0004CC0803209F45DC0EEC0803409F468C0E4
:100DB00048F4803309F455C0883309F0E4C08093C7
:100DC000E901A8C0803509F44FC0883509F45DC039
:100DD000883409F0D8C0D5C0883909F4C6C0A8F451
:100DE000883709F467C038F4883609F463C080375F
:100DF00009F460C0C8C0883809F4B7C0803909F464
:100E00005FC0803809F0BFC05BC0803B09F485C07B
:100E100038F4803A09F466C0883A09F47EC0B3C059
:100E2000803C09F4A6C0883C09F4A3C0883B09F4BF
:100E300089C0A9C08091550210C090912E02809166
:100E40002D02981770F5E0912E0281E08E0F8093AD
:100E50002E02F0E0E15DFD4F80818093BB0085ECC8
:100E600085C08093E9018DC0E0912E0281E08E0F54
:100E700080932E028091BB00F0E0E15DFD4F808306
:100E800090912E0280912D026DC0E0912E0281E0A2
:100E90008E0F80932E028091BB00F0E0E15DFD4F4C
:100EA00080838091540281116CC081E08093530251
:100EB00084EA60C083E0809356021092EA01CFCFAB
:100EC0008091EA01803208F050C0E091EA0181E0AF
:100ED0008E0F8093EA018091BB00F0E0E551FE4F58
:100EE0008083BDCF8091EA01803230F4E091EA0145
:100EF000F0E0E551FE4F10820E9497066091EA01F2
:100F000070E0E0914F02F09150028BEE91E0099574
:100F10001092EA010E94A10636C084E08093560236
:100F200010920C0210920B02E0915102F0915202C9
:100F3000099580910B02811105C081E080930B021D
:100F400010920D02E0910C0281E08E0F80930C0252
:100F5000F0E0E35FFD4F80818093BB0090910C0235
:100F600080910B02981708F47ACF85E88093BC0033
:100F70000AC085EC8093BC001092560204C0109207
:100F8000E9010E949706FF91EF91BF91AF919F9168
:100F90008F917F916F915F914F913F912F910F9022
:100FA0000FBE0F901F90189580918A0290E02091BB
:100FB0008B02821B9109089520918B0280918A02F5
:100FC000281750F4E22FF0E0E457FD4F808190E0C5
:100FD0002F5F20938B0208958FEF9FEF0895E0918C
:100FE0008B0280918A02E81730F4F0E0E457FD4F5D
:100FF000808190E008958FEF9FEF08950895E0912C
:101000006302F09164023097E1F030918B022091FD
:101010008A023217B0F040E0242F30E0261737075D
:1010200054F4DC01A20FB31F5C91D901A457BD4F4A
:101030005C934F5FF1CF10928B0260938A02CB01D9
:1010400009940895E0916502F0916602309729F0C5
:10105000109269021092680209940895CF92DF926B
:10106000EF92FF920F931F93CF93DF937C01CB01FD
:101070008A0120916702222389F0EB016B01C40EE3
:10108000D51ECC15DD0569F06991D701ED91FC9174
:101090000190F081E02DC7010995F3CF642F0E94E4
:1010A0007406C801DF91CF911F910F91FF90EF90CF
:1010B000DF90CF900895CF93DF931F92CDB7DEB727
:1010C0006983209167022223D1F0209168022032A7
:1010D00040F021E030E0FC013383228380E090E0A7
:1010E00015C080916902E82FF0E0E659FD4F998123
:1010F00090838F5F809369028093680205C061E0EE
:10110000CE0101960E94740681E090E00F90DF917D
:10111000CF910895FC011382128248EE53E060E003
:1011200070E0448355836683778388E991E09183F7
:101130008083089510928B0210928A0210926902A5
:10114000109268020C945206CF93DF93EC01862F25
:101150000E94700682E298E00E9492068FEF97E06C
:101160000E948D06CE01DF91CF910C949A080C94C9
:10117000A4087093640260936302089570936602FA
:1011800060936502089587E592E00C948A08FC015B
:10119000818D228D90E0805C9F4F821B91098F731F
:1011A00099270895FC01918D828D981731F0828DD9
:1011B000E80FF11D858D90E008958FEF9FEF089562
:1011C000FC01918D828D981761F0828DDF01A80F4F
:1011D000B11D5D968C91928D9F5F9F73928F90E071
:1011E00008958FEF9FEF089584E69AE0892B49F0E8
:1011F00080E090E0892B29F00E94640A81110C9410
:1012000000000895FC01848DDF01A80FB11DA35AD1
:10121000BF4F2C91848D90E001968F739927848F16
:10122000A689B7892C93A089B1898C9180648C930D
:10123000938D848D981306C00288F389E02D8081F8
:101240008F7D80830895CF93DF93EC01888D882371
:10125000C9F0EA89FB89808185FD05C0A889B98923
:101260008C9186FD0FC00FB607FCF5CF808185FFFE
:10127000F2CFA889B9898C9185FFEDCFCE010E946C
:101280000209E7CFDF91CF910895CF92DF92FF92CD
:101290000F931F93CF93DF931F92CDB7DEB76C01EF
:1012A00081E0D60158968C9358975B969C915B97FA
:1012B0005C968C915C97981307C05096ED91FC91C9
:1012C0005197808185FD2EC0F601038D10E00F5FE0
:1012D0001F4F0F731127F02EF601848DF81211C0E5
:1012E0000FB607FCF9CFD6015096ED91FC915197BE
:1012F000808185FFF1CFC60169830E94020969815F
:10130000EBCF838DE80FF11DE35AFF4F6083D601C9
:101310005B960C935B975296ED91FC91539780816D
:1013200080620CC0D6015696ED91FC915797608370
:101330005096ED91FC91519780818064808381E08B
:1013400090E00F90DF91CF911F910F91FF90DF9070
:10135000CF900895BF92CF92DF92EF92FF92CF93FA
:10136000DF93EC016A017B01B22EE889F98982E002
:101370008083411581EE580761057105A1F060E099
:1013800079E08DE390E0A70196010E948910215039
:1013900031094109510956954795379527952115EA
:1013A00080E1380798F0E889F989108260E874E8EC
:1013B0008EE190E0A70196010E9489102150310929
:1013C000410951095695479537952795EC85FD8537
:1013D0003083EE85FF852083188EEC89FD89B082ED
:1013E000EA89FB89808180618083EA89FB89808129
:1013F00088608083EA89FB89808180688083EA89AC
:10140000FB8980818F7D8083DF91CF91FF90EF906A
:10141000DF90CF90BF9008951F920F920FB60F925A
:1014200011242F938F939F93EF93FF93E091BC022E
:10143000F091BD028081E091C202F091C30282FD71
:1014400012C090818091C5028F5F8F732091C60278
:10145000821751F0E091C502F0E0E455FD4F958F01
:101460008093C50201C08081FF91EF919F918F9180
:101470002F910F900FBE0F901F9018951F920F92F3
:101480000FB60F9211242F933F934F935F936F9357
:101490007F938F939F93AF93BF93EF93FF938CEAC8
:1014A00092E00E940209FF91EF91BF91AF919F914D
:1014B0008F917F916F915F914F913F912F910F90FD
:1014C0000FBE0F901F9018958CEA92E00E94C708FB
:1014D00021E0892B09F420E0822F08951092AF02B9
:1014E0001092AE0288EE93E0A0E0B0E08093B002EC
:1014F0009093B102A093B202B093B30288EA91E054
:101500009093AD028093AC0285EC90E09093B90289
:101510008093B80284EC90E09093BB028093BA026F
:1015200080EC90E09093BD028093BC0281EC90E04F
:101530009093BF028093BE0282EC90E09093C10230
:101540008093C00286EC90E09093C3028093C20225
:101550001092C5021092C6021092C7021092C802E1
:101560000895CF92DF92EF92FF920F931F93CF9344
:10157000DF936C017A01EB01E60EF71E00E010E04C
:10158000CE15DF0561F06991D601ED91FC910190D6
:10159000F081E02DC6010995080F191FF1CFC80190
:1015A000DF91CF911F910F91FF90EF90DF90CF903F
:1015B00008956115710581F0DB010D900020E9F7B8
:1015C000AD0141505109461B570BDC01ED91FC91D7
:1015D0000280F381E02D099480E090E00895DC0121
:1015E000ED91FC91DB0114964D915C9115976D91F5
:1015F0007C910280F381E02D09940C94D90A64EB6C
:1016000071E00C94D90A0F931F93CF93DF93EC01F1
:101610000E94D90A8C01CE010E94FF0A800F911FFF
:10162000DF91CF911F910F910895FC0180819181ED
:101630000C946A11CF93DF93EC0188819981009714
:1016400011F00E946A11198218821D821C821B826D
:101650001A82DF91CF9108950F931F93CF93DF9359
:10166000EC018B016F5F7F4F888199810E94F91196
:10167000009731F0998388831B830A8381E001C03E
:1016800080E0DF91CF911F910F910895CF93DF9369
:10169000EC0188819981892B29F08A819B818617A9
:1016A000970760F4CE010E942C0B882341F08C81B7
:1016B0009D81892B19F4E881F981108281E0DF9105
:1016C000CF910895EF92FF920F931F93CF93DF93E3
:1016D000EC017B018A01BA010E94460B811104C012
:1016E000CE010E941A0B07C01D830C83B7018881AD
:1016F00099810E94E912CE01DF91CF911F910F9144
:10170000FF90EF900895FC011182108213821282E3
:10171000158214826115710559F0FB0101900020BA
:10172000E9F7AF0141505109461B570B0C94620B6E
:101730000895CF93DF93EC01FB018617970761F0C3
:10174000608171816115710529F0448155810E9484
:10175000620B02C00E941A0BCE01DF91CF91089557
:10176000FC011182108213821282158214820C9461
:10177000990BCF93DF93EC016115710561F0FB01CB
:1017800001900020E9F7AF0141505109461B570B6A
:101790000E94620B02C00E941A0BCE01DF91CF9112
:1017A00008950F931F93CF93DF93CDB7DEB729979B
:1017B0000FB6F894DEBF0FBECDBF8C01862FF801A7
:1017C00011821082138212821582148250E0BE01AF
:1017D0006F5F7F4F90E00E942713BE016F5F7F4FC6
:1017E000C8010E94B90B29960FB6F894DEBF0FBE50
:1017F000CDBFDF91CF911F910F910895EF92FF928E
:101800000F931F93CF93DF93EC017B010C811D811C
:101810006115710511F480E016C04115510591F074
:10182000040F151FB8010E94460B8823A1F32881DD
:1018300039818C819D81B701820F931F0E94E9122B
:101840001D830C8381E0DF91CF911F910F91FF9059
:10185000EF900895FB0144815581608171810C9462
:10186000FE0B6115710559F0FB0101900020E9F7AD
:10187000AF0141505109461B570B0C94FE0B80E001
:101880000895CF93DF9300D0CDB7DEB769831A8276
:1018900041E050E0BE016F5F7F4F0E94FE0B0F9052
:1018A0000F90DF91CF910895CF93DF93EC01FB016F
:1018B00044815581608171810E94FE0B811103C0BA
:1018C000CE010E941A0BCE01DF91CF910895CF93E4
:1018D000DF93EC016115710569F0FB0101900020B7
:1018E000E9F7AF0141505109461B570B0E94FE0B0F
:1018F000811103C0CE010E941A0BCE01DF91CF915E
:101900000895CF93DF93DC01ED91FC91EB01A88169
:10191000B981309711F01097C9F4109759F0EB0185
:101920002C813D81232B31F08C9190E09195819514
:10193000910914C0309781F0DC0114968D919C912F
:101940001597892B49F0808190E008C0BD01CF0137
:10195000DF91CF910C94E01280E090E0DF91CF9185
:101960000895FC0144815581FB0124813581421792
:10197000530741F40E94810C21E0892B09F020E0FB
:10198000822F089580E00895FC0124813581232B66
:1019900031F421E061157105A1F0FB0108C0FC01E3
:1019A000808191816115710531F421E0FC01808114
:1019B000882339F005C00E94E01221E0892B09F04C
:1019C00020E0822F0895FA01DB0114964D915C917D
:1019D0001597DC0114962D913C911597241B350B1E
:1019E0002E173F0788F08D919C91009769F0DB01DD
:1019F0006D917C916115710539F08E0F9F1F0E94CA
:101A0000F01221E0892B09F020E0822F0895FC01DB
:101A100044815581FB01248135814217530720F011
:101A200040E050E00C94E30C80E008950F931F9386
:101A3000CF93DF93EB0141155105E9F02097D9F0E1
:101A4000FC016481758126173707A0F4621B730BB4
:101A50008A01015011096017710708F48B01FC011C
:101A600060817181620F731FA801CE010E94FE1276
:101A7000C00FD11F1882DF91CF911F910F91089550
:101A8000CF93DF93FC01848195814817590778F43F
:101A9000C081D181FB0160817181CE01840F951FCE
:101AA0000E940D13009719F08C1B9D0B02C08FEF45
:101AB0009FEFDF91CF91089540E050E00C94400DEE
:101AC000AF92BF92CF92DF92EF92FF920F931F934C
:101AD000CF93DF937B01EA01FB01448155814115DE
:101AE000510569F1FC01248135812115310539F158
:101AF0002417350720F1C217D30710F0E901219709
:101B0000FC0100811181C801AA24AA94BB24BA94C3
:101B10006801CC0EDD1EC816D906A0F0F701608161
:101B200071810E940D13009769F09C01201B310BFD
:101B3000C217D30708F4950101965901ECCF8FEF36
:101B40009FEF01C0C501DF91CF911F910F91FF90D1
:101B5000EF90DF90CF90BF90AF900895FC0144814B
:101B60005581FB0124813581421B530B0C94600D80
:101B7000BF92CF92DF92EF92FF920F931F93CF937A
:101B8000DF936C017B01EA0189012417350720F4FA
:101B90008D2FE901042F182F66EB71E0C6010E941A
:101BA000830BD70114968D919C911597C817D9076F
:101BB000C8F48017910708F48C01D701ED91FC91CE
:101BC0001197E00FF11FB08010826D917C916C0F26
:101BD0007D1FC6010E94B90BD701ED91FC91E00F6A
:101BE000F11FB082C601DF91CF911F910F91FF903D
:101BF000EF90DF90CF90BF900895CF93DF93FC01DB
:101C0000C081D181209751F08881882339F09927AC
:101C100087FD90950E94CF128993F6CFDF91CF91E7
:101C20000895AF92BF92CF92DF92EF92FF920F93FF
:101C30001F93CF93DF937C01DC01CD90DC90119753
:101C4000C114D10409F441C01496CD91DC911597CB
:101C50002097D9F156018501BFEFAB1ABB0AF801F5
:101C60008081992787FD90950E94C712892B99F74B
:101C70002197CC0DDD1D8881992787FD90950E94C5
:101C8000C712892B91F4AE014F5F5F4F401B510B80
:101C9000D70115965C934E931497C016D10650F455
:101CA000B801C6010E94D71205C0C017D10758F36A
:101CB0002197E1CFD701ED91FC91119714968D9169
:101CC0009C911597E80FF91F1082DF91CF911F911A
:101CD0000F91FF90EF90DF90CF90BF90AF9008955D
:101CE000FC0180819181009711F00C94C31260E097
:101CF00070E0CB010895089508950E94D60E0E94C9
:101D00007C0E0E94B701C4EFD8E00E94D801209752
:101D1000E1F30E94F408F9CF1F920F920FB60F92D1
:101D200011242F933F938F939F93AF93BF938091F1
:101D30004A0390914B03A0914C03B0914D03309115
:101D4000490323E0230F2D3720F40196A11DB11D77
:101D500005C026E8230F0296A11DB11D209349035B
:101D600080934A0390934B03A0934C03B0934D038D
:101D700080914E0390914F03A0915003B091510375
:101D80000196A11DB11D80934E0390934F03A09324
:101D90005003B0935103BF91AF919F918F913F91A9
:101DA0002F910F900FBE0F901F901895789484B5C7
:101DB000826084BD84B5816084BD85B5826085BD47
:101DC00085B5816085BDEEE6F0E08081816080832D
:101DD000E1E8F0E010828081826080838081816010
:101DE0008083E0E8F0E0808181608083E1EBF0E0D7
:101DF000808184608083E0EBF0E08081816080837B
:101E0000EAE7F0E080818460808380818260808363
:101E10008081816080838081806880831092C1008E
:101E20000895833081F028F4813099F08230A1F058
:101E300008958730A9F08830B9F08430D1F48091CA
:101E400080008F7D03C0809180008F778093800019
:101E5000089584B58F7702C084B58F7D84BD0895C1
:101E60008091B0008F7703C08091B0008F7D809308
:101E7000B00008950F931F93CF93DF931F92CDB7B8
:101E8000DEB7282F30E0F901E859FE4F8491F901BF
:101E9000E458FE4F1491F901E057FE4F04910023DE
:101EA000C9F0882321F069830E94110F6981E02F16
:101EB000F0E0EE0FFF1FEC55FE4FA591B4919FB7D8
:101EC000F8948C91611103C01095812301C0812B7E
:101ED0008C939FBF0F90DF91CF911F910F91089529
:101EE00040D008F481E00895E89409C097FB3EF4DF
:101EF00090958095709561957F4F8F4F9F4F992357
:101F0000A9F0F92F96E9BB279395F69587957795D4
:101F10006795B795F111F8CFFAF4BB0F11F460FF94
:101F20001BC06F5F7F4F8F4F9F4F16C0882311F0EC
:101F300096E911C0772321F09EE8872F762F05C000
:101F4000662371F096E8862F70E060E02AF09A959B
:101F5000660F771F881FDAF7880F9695879597F990
:101F60000895990F0008550FAA0BE0E8FEEF16162A
:101F70001706E807F907C0F012161306E407F5077D
:101F800098F0621B730B840B950B39F40A2661F0F1
:101F9000232B242B252B21F408950A2609F4A14094
:101FA000A6958FEF811D811D089597F99F6780E8A1
:101FB00070E060E008959FEF80EC089500240A949B
:101FC0001616170618060906089500240A94121614
:101FD0001306140605060895092E0394000C11F447
:101FE000882352F0BB0F40F4BF2B11F460FF04C0F4
:101FF0006F5F7F4F8F4F9F4F089557FD9058440F4D
:10200000551F59F05F3F71F04795880F97FB991F57
:1020100061F09F3F79F08795089512161306140614
:10202000551FF2CF4695F1DF08C0161617061806A1
:10203000991FF1CF86957105610508940895E8947C
:10204000BB2766277727CB0197F908950BD0C4CF1C
:10205000B5DF28F0BADF18F0952309F0A6CFABCF93
:102060001124EECFCADFA0F3959FD1F3950F50E076
:10207000551F629FF001729FBB27F00DB11D639F3A
:10208000AA27F00DB11DAA1F649F6627B00DA11DE0
:10209000661F829F2227B00DA11D621F739FB00D86
:1020A000A11D621F839FA00D611D221F749F3327F6
:1020B000A00D611D231F849F600D211D822F762F8F
:1020C0006A2F11249F5750408AF0E1F088234AF08C
:1020D000EE0FFF1FBB1F661F771F881F91505040D8
:1020E000A9F79E3F510570F060CFAACF5F3FECF398
:1020F000983EDCF3869577956795B795F795E795C4
:102100009F5FC1F7FE2B880F911D9695879597F9D4
:102110000895A1E21A2EAA1BBB1BFD010DC0AA1F28
:10212000BB1FEE1FFF1FA217B307E407F50720F040
:10213000A21BB30BE40BF50B661F771F881F991FBB
:102140001A9469F760957095809590959B01AC0104
:10215000BD01CF010895EE0FFF1F0590F491E02D12
:102160000994EF920F931F93CF93DF93E80147FFFA
:1021700002C034E101C034E0E42FFF27E7FDF09511
:10218000F7FF03C0F195E195F109E32E022F2E2F01
:10219000AE010E944C13CE01DF91CF911F910F91A0
:1021A000EF900895CF93DF938230910510F482E091
:1021B00090E0E0915403F091550320E030E0A0E07E
:1021C000B0E0309739F14081518148175907B8F094
:1021D0004817590771F482819381109729F013965B
:1021E0009C938E9312972CC0909355038093540325
:1021F00027C02115310531F04217530718F0A90106
:10220000DB0101C0EF019A01BD01DF010280F38112
:10221000E02DD7CF21153105F9F0281B390B2430DB
:10222000310580F48A819B816115710521F0FB01E4
:102230009383828304C09093550380935403FE01DB
:10224000329644C0FE01E20FF31F81939193225016
:102250003109398328833AC02091520330915303C6
:10226000232B41F420910201309103013093530359
:102270002093520320910001309101012115310575
:1022800041F42DB73EB74091040150910501241B44
:10229000350BE0915203F0915303E217F307A0F4DA
:1022A0002E1B3F0B2817390778F0AC014E5F5F4FAC
:1022B0002417350748F04E0F5F1F50935303409388
:1022C00052038193919302C0E0E0F0E0CF01DF91EF
:1022D000CF910895CF93DF93009709F487C0FC0155
:1022E000329713821282C0915403D09155032097E4
:1022F00081F420813181280F391F80915203909100
:1023000053038217930779F5F0935303E093520335
:102310006DC0DE0120E030E0AE17BF0750F412962A
:102320004D915C9113979D014115510509F1DA0119
:10233000F3CFB383A28340815181840F951F8A1705
:102340009B0771F48D919C911197840F951F0296B4
:102350009183808312968D919C91139793838283AE
:102360002115310529F4F0935503E09354033EC041
:10237000D9011396FC93EE9312974D915D91A40FA2
:10238000B51FEA17FB0779F480819181840F951FAF
:102390000296D90111969C938E9382819381139614
:1023A0009C938E931297E0E0F0E08A819B810097E6
:1023B00019F0FE01EC01F9CFCE0102962881398196
:1023C000820F931F2091520330915303281739072E
:1023D00069F4309729F4109255031092540302C007
:1023E00013821282D0935303C0935203DF91CF9193
:1023F0000895A0E0B0E0EFEFF1E10C943F17EC019D
:10240000CB01209719F40E94D210B8C0FE01E60F4C
:10241000F71F9E0122503109E217F30708F4ACC000
:10242000D9010D911C91119706171707B8F00530C7
:10243000110508F49FC0A8014450510946175707D9
:1024400008F498C002501109061B170B0193119351
:102450006D937C93CF010E946A118CC05B01A01A1E
:10246000B10A4E01800E911EA0915403B091550304
:10247000612C712C60E070E0109709F449C0A81538
:10248000B905C9F5ED90FC901197670142E0C40EC3
:10249000D11CCA14DB0478F147018A189B08640137
:1024A00042E0C40ED11C1296BC9012971396AC91C8
:1024B000B5E0CB16D10440F0B282A3839182808232
:1024C000D9018D939C9309C00E5F1F4F0E0D1F1DE8
:1024D000F90111830083EB2DFA2F6115710531F09D
:1024E000DB011396FC93EE93129744C0F0935503CF
:1024F000E09354033FC06D917C9111976616770667
:1025000008F43B01BD0112960D90BC91A02DB4CFF3
:10251000609152037091530368157905E9F46816C8
:102520007906D0F440910001509101014115510507
:1025300041F44DB75EB76091040170910501461BEF
:10254000570BE417F507C0F4F0935303E0935203DD
:10255000F901918380830EC00E94D2107C01009704
:1025600059F0A801BE010E94D712CE010E946A1143
:10257000C70104C0CE0102C080E090E0CDB7DEB755
:10258000EEE00C945B17662777270C94CA14911120
:102590003CC4803219F089508550D0F708959111CC
:1025A000089581568A5108F4805285580895FB0198
:1025B000DC0102C001900D9241505040D8F70895BF
:1025C000FB01DC018D91019080190110D9F3990B69
:1025D0000895FB01DC0101900D920020E1F70895C0
:1025E000FB01DC014150504030F08D910190801989
:1025F00019F40020B9F7881B990B0895FB01DC0141
:102600004150504048F001900D920020C9F701C0A0
:102610001D9241505040E0F70895FB015191552320
:10262000A9F0BF01DC014D9145174111E1F759F4C3
:10263000CD010190002049F04D9140154111C9F3A1
:10264000FB014111EFCF81E090E001970895453201
:10265000510520F4423010F00C943213FB0110822B
:10266000CB010895BB27FB015527AA27880F991F87
:10267000AA1FA41710F0A41B83955051B9F7A05DB1
:10268000AA3308F0A95DA193009779F7B111B1932E
:102690001192CB010C9420176F927F929F92AF9270
:1026A000BF92CF92DF92EF92FF920F931F93CF933F
:1026B000DF93CDB7DEB729970FB6F894DEBF0FBE14
:1026C000CDBF6A01B22E102F0C3320F4FF24F394F7
:1026D000F00E02C04CE3F42E0F2D27E0AE014F5F49
:1026E0005F4F0E942D167981272F2970213031F0FC
:1026F000E1FC06C0E0FC06C060E005C06DE203C07E
:102700006BE201C060E2AE2DA07173FF36C066239C
:1027100011F084E001C083E08B1510F4B81A01C0F9
:10272000B12CA1110BC0F6018B2D90E2882319F07A
:1027300091938150FBCFCB0CD11CB12C662331F08F
:10274000F601608396012F5F3F4F6901C601039632
:10275000E2FE05C02EE4F601208331E404C02EE63B
:10276000F601208331E631832283FC012B2D30E2F8
:102770002223F1F131932150FBCF72FF40C0662339
:1027800011F084E001C083E08B1510F4B81A01C089
:10279000B12CA1110BC0F6018B2D90E2882319F00A
:1027A00091938150FBCFCB0CD11CB12C662331F01F
:1027B000F601608396012F5F3F4F6901C6010396C2
:1027C000E2FE07C029E4F60120832EE4218326E4FB
:1027D00006C029E6F60120832EE6218326E6228321
:1027E000FC012B2D30E2222319F031932150FBCF35
:1027F000FC01EB0DF11D10828EEF9FEFB7C0B1E031
:10280000611101C0B0E04B2F50E01816190624F4F6
:102810009C012F5F3F4F02C021E030E0240F351FA5
:10282000112329F0412F50E04F5F5F4F02C040E07D
:1028300050E0420F531F2B2D30E04217530714F482
:10284000B41A01C0B12C2E2D287159F4F6012B2D8C
:1028500030E2222319F031932150FBCFCB0CD11C55
:10286000B12CBB2331F0F601608396012F5F3F4FFF
:102870006901A1110BC0F6012B2D30E3222319F0C1
:1028800031932150FBCFCB0CD11CB12CF80E0A8117
:10289000372F3071A32E74FF03C0013309F4FA946B
:1028A0001F142CF42F2D293018F028E001C021E04E
:1028B000682F392F97FF02C060E030E0462F532F7A
:1028C000612C712C3EE2932EBC01621B71099B01AD
:1028D000DC01A41BB50BE1E0F0E0EC0FFD1FAE0F37
:1028E000BF1FE12EF12CF194E194F1084F3FFFEF6F
:1028F0005F0731F4F6019082B6016F5F7F4F6B0185
:10290000841795074CF02417350734F4BD01660D84
:10291000771DFB01118101C010E341505109FFEF08
:102920006F1A7F0AB6016F5F7F4F4E155F0524F067
:10293000F60110836B01DACF4817590739F40633D3
:1029400020F4053319F4A11001C011E3F60110833E
:10295000FB018B2D90E2882319F091938150FBCFDE
:10296000FB01EB0DF11D108280E090E029960FB67F
:10297000F894DEBF0FBECDBFDF91CF911F910F91B5
:10298000FF90EF90DF90CF90BF90AF909F907F909F
:102990006F900895A0E0B0E0E0EDF4E10C944117F1
:1029A0008B016115710521F0DB018C9311969C93CD
:1029B000EC015E01BFEFAB1ABB0A7501C8808C2D1C
:1029C00090E00E94C712892B11F0E501F2CFEDE2F1
:1029D000CE1208C07E01F2E0EF0EF11CC980DD24AA
:1029E000D39409C02BE2C21205C07E0142E0E40E7E
:1029F000F11CC980D12CE701219743E050E066EB40
:102A000071E0CE010E940817892BC1F4239645E09E
:102A100050E061EB71E0CE010E940817892B09F4A8
:102A200025960115110519F0D801CD93DC93D1102D
:102A300006C160E070E080E89FE70AC143E050E033
:102A40006EEA71E0CE010E940817892B59F4011536
:102A5000110509F4F9C0B2E0EB0EF11CF801F182A6
:102A6000E082F2C0F70160E070E0CB01C0E0D0E0AE
:102A70007F01A0EDAA2EAC0C29E02A1530F14D2DD6
:102A80004260B42E2D2D2870D2FE04C0211125C025
:102A9000219623C021112197A5E0B0E09B01AC0154
:102AA0000E943017660F771F881F991F6A0D711DCE
:102AB000811D911D6839A9E97A078A07A9E19A075A
:102AC00060F0BD2DB660BB2E08C02EEFA2120AC06A
:102AD000D3FC50C04D2D4860B42E3196D701CC9018
:102AE000DB2CC6CF2C2D2F7D253409F043C0A081CF
:102AF000AD3241F4BD2DB061DB2E7F0122E0E20E4C
:102B0000F11C0CC07F01AB3231F04FEFE41AF40A34
:102B100021E030E006C0A2E0EA0EF11CA18122E033
:102B200030E0A053AA3018F0E21AF30A23C0F701EC
:102B300020E030E02038BCE03B075CF4A901440F02
:102B4000551F440F551F240F351F220F331F2A0F07
:102B5000311DAF014F5F5F4F7A01A081A053AA30B2
:102B600010F4FA01E7CFD4FE03C031952195310965
:102B7000C20FD31FD1FE09C00115110531F0E1E0EC
:102B8000EE1AF108D801ED92FC920E94740F2D2DDF
:102B90002370233019F04B015C0106C04B015C012E
:102BA000B7FAB094B7F8B09420E030E0A901C501BD
:102BB000B4010E94700F882309F43EC0D7FF06C0FD
:102BC000D195C195D1090DEC11E002C005EE11E0DF
:102BD0006801B8E1CB1AD10890E2E92EF12CCE15AC
:102BE000DF0574F0F8012591359145915491C501A7
:102BF000B4010E9426104B015C01CE19DF09EFCF12
:102C000004501109F594E7940C151D0541F78A2D20
:102C1000880F8B2D881F8F3F49F020E030E0A901FD
:102C2000C501B4010E94700F811106C082E290E0DC
:102C30009093570380935603C501B40109C060E027
:102C400070E080E89FEF04C060E070E080EC9FE7F8
:102C5000CDB7DEB7ECE00C945D17283008F027E024
:102C60003327DA01990F311D87FD916000966105C8
:102C7000710539F432602E5F3D9330E32A95E1F718
:102C800008959F3F30F080387105610509F03C5F81
:102C90003C5F3D93913008F08068911DDF93CF93A6
:102CA0001F930F93FF92EF92192F987F9695E92F1C
:102CB00096959695E90FFF27ED5BFD4F99273327F2
:102CC000EE24FF24A701E70105900894079428F457
:102CD000360FE71EF81E491F511D660F771F881F0C
:102CE000991F0694A1F70590079428F4E70EF81EA3
:102CF000491F561FC11D770F881F991F661F069415
:102D0000A1F70590079428F4F80E491F561FC71F16
:102D1000D11D880F991F661F771F0694A1F7059094
:102D2000079420F4490F561FC71FD81F990F661F1D
:102D3000771F881F0694A9F784911095177041F0AA
:102D4000D695C79557954795F794E7941A95C1F787
:102D5000E9EEF1E0689415901591359165919591A2
:102D600005907FE27395E118F10A430B560BC90BEE
:102D7000D009C0F7E10CF11E431F561FC91FD01D1B
:102D80007EF4703311F48A95E6CFE894015030F068
:102D9000080F0AF40027021708F4202F2395022FAA
:102DA0007A3328F079E37D932A95E9F710C07D9373
:102DB0002A9589F6069497956795379517951794F0
:102DC000E118F10A430B560BC90BD00998F0239573
:102DD0007E9173957A3308F070E37C932013B8F7F3
:102DE0007E9170617D9330F0839571E37D9370E304
:102DF0002A95E1F71124EF90FF900F911F91CF9149
:102E0000DF91992787FD9095089599278827089540
:102E1000FB01DC014150504088F08D9181341CF061
:102E20008B350CF4805E659161341CF06B350CF4CD
:102E3000605E861B611171F3990B0895881BFCCFAE
:102E4000DC01FC01672F71917723E1F7329704C011
:102E50007C916D9370836291AE17BF07C8F308959C
:102E60000E947217A59F900DB49F900DA49F800D96
:102E7000911D112408952F923F924F925F926F926D
:102E80007F928F929F92AF92BF92CF92DF92EF92FA
:102E9000FF920F931F93CF93DF93CDB7DEB7CA1B7B
:102EA000DB0B0FB6F894DEBF0FBECDBF09942A88A6
:102EB000398848885F846E847D848C849B84AA844E
:102EC000B984C884DF80EE80FD800C811B81AA81DB
:102ED000B981CE0FD11D0FB6F894DEBF0FBECDBFA6
:102EE000ED010895A29FB001B39FC001A39F700D93
:102EF000811D1124911DB29F700D811D1124911D02
:102F0000089512E0CAEED2E004C0FE010E94AD10A6
:0C2F10002296CC3ED107C9F7F894FFCF01
:102F1C00000058038000FFFF3333A340333383405A
:102F2C006666464066660640CDCC8C3F8E018801B5
:102F3C0082017C0176017374617274006974656D31
:102F4C0031006974656D32006974656D33006974A4
:102F5C00656D34006974656D35005D0052455350E4
:102F6C005B005245515B0041544745542C00415481
:102F7C00434D442C004552524F522F435243004371
:102F8C005243455252006974656D35006974656D24
:102F9C0034006974656D33006974656D3200697451
:102FAC00656D3100000000005B082E08D407DC07BB
:102FBC00EF07FE07000000004509B10AC708E0084A
:102FCC00D20823090D0A006E616E00696E66006FEF
:062FDC007666002E0000E5
:00000001FF
