:100000000C94B5000C94DD000C94DD000C94DD0024
:100010000C94DD000C94DD000C94DD000C94DD00EC
:100020000C94DD000C94DD000C94DD000C94DD00DC
:100030000C94DD000C94DD000C94DD000C94DD00CC
:100040000C94150C0C94DD000C9461080C94E408DD
:100050000C94DD000C94DD000C94DD000C94DD00AC
:100060000C946D040C94DD005D005D3D5B00434D20
:10007000445F56414C56455B004552523A00574149
:100080005445525F4F55543A0057415445525F49C9
:100090004E3A0056343A0056333A0056323A005639
:1000A000313A00545A3A005D00554E4B4E4F574E70
:1000B00020434D445B0056414C56455F343D300073
:1000C00056414C56455F343D310056414C56455FD4
:1000D000333D300056414C56455F333D310056416B
:1000E0004C56455F323D300056414C56455F323DDF
:1000F000310056414C56455F313D300056414C561B
:10010000455F313D3100536C6176650000000000B1
:10011000240027002A0000000000250028002B00F2
:100120000000000023002600290004040404040445
:100130000404020202020202030303030303010296
:100140000408102040800102040810200102040865
:100150001020000000070002010000030406000058
:100160000000000000008706970811241FBECFEF93
:10017000D8E0DEBFCDBF11E0A0E0B1E0E6EEFFE1E8
:1001800002C005900D92A832B107D9F712E0A8E29B
:10019000B1E001C01D92A93AB107E1F711E0CAE64A
:1001A000D1E004C02297FE010E94ED0FC636D107B0
:1001B000C9F70E94060C0C94F10F0C940000FB018F
:1001C000DC0105900D920020E1F70895FC010590F7
:1001D0000020E9F7809590958E0F9F1F0895FB01F1
:1001E000DC0102C001900D9241505040D8F70895B3
:1001F000FB01DC018D91019080190110D9F3990B5D
:100200000895FB01DC0101900D920020E1F70895B3
:1002100020E030E080912801882311F021E030E0D7
:1002200080912901882311F02F5F3F4F80912A018F
:10023000882311F02F5F3F4F80912B01882311F00D
:100240002F5F3F4F80E0223031050CF081E00895B0
:100250000F931F93CF93DF938C01C0E0D0E015C0C4
:100260008DE061E00E943F0D64E670E080E090E088
:100270000E94980C8DE060E00E943F0D64E670E003
:1002800080E090E00E94980C2196C017D10744F3BB
:1002900084E090E0801B910B28EC30E0829FB0015D
:1002A000839F700D929F700D1124882777FD809594
:1002B000982F0E94980CDF91CF911F910F91089574
:1002C00080912801882329F081E090E061E00E947C
:1002D000280180912901882329F082E090E061E0E3
:1002E0000E94280180912A01882329F083E090E070
:1002F00061E00E94280180912B01882329F084E08D
:1003000090E061E00E94280164EF71E080E090E0FD
:100310000E94980C8091340190913501A091360192
:10032000B09137010296A11DB11D809334019093C5
:100330003501A0933601B09337018091300190913F
:100340003101A0913201B09133010196A11DB11D7F
:100350008093300190933101A0933201B093330127
:1003600008951F93CF93DF93EC01162F109238015D
:100370001092390110923A0110923B01662309F460
:1003800048C00E940801882309F443C081E090E03E
:10039000A0E0B0E08093380190933901A0933A0136
:1003A000B0933B0147C01093280188E003C010932D
:1003B000290189E0612F0E943F0D0AC010932A0194
:1003C0008AE0F8CF8BE0612F0E943F0D10932B0144
:1003D0008FEF91E06EE670E00E9434098FEF91E0BC
:1003E000BE014AE050E00E94B00A8FEF91E06AE659
:1003F00070E00E9434098FEF91E0612F4AE050E0F5
:100400000E94400A8FEF91E068E670E00E9489093F
:1004100011C0C230D10559F2C330D10524F4C13026
:10042000D105B1F6C0CFC330D10541F2C430D105FA
:1004300079F6C8CFDF91CF911F9108950F931F9345
:10044000DF93CF93CDB7DEB764970FB6F894DEBFD6
:100450000FBECDBF809128018983809129018A83B5
:1004600080912A018B8380912B018C8380912C01B8
:100470008D8380912D018E8380912E018F838091B9
:100480002F0188878091340190913501A091360128
:10049000B09137018987292F3A2F4B2F55272A876B
:1004A0009D01442755272B878B2F9927AA27BB27E8
:1004B0008C878091300190913101A0913201B091EF
:1004C00033018D87292F3A2F4B2F55272E879D01DA
:1004D000442755272F878B2F9927AA27BB27888B3F
:1004E0008091380190913901A0913A01B0913B017E
:1004F000898B292F3A2F4B2F55272A8B9D01442773
:1005000055272B8B8B2F9927AA27BB278C8B83EF03
:1005100091E0BE016F5F7F4F44E150E00E949E0674
:100520000FEF11E0C80163EA70E00E948909C80179
:100530006FE970E00E943409C801609128014AE027
:1005400050E00E94520AC8016BE970E00E94340931
:10055000C801609129014AE050E00E94520AC80196
:1005600067E970E00E943409C80160912A014AE0FD
:1005700050E00E94520AC80163E970E00E94340909
:10058000C80160912B014AE050E00E94520AC80164
:1005900069E870E00E9434094091340150913501BE
:1005A0006091360170913701C8012AE030E00E9465
:1005B0002C0AC8016EE770E00E94340940913001B6
:1005C000509131016091320170913301C8012AE0EC
:1005D00030E00E942C0AC80169E770E00E943409EB
:1005E000409138015091390160913A0170913B017D
:1005F000C8012AE030E00E942C0A64960FB6F894F5
:10060000DEBF0FBECDBFCF91DF911F910F91089537
:10061000CF92DF92EF92FF920F931F93DF93CF93CE
:10062000CDB7DEB7E6970FB6F894DEBF0FBECDBFED
:100630008E010F5F1F4FC80160E071E00E94E70B61
:10064000D02EC12E09C083EF91E00E942506682FAD
:100650008D2D9C2D0E94590B83EF91E00E941C066A
:10066000892B89F78E01095F1F4FC8016CEF70E07D
:100670000E94BC0B8D2D9C2DB8010E94C30A7C01E9
:10068000C8010E94000CEF2819F481E090E086C0B8
:100690008E01035F1F4FC80162EF70E00E94BC0B28
:1006A0008D2D9C2DB8010E94C30A7C01C8010E94B7
:1006B000000CEF2831F481E090E060E00E94B1018D
:1006C00097C08E010D5E1F4FC80168EE70E00E945A
:1006D000BC0B8D2D9C2DB8010E94C30A7C01C80162
:1006E0000E94000CEF2819F482E090E057C08E01C0
:1006F000075E1F4FC8016EED70E00E94BC0B8D2D90
:100700009C2DB8010E94C30A7C01C8010E94000C04
:10071000EF2819F482E090E0D0CF8E01015E1F4FE8
:10072000C80164ED70E00E94BC0B8D2D9C2DB801BA
:100730000E94C30A7C01C8010E94000CEF2819F432
:1007400083E090E02BC08E010B5D1F4FC8016AEC67
:1007500070E00E94BC0B8D2D9C2DB8010E94C30A35
:100760007C01C8010E94000CEF2819F483E090E09E
:10077000A4CF8E01055D1F4FC80160EC70E00E94A0
:10078000BC0B8D2D9C2DB8010E94C30A7C01C801B1
:100790000E94000CEF2821F484E090E061E08ECF0D
:1007A0008E010F5C1F4FC80166EB70E00E94BC0B0E
:1007B0008D2D9C2DB8010E94C30A7C01C8010E94A6
:1007C000000CEF2819F484E090E077CF8FEF91E0F0
:1007D00069EA70E00E9434098FEF91E06D2D7C2D65
:1007E0000E9457098FEF91E067EA70E00E94890943
:1007F000CE0101960E94000CE6960FB6F894DEBF7B
:100800000FBECDBFCF91DF911F910F91FF90EF9061
:10081000DF90CF9008950F931F9388E061E00E94CE
:10082000000D89E061E00E94000D8AE061E00E9415
:10083000000D8BE061E00E94000D8DE061E00E9400
:10084000000D03EF11E0C80164E070E00E941E0794
:10085000C80168E073E00E947D06C8016EE172E0A5
:100860000E9482060FEF11E0C80140E855E260E007
:1008700070E026E00E945107C80166E071E00E9426
:1008800089091F910F910895880F8093BA000895E8
:10089000482F613210F081E0089580913C0184304E
:1008A00011F082E0089560938701A6E6B1E0842FFD
:1008B0009C01F90102C081918D938E2F841B8617B4
:1008C000D0F380E00895909343018093420108950E
:1008D000909341018093400108951F920F920FB6AB
:1008E0000F9211242F933F934F935F936F937F93B6
:1008F0008F939F93AF93BF93EF93FF938091B90032
:1009000090E0887F90708036910509F4F2C08136BE
:100910009105CCF58832910509F47BC089329105A7
:10092000B4F48031910509F46FC0813191053CF434
:10093000009709F447C1089709F04FC165C0883195
:10094000910509F466C0809709F047C182C08034E0
:10095000910509F4A4C08134910544F480339105D4
:1009600009F482C0C89709F038C189C08035910563
:1009700009F489C08835910509F496C08834910539
:1009800009F02BC1AEC08839910509F413C189392A
:100990009105ECF48837910509F4ABC089379105CE
:1009A0004CF48836910509F4A4C08037910509F00C
:1009B00014C19FC08838910509F4FCC080399105A5
:1009C00009F49DC08038910509F007C198C0803BAB
:1009D000910509F4C6C0813B91054CF4803A91051C
:1009E00009F49FC0883A910509F0F7C0BAC0803C6D
:1009F000910509F4E3C0883C910509F4DFC0883B08
:100A0000910509F0EAC0C2C080913D018093BB000E
:100A1000CFC09091640180916501981768F490911E
:100A20006401E92FF0E0EC5BFE4F80818093BB0016
:100A30009F5F90936401BCC080913E01882309F4BC
:100A40004BC085ED8093BC008091BC0084FDFCCF41
:100A5000C2C080E28093A90185ED8093BC008091A3
:100A6000BC0084FDFCCFB7C080E38093A90185ED75
:100A70008093BC008091BC0084FDFCCFACC088E3B7
:100A80008093A9019BC0809164019091BB00E82FE5
:100A9000F0E0EC5BFE4F90838F5F80936401909158
:100AA00064018091650182C0809164019091BB00D6
:100AB000E82FF0E0EC5BFE4F90838F5F8093640142
:100AC00080913E01882341F085ED8093BC008091A8
:100AD000BC0084FDFCCF7FC081E080933F0184EAAD
:100AE0006EC085ED8093BC008091BC0084FDFCCF7E
:100AF00072C083E080933C011092A80159C080919C
:100B0000A801803208F056C08091A8019091BB00E6
:100B1000E82FF0E0E857FE4F90838F5F8093A801A5
:100B200047C08091A801803230F4E091A801F0E044
:100B3000E857FE4F108285ED8093BC008091BC0089
:100B400084FDFCCF10923C016091A801E09142012C
:100B5000F091430188E891E070E009951092A801B6
:100B60002DC084E080933C01109286011092870191
:100B7000E0914001F091410109958091870188231E
:100B800029F481E08093870110926601909186019B
:100B9000E92FF0E0EA59FE4F80818093BB009F5F10
:100BA000909386019091860180918701981710F4A7
:100BB00085EC01C085E88093BC000FC085EC809374
:100BC000BC0009C01092A90185ED8093BC00809102
:100BD000BC0084FDFCCF10923C01FF91EF91BF91CE
:100BE000AF919F918F917F916F915F914F913F91C5
:100BF0002F910F900FBE0F901F90189510923C01EF
:100C000081E080933E0110923F0182E161E00E9409
:100C10003F0D83E161E00E943F0DE9EBF0E0808150
:100C20008E7F808380818D7F808388E48093B8006D
:100C300085E48093BC0008952091CB0130E0809141
:100C4000CA01281B3109C90108954091CA01809148
:100C5000CB01481718F02FEF3FEF0AC0E42FF0E068
:100C6000E655FE4F8081282F30E04F5F4093CA0148
:100C7000C9010895E091CA018091CB01E81718F0ED
:100C8000EFEFFFEF06C0F0E0E655FE4F8081E82F62
:100C9000F0E0CF0108950895AC012091F101309169
:100CA000F20121153105E1F09091CA018091CB014B
:100CB0009817B0F090E008C0FA01EA0FFB1F80819E
:100CC000A655BE4F8C939F5FA92FB0E0A617B7071C
:100CD0009CF31092CA016093CB01CB01F9010995F5
:100CE0000895E091EF01F091F001309729F0109212
:100CF000EC011092ED01099508957093F201609353
:100D0000F10108957093F0016093EF01089510923E
:100D1000F6011092F50188EE93E0A0E0B0E0809338
:100D2000F7019093F801A093F901B093FA018BE0D9
:100D300091E09093F4018093F3010895CF92DF92B4
:100D4000EF92FF920F931F93CF93DF937C016B0180
:100D50008A018091EE018823A1F0C0E0D0E00DC0AF
:100D6000D701ED91FC91D601AC0FBD1F0190F08130
:100D7000E02DC7016C9109952196C017D10780F32A
:100D800004C0CB01642F0E944804C801DF91CF91B9
:100D90001F910F91FF90EF90DF90CF900895DF9318
:100DA000CF930F92CDB7DEB7FC0169838091EE013E
:100DB0008823C9F08091ED01803238F081E090E025
:100DC0009383828320E030E015C08091EC01E82F0E
:100DD000F0E0E453FE4F998190838F5F8093EC01A4
:100DE0008093ED0105C0CE01019661E00E944804A8
:100DF00021E030E0C9010F90CF91DF91089510926A
:100E0000CA011092CB011092EC011092ED010E94E8
:100E1000FE0508950F931F938C01862F0E944404B2
:100E200081E796E00E9468048CE496E00E946304E7
:100E3000C8010E94FF061F910F9108950E940A07A2
:100E40000895DC015C968C915C97FD01E80FF11D23
:100E5000E35AFF4F20815C968C915C9790E001965D
:100E60008F7390705C968C935C975696ED91FC9185
:100E7000579720835096ED91FC9151978081806423
:100E800080835B969C915B975C968C915C9798179E
:100E900039F45296ED91FC91539780818F7D808338
:100EA0000895DF92EF92FF920F931F93CF93DF93FA
:100EB000EC017A018B01D22EE889F98982E08083E6
:100EC000403081EE580780E0680780E07807A1F0A5
:100ED00060E079E08DE390E0A80197010E94C90FDE
:100EE00021503040404050405695479537952795C2
:100EF00080E12030380798F0E889F989108260E8AD
:100F000074E88EE190E0A80197010E94C90F21507A
:100F10003040404050405695479537952795EC8591
:100F2000FD853083EE85FF852083188EEC89FD8951
:100F3000D082EA89FB89808180618083EA89FB898C
:100F4000808188608083EA89FB89808180688083D2
:100F5000EA89FB8980818F7D8083DF91CF911F910A
:100F60000F91FF90EF90DF900895FC01218D828D0D
:100F700030E0205C3F4F281B31092F733070C901CE
:100F80000895FC01918D828D981719F42FEF3FEF92
:100F900006C0828DE80FF11D858D282F30E0C90134
:100FA0000895DC0159969C9159975A968C915A97BD
:100FB000981719F42FEF3FEF10C05A968C915A975B
:100FC000FD01E80FF11D958D5A968C915A978F5F10
:100FD0008F735A968C93292F30E0C9010895CF93CF
:100FE000DF93EC01888D882361F419C08C9185FF13
:100FF0000AC0E889F989808185FF05C0CE010E9479
:101000002107AA89BB898C9185FD05C0E889F989EA
:10101000808186FD04C00FB607FEE8CFF4CFDF91D4
:10102000CF9108950F931F93CF93DF93EC01062F79
:101030009B8D8C8D981791F5E889F989808185FFC2
:101040002DC0EE89FF896083E889F98980818064F9
:1010500080831DC00FB607FC08C0E889F98980812C
:1010600085FF03C0CE010E9421078C8D181791F3D4
:101070008B8DFE01E80FF11DE35AFF4F00831B8F9C
:10108000EA89FB8980818062808381E0888F81E0AA
:1010900090E0DF91CF911F910F9108951B8D1F5FFD
:1010A0001F73E3CF8AED98E0892B51F080E090E048
:1010B000892B31F00E94DA08882311F00E94000089
:1010C00008951F920F920FB60F9211242F938F93B2
:1010D0009F93EF93FF93E0910F02F09110028081B4
:1010E00082FD16C0E0911502F091160220819091C8
:1010F00018029F5F9F7380911902981771F0E09119
:101100001802F0E0E150FE4F258F9093180205C0C1
:10111000E0911502F0911602E081FF91EF919F910D
:101120008F912F910F900FBE0F901F9018951092D6
:1011300002021092010288EE93E0A0E0B0E08093FA
:10114000030290930402A0930502B09306028BE180
:1011500091E0909300028093FF0185EC90E09093E2
:101160000C0280930B0284EC90E090930E0280932B
:101170000D0280EC90E09093100280930F0281ECBE
:1011800090E0909312028093110282EC90E0909391
:1011900014028093130286EC90E0909316028093E1
:1011A0001502109218021092190210921A0210924F
:1011B0001B0208958FEF91E00E94B50720E0892B74
:1011C00009F021E0822F08951F920F920FB60F921F
:1011D00011242F933F934F935F936F937F938F933C
:1011E0009F93AF93BF93EF93FF938FEF91E00E9494
:1011F0002107FF91EF91BF91AF919F918F917F91C7
:101200006F915F914F913F912F910F900FBE0F9073
:101210001F901895CF92DF92EF92FF920F931F933A
:10122000CF93DF937C016B018A01C0E0D0E00FC057
:10123000D6016D916D01D701ED91FC910190F08186
:10124000E02DC7010995C80FD91F015010400115A5
:10125000110571F7CE01DF91CF911F910F91FF9092
:10126000EF90DF90CF900895EF92FF920F931F932E
:10127000CF93DF937C018B01C0E0D0E0F8010F5FDA
:101280001F4F6491662359F0D701ED91FC910190B5
:10129000F081E02DC7010995C80FD91FEFCFCE010E
:1012A000DF91CF911F910F91FF90EF900895CF9311
:1012B000DF93FB01EC01A881B981608171814481D8
:1012C00055811296ED91FC9113970995DF91CF917D
:1012D0000895EF92FF920F931F938C01DC01ED9123
:1012E000FC910190F081E02D6DE009957C01D80121
:1012F000ED91FC910190F081E02DC8016AE0099523
:101300009C012E0D3F1DC9011F910F91FF90EF9081
:101310000895EF92FF920F931F937C010E9434096E
:101320008C01C7010E9469099C01200F311FC9016E
:101330001F910F91FF90EF900895CF93DF93EC01F1
:101340006115710519F420E030E00FC0DB010D904C
:101350000020E9F71197A61BB70BE881F9810280FD
:10136000F381E02DAD0109959C01C901DF91CF9179
:1013700008954F925F927F928F929F92AF92BF9209
:10138000CF92DF92EF92FF920F931F93DF93CF9351
:10139000CDB7DEB7A1970FB6F894DEBF0FBECDBFB5
:1013A0002C01742ECB01223008F42AE019A231E27C
:1013B000C32ED12CCC0EDD1E822E9924AA24BB2450
:1013C000672D752FA50194010E94C90F79018A012B
:1013D000C801B701A50194010E94AA0F472D461B21
:1013E0000894C108D1084A3014F4405D01C0495C3A
:1013F000F6014083E114F1040105110521F07E2C72
:101400005F2DC801DDCFC201B6010E949D09A196E2
:101410000FB6F894DEBF0FBECDBFCF91DF911F9105
:101420000F91FF90EF90DF90CF90BF90AF909F9083
:101430008F907F905F904F900895DC0121153105CA
:1014400041F4ED91FC910190F081E02D642F09951C
:1014500008950E94B9090895EF92FF920F931F9388
:101460007C010E941D0A8C01C7010E9469099C0130
:10147000200F311FC9011F910F91FF90EF90089528
:10148000EF92FF920F931F939A01E62EFF2400E044
:1014900010E0B801A7010E941D0A1F910F91FF9053
:1014A000EF900895CF92DF92EF92FF920F931F93E8
:1014B0006C01E62E9A01FF2400E010E0B801A701BC
:1014C0000E941D0A8C01C6010E946909080F191F9C
:1014D000C8011F910F91FF90EF90DF90CF9008957A
:1014E000CF92DF92EF92FF920F931F93CF93DF93F0
:1014F000EC016A017B012115310541F4E881F98194
:101500000190F081E02D642F09951FC02A3031052C
:10151000D1F477FF17C0E881F9810190F081E02DC7
:101520006DE209958C0144275527BA014C195D09D4
:101530006E097F09CE012AE00E94B9099801280F9F
:10154000391F04C02AE00E94B9099C01C901DF913A
:10155000CF911F910F91FF90EF90DF90CF90089562
:10156000EF92FF920F931F937B019A010027F7FCE4
:101570000095102FB801A7010E94700A1F910F91CA
:10158000FF90EF900895CF93DF939C01FB01EC0156
:10159000A881B981109729F0608171816115710569
:1015A000D1F4C081D181209759F084819581892B14
:1015B00039F0888190E022273327281B390B12C08D
:1015C000109771F0F90184819581892B49F08C91F4
:1015D000282F30E007C0CD010E94F8009C0102C016
:1015E00020E030E0C901DF91CF9108950F931F9360
:1015F000CF93DF93EC018B016F5F7F4F88819981DF
:101600000E94C80E009711F480E005C0998388837A
:101610001B830A8381E0DF91CF911F910F91089581
:10162000CF93DF93EC0188819981892B29F08A81FE
:101630009B818617970760F4CE010E94F60A8823E3
:1016400041F08C819D81892B19F4E881F981108208
:1016500081E0DF91CF910895EF92FF920F931F9356
:10166000CF93DF93EC017B016C817D81E114F10468
:10167000C1F04115510599F08A01060F171FB801F5
:101680000E94100B882369F0888199812C813D810B
:10169000820F931FB7010E9401011D830C8381E01B
:1016A00001C080E0DF91CF911F910F91FF90EF90EB
:1016B0000895DF93CF9300D0CDB7DEB769831A8248
:1016C000BE016F5F7F4F41E050E00E942C0B0F90F6
:1016D0000F90CF91DF910895CF93DF93EC01888134
:1016E0009981009711F00E94300E198218821D8294
:1016F0001C821B821A82DF91CF910895EF92FF9294
:101700000F931F93CF93DF93EC017B018A01BA0102
:101710000E94100B882321F4CE010E946C0B07C09D
:101720001D830C8388819981B7010E94DF00CE015F
:10173000DF91CF911F910F91FF90EF9008950F933C
:101740001F93CF93DF93182F092FEB0161157105BC
:1017500051F0CB010E94E600AC01812F902FBE0119
:101760000E947E0B02C00E946C0B812F902FDF9194
:10177000CF911F910F910895FC0111821082138265
:101780001282158214820E949F0B0895EF92FF929D
:101790000F931F93CF93DF93EC017B018A01BA0172
:1017A0000E94100B882321F4CE010E946C0B07C00D
:1017B0001D830C8388819981B7010E940101CE01AC
:1017C000DF91CF911F910F91FF90EF900895CF93EC
:1017D000DF93EC01198218821B821A821D821C82FF
:1017E0006115710551F0DB010D900020E9F71197AB
:1017F000A61BB70BAD010E94C60BDF91CF910895D8
:10180000FC01808191810E94300E0895CF93DF9377
:101810000E945D0C0E940B04C2E5D8E00E946001AA
:101820002097E1F30E945208F9CF1F920F920FB652
:101830000F9211242F933F938F939F93AF93BF9356
:101840008091A0029091A102A091A202B091A30266
:101850003091A4020196A11DB11D232F2D5F2D37BC
:1018600020F02D570196A11DB11D2093A402809355
:10187000A0029093A102A093A202B093A302809130
:101880009C0290919D02A0919E02B0919F020196B0
:10189000A11DB11D80939C0290939D02A0939E0276
:1018A000B0939F02BF91AF919F918F913F912F91E4
:1018B0000F900FBE0F901F901895789484B582609A
:1018C00084BD84B5816084BD85B5826085BD85B5E4
:1018D000816085BDEEE6F0E0808181608083E1E893
:1018E000F0E01082808182608083808181608083CB
:1018F000E0E8F0E0808181608083E1EBF0E08081CE
:1019000084608083E0EBF0E0808181608083EAE79F
:10191000F0E0808184608083808182608083808128
:10192000816080838081806880831092C1000895E7
:10193000EF92FF920F931F93CF93DF937B018C0164
:101940003FB7F89480919C0290919D02A0919E02D5
:10195000B0919F0226B5A89B05C02F3F19F00196B4
:10196000A11DB11D3FBFBA2FA92F982F8827820F25
:10197000911DA11DB11D52E0880F991FAA1FBB1F09
:101980005A95D1F7EC0130C00E94A90F3FB7F894E7
:1019900080919C0290919D02A0919E02B0919F0225
:1019A00026B5A89B05C02F3F19F00196A11DB11DBA
:1019B0003FBFBA2FA92F982F8827820F911DA11DF5
:1019C000B11D32E0880F991FAA1FBB1F3A95D1F7AE
:1019D0008C1B9D0B885E9340B8F20894E108F108D7
:1019E00001091109C851DC4FE114F1040105110589
:1019F00059F6DF91CF911F910F91FF90EF900895CD
:101A0000CF93DF93482F50E0CA01825C9E4FFC01C8
:101A10003491465D5E4FFA018491882369F190E02C
:101A2000880F991FFC01E45FFE4FA591B491FC0162
:101A3000EA5EFE4FC591D491662351F42FB7F89416
:101A40008C91932F909589238C93888189230BC047
:101A5000623061F42FB7F8948C91932F909589237D
:101A60008C938881832B88832FBF06C09FB7F894FF
:101A70008C91832B8C939FBFDF91CF910895482F3A
:101A800050E0CA018E5A9E4FFC012491CA01825C2B
:101A90009E4FFC019491465D5E4FFA0134913323D1
:101AA00009F440C0222351F1233071F0243028F48E
:101AB0002130A1F0223011F514C02630B1F02730CA
:101AC000C1F02430D9F404C0809180008F7703C026
:101AD000809180008F7D8093800010C084B58F77C7
:101AE00002C084B58F7D84BD09C08091B0008F771E
:101AF00003C08091B0008F7D8093B000E32FF0E0B1
:101B0000EE0FFF1FEA5EFE4FA591B4912FB7F89438
:101B1000662321F48C919095892302C08C91892BA6
:101B20008C932FBF08950F931F93CF93DF93BC0126
:101B30008230910510F462E070E0E091A702F0912C
:101B4000A80240E050E0A0E0B0E024C08081918194
:101B500086179707D0F08617970771F482819381D3
:101B6000109729F013969C938E9312972CC0909304
:101B7000A8028093A70227C04115510519F08417C8
:101B8000950718F48D01AC01EF01DF01828193818B
:101B90009C01F9013097D1F641155105F9F0CA01C0
:101BA000861B970B8430910580F48A819B810115F7
:101BB000110521F0F8019383828304C09093A80259
:101BC0008093A702FE01329645C0FE01E80FF91F7F
:101BD000619371930297998388833CC08091A50299
:101BE0009091A602892B41F4809103019091040108
:101BF0009093A6028093A5024091050150910601A1
:101C00004115510541F44DB75EB7809101019091A6
:101C10000201481B590B2091A5023091A6022417FE
:101C20003507B0F4CA01821B930B8617970780F023
:101C3000AB014E5F5F4F8417950750F0420F531F63
:101C40005093A6024093A502F9016193719302C0DB
:101C5000E0E0F0E0CF01DF91CF911F910F91089567
:101C6000CF93DF939C01009709F48FC0EC0122977A
:101C70001B821A826091A7027091A80261157105FA
:101C800081F488819981820F931F2091A502309160
:101C9000A6022817390739F5D093A602C093A502EA
:101CA00074C0DB0140E050E0AC17BD0708F1BB8316
:101CB000AA83FE0121913191E20FF31FAE17BF07F6
:101CC00079F48D919C911197280F391F2E5F3F4F0A
:101CD0003983288312968D919C9113979B838A83D5
:101CE0004115510571F4D093A802C093A7024DC0CD
:101CF00012968D919C911397AD01009711F0DC0124
:101D0000D3CFDA011396DC93CE931297FA01219187
:101D10003191E20FF31FCE17DF0769F488819981B3
:101D2000280F391F2E5F3F4FFA01318320838A81AC
:101D30009B8193838283E0E0F0E0DB0112968D913A
:101D40009C911397009719F0BC01FD01F6CFAB01F0
:101D50004E5F5F4FDB018D919C91840F951F209109
:101D6000A5023091A6022817390779F4309729F493
:101D70001092A8021092A70202C01382128242504F
:101D800050405093A6024093A502DF91CF91089551
:101D90006F927F928F929F92AF92BF92CF92DF927B
:101DA000EF92FF920F931F93CF93DF938C010097D5
:101DB00029F4CB010E94930D8C01BBC08EEFE82E5D
:101DC0008FEFF82EE00EF11E4801860E971E8E143E
:101DD0009F0408F4ACC0D7014D915C911197461750
:101DE0005707B8F04530510508F4A3C0CA0104975D
:101DF0008617970708F49DC042505040461B570B6A
:101E0000F401419351936D937C93CF010E94300E66
:101E100090C05B01A41AB50A3801640E751EA0912A
:101E2000A702B091A802E0E0F0E0CC24DD2447C096
:101E3000A615B705A9F5CD91DC911197CE010296B3
:101E40008A159B0568F1CE018A199B0902961296A4
:101E50002C91129713963C91059758F0F401228328
:101E60003383CA19DB09D183C083D7016D937C9377
:101E700009C04E5F5F4F4C0F5D1FF70151834083D8
:101E8000C901FC01C114D10431F0D6011396FC93B1
:101E9000EE9312974EC0F093A802E093A70249C0B8
:101EA0008D919C911197E817F90708F4FC016D01D9
:101EB00012968C91129713969C919C01D9011097C0
:101EC00009F0B6CF8091A5029091A60286159705DC
:101ED000E9F4E617F707D0F42091050130910601E7
:101EE0002115310541F42DB73EB780910101909144
:101EF0000201281B390B82169306C8F49092A602A1
:101F00008092A502F7017183608313C0CB010E9408
:101F1000930DEC01009759F0D7014D915C91B801F8
:101F20000E94EF00C8010E94300E8E0102C000E046
:101F300010E0C801DF91CF911F910F91FF90EF90BA
:101F4000DF90CF90BF90AF909F908F907F906F90D9
:101F500008950895629FD001739FF001829FE00D64
:101F6000F11D649FE00DF11D929FF00D839FF00D18
:101F7000749FF00D659FF00D9927729FB00DE11DC4
:101F8000F91F639FB00DE11DF91FBD01CF011124A1
:101F90000895A1E21A2EAA1BBB1BFD010DC0AA1FAA
:101FA000BB1FEE1FFF1FA217B307E407F50720F0C2
:101FB000A21BB30BE40BF50B661F771F881F991F3D
:101FC0001A9469F760957095809590959B01AC0186
:101FD000BD01CF010895EE0FFF1F0590F491E02D94
:061FE0000994F894FFCF04
:101FE600008000A902000000000000CF069E061C2B
:101FF6000625063A064B060000000012080A09B537
:0820060007D107C107EF070035
:00000001FF
