:100000000C94A4000C94CC000C94CC000C94CC0068
:100010000C94CC000C94CC000C94CC000C94CC0030
:100020000C94CC000C94CC000C94CC000C94CC0020
:100030000C94CC000C94CC000C94CC000C94CC0010
:100040000C948A0A0C94CC000C9408070C948B072F
:100050000C94CC000C94CC000C94CC000C94CC00F0
:100060000C9414030C94CC005D005D3D5B00434D8B
:10007000445F56414C56455B005D00554E4B4E4F1C
:10008000574E20434D445B0056414C56455F345F0C
:100090004F46460056414C56455F345F4F4E005622
:1000A000414C56455F335F4F46460056414C5645DE
:1000B0005F335F4F4E0056414C56455F325F4F46AF
:1000C000460056414C56455F325F4F4E0056414CFC
:1000D00056455F315F4F46460056414C56455F31AD
:1000E0005F4F4E00536C61766500000000002400F5
:1000F00027002A0000000000250028002B00000037
:10010000000023002600290004040404040404045D
:1001100002020202020203030303030301020408B2
:100120001020408001020408102001020408102061
:1001300000000007000201000003040600000000A8
:10014000000000002E053E0711241FBECFEFD8E0AF
:10015000DEBFCDBF11E0A0E0B1E0E0EDFCE102C008
:1001600005900D92AC32B107D9F712E0ACE2B1E0E4
:1001700001C01D92AD39B107E1F711E0C8E4D1E04B
:1001800004C02297FE010E94620EC434D107C9F751
:100190000E947B0A0C94660E0C940000FB01DC01AB
:1001A00005900D920020E1F70895FC0105900020D4
:1001B000E9F7809590958E0F9F1F0895FB01DC0154
:1001C00002C001900D9241505040D8F70895FB01B4
:1001D000DC018D91019080190110D9F3990B0895DC
:1001E000FB01DC0101900D920020E1F708950F93CF
:1001F0001F93CF93DF938C01C0E0D0E015C08DE05A
:1002000061E00E94B40B64E670E080E090E00E9440
:100210000D0B8DE060E00E94B40B64E670E080E0BE
:1002200090E00E940D0B2196C017D10744F384E0A3
:1002300090E0801B910B28EC30E0829FB001839FFF
:10024000700D929F700D1124882777FD8095982F4F
:100250000E940D0BDF91CF911F910F910895809116
:100260002C01882329F081E090E061E00E94F700F2
:1002700080912D01882329F082E090E061E00E94C6
:10028000F70080912E01882329F083E090E061E05F
:100290000E94F70080912F01882329F084E090E0EC
:1002A00061E00E94F70064EF71E080E090E00E945E
:1002B0000D0B08951F93CF93DF93EC01162F82301F
:1002C000910591F08330910524F481309105E1F49A
:1002D00007C08330910579F084309105A9F40FC0EF
:1002E00060932C0188E003C060932D0189E0612FA9
:1002F0000E94B40B09C060932E018AE0F8CF8BE016
:100300000E94B40B10932F0183EF91E06EE670E032
:100310000E94DB0783EF91E0BE014AE050E00E94BB
:10032000250983EF91E06AE670E00E94DB0783EF26
:1003300091E0612F4AE050E00E94D30883EF91E002
:1003400068E670E00E943008DF91CF911F91089518
:10035000CF92DF92EF92FF920F931F93DF93CF9391
:10036000CDB7DEB7E6970FB6F894DEBF0FBECDBFB0
:100370008E010F5F1F4FC80160E071E00E945C0AB0
:10038000D02EC12E09C087EE91E00E94CC04682FC8
:100390008D2D9C2D0E94CE0987EE91E00E94C30412
:1003A000892B89F78E01095F1F4FC80169ED70E045
:1003B0000E94310A8D2D9C2DB8010E9438097C01C4
:1003C000C8010E94750AEF2819F481E090E086C008
:1003D0008E01035F1F4FC8016DEC70E00E94310A6F
:1003E0008D2D9C2DB8010E9438097C01C8010E9406
:1003F000750AEF2831F481E090E060E00E945A0134
:1004000097C08E010D5E1F4FC80162EC70E00E9424
:10041000310A8D2D9C2DB8010E9438097C01C8013C
:100420000E94750AEF2819F482E090E057C08E010F
:10043000075E1F4FC80166EB70E00E94310A8D2DE8
:100440009C2DB8010E9438097C01C8010E94750AE0
:10045000EF2819F482E090E0D0CF8E01015E1F4FAB
:10046000C8016BEA70E00E94310A8D2D9C2DB80105
:100470000E9438097C01C8010E94750AEF2819F40E
:1004800083E090E02BC08E010B5D1F4FC8016FE928
:1004900070E00E94310A8D2D9C2DB8010E94380910
:1004A0007C01C8010E94750AEF2819F483E090E0EE
:1004B000A4CF8E01055D1F4FC80164E970E00E9462
:1004C000310A8D2D9C2DB8010E9438097C01C8018C
:1004D0000E94750AEF2821F484E090E061E08ECF5D
:1004E0008E010F5C1F4FC80168E870E00E94310A5E
:1004F0008D2D9C2DB8010E9438097C01C8010E94F5
:10050000750AEF2819F484E090E077CF83EF91E04B
:100510006BE770E00E94DB0783EF91E06D2D7C2D8F
:100520000E94FE0783EF91E069E770E00E943008C7
:10053000CE0101960E94750AE6960FB6F894DEBFCA
:100540000FBECDBFCF91DF911F910F91FF90EF9024
:10055000DF90CF9008950F931F9388E061E00E9491
:10056000750B89E061E00E94750B8AE061E00E94F2
:10057000750B8BE061E00E94750B8DE061E00E94DD
:10058000750B07EE11E0C80164E070E00E94C5053C
:10059000C80168EA71E00E942405C80164EE72E0B7
:1005A0000E94290503EF11E0C80140E855E260E030
:1005B00070E026E00E94F805C80164EE70E00E9439
:1005C00030081F910F91089587EE91E0609101012D
:1005D0000E9476050895880F8093BA000895482FE9
:1005E000613210F081E0089580913001843011F083
:1005F00082E0089560937B01AAE5B1E0842F9C011D
:10060000F90102C081918D938E2F841B8617D0F340
:1006100080E0089590933701809336010895909378
:1006200035018093340108951F920F920FB60F92F7
:1006300011242F933F934F935F936F937F938F93E7
:100640009F93AF93BF93EF93FF938091B90090E096
:10065000887F90708036910509F4F2C0813691054B
:10066000CCF58832910509F47BC089329105B4F448
:100670008031910509F46FC0813191053CF40097F8
:1006800009F447C1089709F04FC165C08831910549
:1006900009F466C0809709F047C182C08034910593
:1006A00009F4A4C08134910544F48033910509F420
:1006B00082C0C89709F038C189C08035910509F416
:1006C00089C08835910509F496C08834910509F0F0
:1006D0002BC1AEC08839910509F413C18939910540
:1006E000ECF48837910509F4ABC0893791054CF4D7
:1006F0008836910509F4A4C08037910509F014C12A
:100700009FC08838910509F4FCC08039910509F42F
:100710009DC08038910509F007C198C0803B9105C4
:1007200009F4C6C0813B91054CF4803A910509F467
:100730009FC0883A910509F0F7C0BAC0803C910586
:1007400009F4E3C0883C910509F4DFC0883B9105BA
:1007500009F0EAC0C2C0809131018093BB00CFC0D4
:100760009091580180915901981768F4909158011F
:10077000E92FF0E0E85CFE4F80818093BB009F5F33
:1007800090935801BCC080913201882309F44BC07A
:1007900085ED8093BC008091BC0084FDFCCFC2C07D
:1007A00080E280939D0185ED8093BC008091BC0028
:1007B00084FDFCCFB7C080E380939D0185ED8093DD
:1007C000BC008091BC0084FDFCCFACC088E380936A
:1007D0009D019BC0809158019091BB00E82FF0E0F3
:1007E000E85CFE4F90838F5F809358019091580191
:1007F0008091590182C0809158019091BB00E82FEF
:10080000F0E0E85CFE4F90838F5F80935801809109
:100810003201882341F085ED8093BC008091BC00BB
:1008200084FDFCCF7FC081E08093330184EA6EC0F9
:1008300085ED8093BC008091BC0084FDFCCF72C02C
:1008400083E08093300110929C0159C080919C01FB
:10085000803208F056C080919C019091BB00E82F37
:10086000F0E0E458FE4F90838F5F80939C0147C077
:1008700080919C01803230F4E0919C01F0E0E458DA
:10088000FE4F108285ED8093BC008091BC0084FDFA
:10089000FCCF1092300160919C01E0913601F09103
:1008A00037018CE791E070E0099510929C012DC012
:1008B00084E08093300110927A0110927B01E091E4
:1008C0003401F0913501099580917B01882329F449
:1008D00081E080937B0110925A0190917A01E92F77
:1008E000F0E0E65AFE4F80818093BB009F5F9093BB
:1008F0007A0190917A0180917B01981710F485EC30
:1009000001C085E88093BC000FC085EC8093BC00DB
:1009100009C010929D0185ED8093BC008091BC00C0
:1009200084FDFCCF10923001FF91EF91BF91AF9108
:100930009F918F917F916F915F914F913F912F91F7
:100940000F900FBE0F901F9018951092300181E00C
:10095000809332011092330182E161E00E94B40B76
:1009600083E161E00E94B40BE9EBF0E080818E7FCF
:10097000808380818D7F808388E48093B80085E4C4
:100980008093BC0008952091BF0130E08091BE01AA
:10099000281B3109C90108954091BE018091BF0112
:1009A000481718F02FEF3FEF0AC0E42FF0E0E256AF
:1009B000FE4F8081282F30E04F5F4093BE01C90178
:1009C0000895E091BE018091BF01E81718F0EFEFA4
:1009D000FFEF06C0F0E0E256FE4F8081E82FF0E026
:1009E000CF0108950895AC012091E5013091E60111
:1009F00021153105E1F09091BE018091BF0198175A
:100A0000B0F090E008C0FA01EA0FFB1F8081A25607
:100A1000BE4F8C939F5FA92FB0E0A617B7079CF33A
:100A20001092BE016093BF01CB01F90109950895B1
:100A3000E091E301F091E401309729F01092E00198
:100A40001092E101099508957093E6016093E50124
:100A500008957093E4016093E30108951092EA0110
:100A60001092E90188EE93E0A0E0B0E08093EB0102
:100A70009093EC01A093ED01B093EE018FE091E033
:100A80009093E8018093E7010895CF92DF92EF926F
:100A9000FF920F931F93CF93DF937C016B018A0129
:100AA0008091E2018823A1F0C0E0D0E00DC0D70121
:100AB000ED91FC91D601AC0FBD1F0190F081E02DAE
:100AC000C7016C9109952196C017D10780F304C026
:100AD000CB01642F0E94EF02C801DF91CF911F91DB
:100AE0000F91FF90EF90DF90CF900895DF93CF9319
:100AF0000F92CDB7DEB7FC0169838091E2018823B4
:100B0000C9F08091E101803238F081E090E0938378
:100B1000828320E030E015C08091E001E82FF0E012
:100B2000E054FE4F998190838F5F8093E001809322
:100B3000E10105C0CE01019661E00E94EF0221E0D3
:100B400030E0C9010F90CF91DF9108951092BE015E
:100B50001092BF011092E0011092E1010E94A504E1
:100B600008950F931F938C01862F0E94EB0288E15A
:100B700095E00E940F0383EF94E00E940A03C801EE
:100B80000E94A6051F910F9108950E94B105089536
:100B9000DC015C968C915C97FD01E80FF11DE35A36
:100BA000FF4F20815C968C915C9790E001968F734B
:100BB00090705C968C935C975696ED91FC9157974C
:100BC00020835096ED91FC915197808180648083C1
:100BD0005B969C915B975C968C915C97981739F427
:100BE0005296ED91FC91539780818F7D808308957B
:100BF000DF92EF92FF920F931F93CF93DF93EC015D
:100C00007A018B01D22EE889F98982E08083403015
:100C100081EE580780E0680780E07807A1F060E087
:100C200079E08DE390E0A80197010E943E0E2150EB
:100C3000304040405040569547953795279580E184
:100C40002030380798F0E889F989108260E874E864
:100C50008EE190E0A80197010E943E0E21503040A5
:100C6000404050405695479537952795EC85FD8532
:100C70003083EE85FF852083188EEC89FD89D08234
:100C8000EA89FB89808180618083EA89FB89808190
:100C900088608083EA89FB89808180688083EA8913
:100CA000FB8980818F7D8083DF91CF911F910F9190
:100CB000FF90EF90DF900895FC01218D828D30E050
:100CC000205C3F4F281B31092F733070C9010895F4
:100CD000FC01918D828D981719F42FEF3FEF06C01C
:100CE000828DE80FF11D858D282F30E0C901089510
:100CF000DC0159969C9159975A968C915A9798175E
:100D000019F42FEF3FEF10C05A968C915A97FD01BE
:100D1000E80FF11D958D5A968C915A978F5F8F73BE
:100D20005A968C93292F30E0C9010895CF93DF9311
:100D3000EC01888D882361F419C08C9185FF0AC06D
:100D4000E889F989808185FF05C0CE010E94C80528
:100D5000AA89BB898C9185FD05C0E889F9898081C4
:100D600086FD04C00FB607FEE8CFF4CFDF91CF9128
:100D700008950F931F93CF93DF93EC01062F9B8D64
:100D80008C8D981791F5E889F989808185FF2DC0B0
:100D9000EE89FF896083E889F98980818064808396
:100DA0001DC00FB607FC08C0E889F989808185FF5E
:100DB00003C0CE010E94C8058C8D181791F38B8D4E
:100DC000FE01E80FF11DE35AFF4F00831B8FEA89F4
:100DD000FB8980818062808381E0888F81E090E060
:100DE000DF91CF911F910F9108951B8D1F5F1F738E
:100DF000E3CF81E897E0892B51F080E090E0892BE8
:100E000031F00E948107882311F00E9400000895AC
:100E10001F920F920FB60F9211242F938F939F93CF
:100E2000EF93FF93E0910302F0910402808182FD31
:100E300016C0E0910902F0910A02208190910C0203
:100E40009F5F9F7380910D02981771F0E0910C02E3
:100E5000F0E0ED50FE4F258F90930C0205C0E0911D
:100E60000902F0910A02E081FF91EF919F918F9129
:100E70002F910F900FBE0F901F9018951092F601B2
:100E80001092F50188EE93E0A0E0B0E08093F701C6
:100E90009093F801A093F901B093FA018FE191E0EA
:100EA0009093F4018093F30185EC90E0909300021D
:100EB0008093FF0184EC90E0909302028093010202
:100EC00080EC90E0909304028093030281EC90E028
:100ED000909306028093050282EC90E090930802C2
:100EE0008093070286EC90E090930A0280930902B7
:100EF00010920C0210920D0210920E0210920F022C
:100F0000089583EF91E00E945C0620E0892B09F0B0
:100F100021E0822F08951F920F920FB60F92112495
:100F20002F933F934F935F936F937F938F939F93F1
:100F3000AF93BF93EF93FF9383EF91E00E94C805B7
:100F4000FF91EF91BF91AF919F918F917F916F91A1
:100F50005F914F913F912F910F900FBE0F901F9077
:100F60001895CF92DF92EF92FF920F931F93CF933A
:100F7000DF937C016B018A01C0E0D0E00FC0D60195
:100F80006D916D01D701ED91FC910190F081E02D03
:100F9000C7010995C80FD91F01501040011511054F
:100FA00071F7CE01DF91CF911F910F91FF90EF90DC
:100FB000DF90CF900895EF92FF920F931F93CF93FE
:100FC000DF937C018B01C0E0D0E0F8010F5F1F4F81
:100FD0006491662359F0D701ED91FC910190F08165
:100FE000E02DC7010995C80FD91FEFCFCE01DF91C2
:100FF000CF911F910F91FF90EF900895CF93DF93C2
:10100000FB01EC01A881B981608171814481558126
:101010001296ED91FC9113970995DF91CF91089568
:10102000EF92FF920F931F938C01DC01ED91FC91E5
:101030000190F081E02D6DE009957C01D801ED91E2
:10104000FC910190F081E02DC8016AE009959C01B6
:101050002E0D3F1DC9011F910F91FF90EF90089534
:10106000EF92FF920F931F937C010E94DB078C018C
:10107000C7010E9410089C01200F311FC9011F9158
:101080000F91FF90EF900895CF93DF93EC016115DE
:10109000710519F420E030E00FC0DB010D90002055
:1010A000E9F71197A61BB70BE881F9810280F3815C
:1010B000E02DAD0109959C01C901DF91CF91089503
:1010C0004F925F927F928F929F92AF92BF92CF92F8
:1010D000DF92EF92FF920F931F93DF93CF93CDB7E1
:1010E000DEB7A1970FB6F894DEBF0FBECDBF2C01BF
:1010F000742ECB01223008F42AE019A231E2C32E6B
:10110000D12CCC0EDD1E822E9924AA24BB24672D5F
:10111000752FA50194010E943E0E79018A01C80134
:10112000B701A50194010E941F0E472D461B08948C
:10113000C108D1084A3014F4405D01C0495CF60191
:101140004083E114F1040105110521F07E2C5F2D8F
:10115000C801DDCFC201B6010E944408A1960FB6B6
:10116000F894DEBF0FBECDBFCF91DF911F910F91DD
:10117000FF90EF90DF90CF90BF90AF909F908F90B7
:101180007F905F904F900895DC012115310541F467
:10119000ED91FC910190F081E02D642F0995089567
:1011A0000E9460080895EF92FF920F931F939A0197
:1011B000E62EFF2400E010E0B801A7010E94C40859
:1011C0001F910F91FF90EF900895CF92DF92EF92D1
:1011D000FF920F931F93CF93DF93EC016A017B0182
:1011E0002115310541F4E881F9810190F081E02D6C
:1011F000642F09951FC02A303105D1F477FF17C03D
:10120000E881F9810190F081E02D6DE209958C0172
:1012100044275527BA014C195D096E097F09CE0193
:101220002AE00E9460089801280F391F04C02AE0B4
:101230000E9460089C01C901DF91CF911F910F911D
:10124000FF90EF90DF90CF900895EF92FF920F9371
:101250001F937B019A010027F7FC0095102FB8011E
:10126000A7010E94E5081F910F91FF90EF9008954C
:10127000CF93DF939C01FB01EC01A881B98110970A
:1012800029F06081718161157105D1F4C081D1812E
:10129000209759F084819581892B39F0888190E0DD
:1012A00022273327281B390B12C0109771F0F90140
:1012B00084819581892B49F08C91282F30E007C0DB
:1012C000CD010E94E7009C0102C020E030E0C9018E
:1012D000DF91CF9108950F931F93CF93DF93EC018C
:1012E0008B016F5F7F4F888199810E943D0D009730
:1012F00011F480E005C0998388831B830A8381E011
:10130000DF91CF911F910F910895CF93DF93EC015F
:1013100088819981892B29F08A819B81861797077B
:1013200060F4CE010E946B09882341F08C819D817D
:10133000892B19F4E881F981108281E0DF91CF9146
:101340000895EF92FF920F931F93CF93DF93EC01D9
:101350007B016C817D81E114F104C1F041155105DF
:1013600099F08A01060F171FB8010E94850988238A
:1013700069F0888199812C813D81820F931FB7018B
:101380000E94F0001D830C8381E001C080E0DF91AA
:10139000CF911F910F91FF90EF900895DF93CF931E
:1013A00000D0CDB7DEB769831A82BE016F5F7F4F71
:1013B00041E050E00E94A1090F900F90CF91DF9182
:1013C0000895CF93DF93EC0188819981009711F004
:1013D0000E94A50C198218821D821C821B821A820F
:1013E000DF91CF910895EF92FF920F931F93CF93C8
:1013F000DF93EC017B018A01BA010E9485098823F1
:1014000021F4CE010E94E10907C01D830C8388816D
:101410009981B7010E94CE00CE01DF91CF911F913B
:101420000F91FF90EF9008950F931F93CF93DF9349
:10143000182F092FEB016115710551F0CB010E94A6
:10144000D500AC01812F902FBE010E94F30902C08C
:101450000E94E109812F902FDF91CF911F910F9171
:101460000895FC0111821082138212821582148267
:101470000E94140A0895EF92FF920F931F93CF9347
:10148000DF93EC017B018A01BA010E948509882360
:1014900021F4CE010E94E10907C01D830C838881DD
:1014A0009981B7010E94F000CE01DF91CF911F9189
:1014B0000F91FF90EF900895CF93DF93EC01198285
:1014C00018821B821A821D821C826115710551F0DF
:1014D000DB010D900020E9F71197A61BB70BAD01BA
:1014E0000E943B0ADF91CF910895FC018081918198
:1014F0000E94A50C0895CF93DF930E94D20A0E9408
:10150000AB02C9EFD6E00E942F012097E1F30E94C1
:10151000F906F9CF1F920F920FB60F9211242F9355
:101520003F938F939F93AF93BF9380919402909139
:101530009502A0919602B09197023091980201967F
:10154000A11DB11D232F2D5F2D3720F02D570196A2
:10155000A11DB11D2093980280939402909395024F
:10156000A0939602B093970280919002909191027D
:10157000A0919202B09193020196A11DB11D80939A
:10158000900290939102A0939202B0939302BF9124
:10159000AF919F918F913F912F910F900FBE0F9020
:1015A0001F901895789484B5826084BD84B581605D
:1015B00084BD85B5826085BD85B5816085BDEEE65B
:1015C000F0E0808181608083E1E8F0E0108280813A
:1015D00082608083808181608083E0E8F0E08081A8
:1015E00081608083E1EBF0E0808184608083E0EBC8
:1015F000F0E0808181608083EAE7F0E080818460B0
:10160000808380818260808380818160808380810B
:10161000806880831092C1000895EF92FF920F932B
:101620001F93CF93DF937B018C013FB7F894809198
:10163000900290919102A0919202B091930226B5EE
:10164000A89B05C02F3F19F00196A11DB11D3FBFFA
:10165000BA2FA92F982F8827820F911DA11DB11D88
:1016600052E0880F991FAA1FBB1F5A95D1F7EC01B2
:1016700030C00E941E0E3FB7F89480919002909166
:101680009102A0919202B091930226B5A89B05C049
:101690002F3F19F00196A11DB11D3FBFBA2FA92FF1
:1016A000982F8827820F911DA11DB11D32E0880F50
:1016B000991FAA1FBB1F3A95D1F78C1B9D0B885E03
:1016C0009340B8F20894E108F10801091109C851E2
:1016D000DC4FE114F1040105110559F6DF91CF91BA
:1016E0001F910F91FF90EF900895CF93DF93482FB4
:1016F00050E0CA01845E9E4FFC013491485F5E4F0A
:10170000FA018491882369F190E0880F991FFC0108
:10171000E651FF4FA591B491FC01EC50FF4FC591EC
:10172000D491662351F42FB7F8948C91932F909510
:1017300089238C93888189230BC0623061F42FB791
:10174000F8948C91932F909589238C938881832B87
:1017500088832FBF06C09FB7F8948C91832B8C93FE
:101760009FBFDF91CF910895482F50E0CA01805D5F
:101770009E4FFC012491CA01845E9E4FFC0194910E
:10178000485F5E4FFA013491332309F440C02223AD
:1017900051F1233071F0243028F42130A1F02230AF
:1017A00011F514C02630B1F02730C1F02430D9F43F
:1017B00004C0809180008F7703C0809180008F7D6E
:1017C0008093800010C084B58F7702C084B58F7D70
:1017D00084BD09C08091B0008F7703C08091B000B4
:1017E0008F7D8093B000E32FF0E0EE0FFF1FEC50F1
:1017F000FF4FA591B4912FB7F894662321F48C91F3
:101800009095892302C08C91892B8C932FBF0895CA
:101810000F931F93CF93DF93BC018230910510F497
:1018200062E070E0E0919B02F0919C0240E050E0A9
:10183000A0E0B0E024C08081918186179707D0F0A6
:101840008617970771F482819381109729F0139678
:101850009C938E9312972CC090939C0280939B0232
:1018600027C04115510519F08417950718F48D010B
:10187000AC01EF01DF01828193819C01F901309776
:10188000D1F641155105F9F0CA01861B970B84303A
:10189000910580F48A819B810115110521F0F801E1
:1018A0009383828304C090939C0280939B02FE01E9
:1018B000329645C0FE01E80FF91F619371930297BC
:1018C000998388833CC08091990290919A02892BD8
:1018D00041F4809107019091080190939A028093BE
:1018E00099024091090150910A014115510541F4B5
:1018F0004DB75EB78091050190910601481B590BC9
:101900002091990230919A0224173507B0F4CA0148
:10191000821B930B8617970780F0AB014E5F5F4FDA
:101920008417950750F0420F531F50939A0240932B
:101930009902F9016193719302C0E0E0F0E0CF01F8
:10194000DF91CF911F910F910895CF93DF939C0169
:10195000009709F48FC0EC0122971B821A826091D4
:101960009B0270919C026115710581F488819981B7
:10197000820F931F2091990230919A0228173907FC
:1019800039F5D0939A02C093990274C0DB0140E00C
:1019900050E0AC17BD0708F1BB83AA83FE0121917B
:1019A0003191E20FF31FAE17BF0779F48D919C912F
:1019B0001197280F391F2E5F3F4F398328831296C6
:1019C0008D919C9113979B838A834115510571F4E6
:1019D000D0939C02C0939B024DC012968D919C9116
:1019E0001397AD01009711F0DC01D3CFDA01139604
:1019F000DC93CE931297FA0121913191E20FF31FFC
:101A0000CE17DF0769F488819981280F391F2E5F6F
:101A10003F4FFA01318320838A819B8193838283A4
:101A2000E0E0F0E0DB0112968D919C911397009716
:101A300019F0BC01FD01F6CFAB014E5F5F4FDB013A
:101A40008D919C91840F951F2091990230919A025B
:101A50002817390779F4309729F410929C021092D4
:101A60009B0202C0138212824250504050939A024D
:101A700040939902DF91CF9108956F927F928F9258
:101A80009F92AF92BF92CF92DF92EF92FF920F930D
:101A90001F93CF93DF938C01009729F4CB010E9411
:101AA000080C8C01BBC08EEFE82E8FEFF82EE00EF5
:101AB000F11E4801860E971E8E149F0408F4ACC0D8
:101AC000D7014D915C91119746175707B8F04530F3
:101AD000510508F4A3C0CA0104978617970708F4B4
:101AE0009DC042505040461B570BF4014193519307
:101AF0006D937C93CF010E94A50C90C05B01A41A4A
:101B0000B50A3801640E751EA0919B02B0919C022B
:101B1000E0E0F0E0CC24DD2447C0A615B705A9F528
:101B2000CD91DC911197CE0102968A159B0568F143
:101B3000CE018A199B09029612962C911297139640
:101B40003C91059758F0F40122833383CA19DB09CD
:101B5000D183C083D7016D937C9309C04E5F5F4FE3
:101B60004C0F5D1FF70151834083C901FC01C11473
:101B7000D10431F0D6011396FC93EE9312974EC028
:101B8000F0939C02E0939B0249C08D919C91119728
:101B9000E817F90708F4FC016D0112968C91129771
:101BA00013969C919C01D901109709F0B6CF8091B2
:101BB000990290919A0286159705E9F4E617F707BE
:101BC000D0F42091090130910A012115310541F429
:101BD0002DB73EB78091050190910601281B390B66
:101BE00082169306C8F490929A0280929902F701A5
:101BF0007183608313C0CB010E94080CEC01009735
:101C000059F0D7014D915C91B8010E94DE00C801E6
:101C10000E94A50C8E0102C000E010E0C801DF9117
:101C2000CF911F910F91FF90EF90DF90CF90BF90D9
:101C3000AF909F908F907F906F9008950895629FCE
:101C4000D001739FF001829FE00DF11D649FE00DB4
:101C5000F11D929FF00D839FF00D749FF00D659F15
:101C6000F00D9927729FB00DE11DF91F639FB00D14
:101C7000E11DF91FBD01CF0111240895A1E21A2E23
:101C8000AA1BBB1BFD010DC0AA1FBB1FEE1FFF1F20
:101C9000A217B307E407F50720F0A21BB30BE40B70
:101CA000F50B661F771F881F991F1A9469F76095B7
:101CB0007095809590959B01AC01BD01CF01089571
:101CC000EE0FFF1F0590F491E02D0994F894FFCFDB
:101CD000006400000080009D02000000000000760B
:101CE000054505C304CC04E104F20400000000B97A
:0C1CF00006B1075C067806680696060040
:00000001FF
