:100000000C949E000C94C6000C94C6000C94C60080
:100010000C94C6000C94C6000C94C6000C94C60048
:100020000C94C6000C94C6000C94C6000C94C60038
:100030000C94C6000C94C6000C94C6000C94C60028
:100040000C94DF0A0C94C6000C945D070C94E00736
:100050000C94C6000C94C6000C94C6000C94C60008
:100060000C9469030C94C6005D005D3D5B00434D3C
:10007000445F56414C56455B005D00554E4B4E4F1C
:10008000574E20434D445B0056414C56455F345F0C
:10009000300056414C56455F343D310056414C5678
:1000A000455F333D300056414C56455F333D31008E
:1000B00056414C56455F323D300056414C56455FE7
:1000C000323D310056414C56455F313D300056417E
:1000D0004C56455F313D3100536C61766500000040
:1000E0000000240027002A0000000000250028004E
:1000F0002B00000000002300260029000404040453
:1001000004040404020202020202030303030303C1
:10011000010204081020408001020408102001029E
:10012000040810200000000700020100000304067C
:1001300000000000000000008305930711241FBE8B
:10014000CFEFD8E0DEBFCDBF11E0A0E0B1E0EAE73D
:10015000FDE102C005900D92A033B107D9F712E07E
:10016000A0E3B1E001C01D92A53AB107E1F711E0AB
:10017000CCE3D1E004C02297FE010E94B70EC83341
:10018000D107C9F70E94D00A0C94BB0E0C94000052
:10019000FB01DC0105900D920020E1F70895FC01C0
:1001A00005900020E9F7809590958E0F9F1F089588
:1001B000FB01DC0102C001900D9241505040D8F784
:1001C0000895FB01DC018D91019080190110D9F394
:1001D000990B0895FB01DC0101900D920020E1F7DD
:1001E00008950F931F93CF93DF938C01C0E0D0E06D
:1001F00015C08DE061E00E94090C64E670E080E0CB
:1002000090E00E94620B8DE060E00E94090C64E6C1
:1002100070E080E090E00E94620B2196C017D10749
:1002200044F384E090E0801B910B28EC30E0829F47
:10023000B001839F700D929F700D1124882777FD68
:100240008095982F0E94620BDF91CF911F910F91A3
:10025000089580913001882329F081E090E061E0E9
:100260000E94F10080913101882329F082E090E022
:1002700061E00E94F10080913201882329F083E03F
:1002800090E061E00E94F10080913301882329F021
:1002900084E090E061E00E94F10064EF71E080E0B2
:1002A00090E00E94620B08951F93CF93DF93EC01BF
:1002B000162F8230910591F08330910524F481301E
:1002C0009105E1F407C08330910579F08430910500
:1002D000A9F40FC06093300188E003C0609331013E
:1002E00089E0612F0E94090C09C0609332018AE005
:1002F000F8CF8BE00E94090C109333018BEF91E053
:100300006EE670E00E9430088BEF91E0BE014AE09B
:1003100050E00E947A098BEF91E06AE670E00E945B
:1003200030088BEF91E0612F4AE050E00E942809ED
:100330008BEF91E068E670E00E948508DF91CF9135
:100340001F910895DF93CF93CDB7DEB760970FB6B7
:10035000F894DEBF0FBECDBF8091300189838091BC
:1003600031018A83809132018B83809133018C83A8
:10037000809134018D83809135018E838091360187
:100380008F838091370188878091050190910601C4
:10039000A0910701B09108018987292F3A2F4B2F8F
:1003A00055272A879D01442755272B878B2F99276F
:1003B000AA27BB278C878091010190910201A0910F
:1003C0000301B09104018D87292F3A2F4B2F552718
:1003D0002E879D01442755272F878B2F9927AA27E2
:1003E000BB27888B8FEE91E0BE016F5F7F4F40E1AE
:1003F00050E00E949A0560960FB6F894DEBF0FBEDB
:10040000CDBFCF91DF910895CF92DF92EF92FF920F
:100410000F931F93DF93CF93CDB7DEB7E6970FB659
:10042000F894DEBF0FBECDBF8E010F5F1F4FC80116
:1004300060E071E00E94B10AD02EC12E09C08FEE9B
:1004400091E00E942105682F8D2D9C2D0E94230A8A
:100450008FEE91E00E941805892B89F78E01095FC4
:100460001F4FC8016EEC70E00E94860A8D2D9C2DF6
:10047000B8010E948D097C01C8010E94CA0AEF28B8
:1004800019F481E090E086C08E01035F1F4FC80120
:1004900064EC70E00E94860A8D2D9C2DB8010E94AC
:1004A0008D097C01C8010E94CA0AEF2831F481E05D
:1004B00090E060E00E94540197C08E010D5E1F4FD6
:1004C000C8016AEB70E00E94860A8D2D9C2DB80150
:1004D0000E948D097C01C8010E94CA0AEF2819F404
:1004E00082E090E057C08E01075E1F4FC80160EBAD
:1004F00070E00E94860A8D2D9C2DB8010E948D0906
:100500007C01C8010E94CA0AEF2819F482E090E039
:10051000D0CF8E01015E1F4FC80166EA70E00E94D5
:10052000860A8D2D9C2DB8010E948D097C01C80181
:100530000E94CA0AEF2819F483E090E02BC08E01D4
:100540000B5D1F4FC8016CE970E00E94860A8D2D7B
:100550009C2DB8010E948D097C01C8010E94CA0A25
:10056000EF2819F483E090E0A4CF8E01055D1F4FC2
:10057000C80162E970E00E94860A8D2D9C2DB801A9
:100580000E948D097C01C8010E94CA0AEF2821F44B
:1005900084E090E061E08ECF8E010F5C1F4FC801B8
:1005A00068E870E00E94860A8D2D9C2DB8010E949B
:1005B0008D097C01C8010E94CA0AEF2819F484E061
:1005C00090E077CF8BEF91E06BE770E00E9430080E
:1005D0008BEF91E06D2D7C2D0E9453088BEF91E005
:1005E00069E770E00E948508CE0101960E94CA0A60
:1005F000E6960FB6F894DEBF0FBECDBFCF91DF9168
:100600001F910F91FF90EF90DF90CF9008950F937F
:100610001F9388E061E00E94CA0B89E061E00E94BC
:10062000CA0B8AE061E00E94CA0B8BE061E00E9485
:10063000CA0B8DE061E00E94CA0B0FEE11E0C80109
:1006400064E070E00E941A06C80164E072E00E9453
:100650007905C80162EA71E00E947E050BEF11E0A6
:10066000C80140E855E260E070E026E00E944D06D7
:10067000C80168ED70E00E9485081F910F910895F0
:10068000880F8093BA000895482F613210F081E0FE
:10069000089580913801843011F082E008956093CC
:1006A0008301A2E6B1E0842F9C01F90102C081918F
:1006B0008D938E2F841B8617D0F380E0089590933E
:1006C0003F0180933E01089590933D0180933C014A
:1006D00008951F920F920FB60F9211242F933F93FC
:1006E0004F935F936F937F938F939F93AF93BF933A
:1006F000EF93FF938091B90090E0887F90708036EF
:10070000910509F4F2C081369105CCF58832910546
:1007100009F47BC089329105B4F48031910509F464
:100720006FC0813191053CF4009709F447C10897E7
:1007300009F04FC165C08831910509F466C0809702
:1007400009F047C182C08034910509F4A4C0813406
:10075000910544F48033910509F482C0C89709F0EB
:1007600038C189C08035910509F489C08835910563
:1007700009F496C08834910509F02BC1AEC08839C0
:10078000910509F413C189399105ECF48837910575
:1007900009F4ABC0893791054CF48836910509F40A
:1007A000A4C08037910509F014C19FC08838910515
:1007B00009F4FCC08039910509F49DC08038910589
:1007C00009F007C198C0803B910509F4C6C0813B80
:1007D00091054CF4803A910509F49FC0883A91053F
:1007E00009F0F7C0BAC0803C910509F4E3C0883C29
:1007F000910509F4DFC0883B910509F0EAC0C2C049
:10080000809139018093BB00CFC0909160018091AD
:100810006101981768F490916001E92FF0E0E05CC5
:10082000FE4F80818093BB009F5F90936001BCC0AE
:1008300080913A01882309F44BC085ED8093BC0078
:100840008091BC0084FDFCCFC2C080E28093A501F2
:1008500085ED8093BC008091BC0084FDFCCFB7C0C7
:1008600080E38093A50185ED8093BC008091BC005E
:1008700084FDFCCFACC088E38093A5019BC0809130
:1008800060019091BB00E82FF0E0E05CFE4F9083A8
:100890008F5F80936001909160018091610182C0BF
:1008A000809160019091BB00E82FF0E0E05CFE4F8A
:1008B00090838F5F8093600180913A01882341F09B
:1008C00085ED8093BC008091BC0084FDFCCF7FC08F
:1008D00081E080933B0184EA6EC085ED8093BC008B
:1008E0008091BC0084FDFCCF72C083E0809338010E
:1008F0001092A40159C08091A401803208F056C022
:100900008091A4019091BB00E82FF0E0EC57FE4FDE
:1009100090838F5F8093A40147C08091A4018032AF
:1009200030F4E091A401F0E0EC57FE4F108285ED29
:100930008093BC008091BC0084FDFCCF10923801F4
:100940006091A401E0913E01F0913F0184E891E0C3
:1009500070E009951092A4012DC084E080933801C5
:100960001092820110928301E0913C01F0913D01CF
:10097000099580918301882329F481E08093830184
:100980001092620190918201E92FF0E0EE59FE4F42
:1009900080818093BB009F5F909382019091820140
:1009A00080918301981710F485EC01C085E880934D
:1009B000BC000FC085EC8093BC0009C01092A5015B
:1009C00085ED8093BC008091BC0084FDFCCF10922B
:1009D0003801FF91EF91BF91AF919F918F917F91DE
:1009E0006F915F914F913F912F910F900FBE0F909C
:1009F0001F9018951092380181E080933A0110926F
:100A00003B0182E161E00E94090C83E161E00E9408
:100A1000090CE9EBF0E080818E7F808380818D7FFF
:100A2000808388E48093B80085E48093BC000895B7
:100A30002091C70130E08091C601281B3109C9010E
:100A400008954091C6018091C701481718F02FEF13
:100A50003FEF0AC0E42FF0E0EA55FE4F8081282FD7
:100A600030E04F5F4093C601C9010895E091C6018F
:100A70008091C701E81718F0EFEFFFEF06C0F0E034
:100A8000EA55FE4F8081E82FF0E0CF0108950895E8
:100A9000AC012091ED013091EE0121153105E1F01D
:100AA0009091C6018091C7019817B0F090E008C0FE
:100AB000FA01EA0FFB1F8081AA55BE4F8C939F5FFE
:100AC000A92FB0E0A617B7079CF31092C601609358
:100AD000C701CB01F90109950895E091EB01F0916F
:100AE000EC01309729F01092E8011092E901099584
:100AF00008957093EE016093ED0108957093EC01F9
:100B00006093EB0108951092F2011092F10188EECA
:100B100093E0A0E0B0E08093F3019093F401A09300
:100B2000F501B093F60183E191E09093F001809399
:100B3000EF010895CF92DF92EF92FF920F931F93F0
:100B4000CF93DF937C016B018A018091EA018823B6
:100B5000A1F0C0E0D0E00DC0D701ED91FC91D6012D
:100B6000AC0FBD1F0190F081E02DC7016C9109957C
:100B70002196C017D10780F304C0CB01642F0E94D7
:100B80004403C801DF91CF911F910F91FF90EF9027
:100B9000DF90CF900895DF93CF930F92CDB7DEB75C
:100BA000FC0169838091EA018823C9F08091E90101
:100BB000803238F081E090E09383828320E030E05F
:100BC00015C08091E801E82FF0E0E853FE4F9981CD
:100BD00090838F5F8093E8018093E90105C0CE0187
:100BE000019661E00E94440321E030E0C9010F90CA
:100BF000CF91DF9108951092C6011092C701109213
:100C0000E8011092E9010E94FA0408950F931F93DE
:100C10008C01862F0E9440038DE695E00E946403BC
:100C200088E495E00E945F03C8010E94FB051F91C4
:100C30000F9108950E9406060895DC015C968C9140
:100C40005C97FD01E80FF11DE35AFF4F20815C9690
:100C50008C915C9790E001968F7390705C968C936A
:100C60005C975696ED91FC91579720835096ED91A5
:100C7000FC9151978081806480835B969C915B9707
:100C80005C968C915C97981739F45296ED91FC9193
:100C9000539780818F7D80830895DF92EF92FF923A
:100CA0000F931F93CF93DF93EC017A018B01D22E28
:100CB000E889F98982E08083403081EE580780E03E
:100CC000680780E07807A1F060E079E08DE390E0CC
:100CD000A80197010E94930E21503040404050409F
:100CE000569547953795279580E12030380798F03D
:100CF000E889F989108260E874E88EE190E0A80143
:100D000097010E94930E215030404040504056952C
:100D1000479537952795EC85FD853083EE85FF85D2
:100D20002083188EEC89FD89D082EA89FB89808135
:100D300080618083EA89FB89808188608083EA8979
:100D4000FB89808180688083EA89FB8980818F7D2F
:100D50008083DF91CF911F910F91FF90EF90DF90F3
:100D60000895FC01218D828D30E0205C3F4F281BCF
:100D700031092F733070C9010895FC01918D828D66
:100D8000981719F42FEF3FEF06C0828DE80FF11D81
:100D9000858D282F30E0C9010895DC0159969C917A
:100DA00059975A968C915A97981719F42FEF3FEF4D
:100DB00010C05A968C915A97FD01E80FF11D958D40
:100DC0005A968C915A978F5F8F735A968C93292FCE
:100DD00030E0C9010895CF93DF93EC01888D88231B
:100DE00061F419C08C9185FF0AC0E889F989808176
:100DF00085FF05C0CE010E941D06AA89BB898C9182
:100E000085FD05C0E889F989808186FD04C00FB69B
:100E100007FEE8CFF4CFDF91CF9108950F931F9392
:100E2000CF93DF93EC01062F9B8D8C8D981791F556
:100E3000E889F989808185FF2DC0EE89FF8960836B
:100E4000E889F9898081806480831DC00FB607FC22
:100E500008C0E889F989808185FF03C0CE010E941E
:100E60001D068C8D181791F38B8DFE01E80FF11D77
:100E7000E35AFF4F00831B8FEA89FB8980818062E0
:100E8000808381E0888F81E090E0DF91CF911F9196
:100E90000F9108951B8D1F5F1F73E3CF86ED97E0C1
:100EA000892B51F080E090E0892B31F00E94D60729
:100EB000882311F00E94000008951F920F920FB630
:100EC0000F9211242F938F939F93EF93FF93E091B1
:100ED0000B02F0910C02808182FD16C0E09111029C
:100EE000F09112022081909114029F5F9F73809174
:100EF0001502981771F0E0911402F0E0E550FE4FF2
:100F0000258F9093140205C0E0911102F091120216
:100F1000E081FF91EF919F918F912F910F900FBEE4
:100F20000F901F9018951092FE011092FD0188EE0F
:100F300093E0A0E0B0E08093FF0190930002A093C3
:100F40000102B093020283E291E09093FC0180934E
:100F5000FB0185EC90E0909308028093070284ECFB
:100F600090E090930A028093090280EC90E09093C5
:100F70000C0280930B0281EC90E090930E02809320
:100F80000D0282EC90E09093100280930F0286ECA9
:100F900090E090931202809311021092140210922A
:100FA0001502109216021092170208958BEF91E02D
:100FB0000E94B10620E0892B09F021E0822F0895DC
:100FC0001F920F920FB60F9211242F933F934F93BE
:100FD0005F936F937F938F939F93AF93BF93EF93A1
:100FE000FF938BEF91E00E941D06FF91EF91BF915F
:100FF000AF919F918F917F916F915F914F913F91B1
:101000002F910F900FBE0F901F901895CF92DF92E7
:10101000EF92FF920F931F93CF93DF937C016B01AD
:101020008A01C0E0D0E00FC0D6016D916D01D701FB
:10103000ED91FC910190F081E02DC7010995C80F59
:10104000D91F015010400115110571F7CE01DF9134
:10105000CF911F910F91FF90EF90DF90CF90089567
:10106000EF92FF920F931F93CF93DF937C018B013D
:10107000C0E0D0E0F8010F5F1F4F6491662359F084
:10108000D701ED91FC910190F081E02DC701099508
:10109000C80FD91FEFCFCE01DF91CF911F910F91D4
:1010A000FF90EF900895CF93DF93FB01EC01A881AF
:1010B000B98160817181448155811296ED91FC91D5
:1010C00013970995DF91CF910895EF92FF920F93B7
:1010D0001F938C01DC01ED91FC910190F081E02DDA
:1010E0006DE009957C01D801ED91FC910190F081B2
:1010F000E02DC8016AE009959C012E0D3F1DC90134
:101100001F910F91FF90EF900895EF92FF920F9330
:101110001F937C010E9430088C01C7010E94650862
:101120009C01200F311FC9011F910F91FF90EF907B
:101130000895CF93DF93EC016115710519F420E058
:1011400030E00FC0DB010D900020E9F71197A61BDE
:10115000B70BE881F9810280F381E02DAD0109959B
:101160009C01C901DF91CF9108954F925F927F92C8
:101170008F929F92AF92BF92CF92DF92EF92FF92A7
:101180000F931F93DF93CF93CDB7DEB7A1970FB621
:10119000F894DEBF0FBECDBF2C01742ECB012230E0
:1011A00008F42AE019A231E2C32ED12CCC0EDD1EA8
:1011B000822E9924AA24BB24672D752FA5019401A2
:1011C0000E94930E79018A01C801B701A50194011B
:1011D0000E94740E472D461B0894C108D1084A305E
:1011E00014F4405D01C0495CF6014083E114F10450
:1011F0000105110521F07E2C5F2DC801DDCFC20154
:10120000B6010E949908A1960FB6F894DEBF0FBEF2
:10121000CDBFCF91DF911F910F91FF90EF90DF90A5
:10122000CF90BF90AF909F908F907F905F904F90A6
:101230000895DC012115310541F4ED91FC910190F7
:10124000F081E02D642F099508950E94B508089556
:10125000EF92FF920F931F939A01E62EFF2400E076
:1012600010E0B801A7010E9419091F910F91FF908A
:10127000EF900895CF92DF92EF92FF920F931F931A
:10128000CF93DF93EC016A017B012115310541F415
:10129000E881F9810190F081E02D642F09951FC04C
:1012A0002A303105D1F477FF17C0E881F981019028
:1012B000F081E02D6DE209958C0144275527BA0194
:1012C0004C195D096E097F09CE012AE00E94B5081C
:1012D0009801280F391F04C02AE00E94B5089C011C
:1012E000C901DF91CF911F910F91FF90EF90DF9097
:1012F000CF900895EF92FF920F931F937B019A0175
:101300000027F7FC0095102FB801A7010E943A09A9
:101310001F910F91FF90EF900895CF93DF939C0161
:10132000FB01EC01A881B981109729F060817181DE
:1013300061157105D1F4C081D181209759F0848164
:101340009581892B39F0888190E022273327281B4B
:10135000390B12C0109771F0F90184819581892BA6
:1013600049F08C91282F30E007C0CD010E94E100A8
:101370009C0102C020E030E0C901DF91CF910895C7
:101380000F931F93CF93DF93EC018B016F5F7F4F20
:10139000888199810E94920D009711F480E005C028
:1013A000998388831B830A8381E0DF91CF911F910A
:1013B0000F910895CF93DF93EC0188819981892B58
:1013C00029F08A819B818617970760F4CE010E94DD
:1013D000C009882341F08C819D81892B19F4E88113
:1013E000F981108281E0DF91CF910895EF92FF9211
:1013F0000F931F93CF93DF93EC017B016C817D8171
:10140000E114F104C1F04115510599F08A01060F6C
:10141000171FB8010E94DA09882369F08881998131
:101420002C813D81820F931FB7010E94EA001D832A
:101430000C8381E001C080E0DF91CF911F910F917B
:10144000FF90EF900895DF93CF9300D0CDB7DEB734
:1014500069831A82BE016F5F7F4F41E050E00E94B6
:10146000F6090F900F90CF91DF910895CF93DF93FE
:10147000EC0188819981009711F00E94FA0C198281
:1014800018821D821C821B821A82DF91CF910895DF
:10149000EF92FF920F931F93CF93DF93EC017B01A9
:1014A0008A01BA010E94DA09882321F4CE010E9440
:1014B000360A07C01D830C8388819981B7010E9479
:1014C000C800CE01DF91CF911F910F91FF90EF9057
:1014D00008950F931F93CF93DF93182F092FEB01DC
:1014E0006115710551F0CB010E94CF00AC01812F35
:1014F000902FBE010E94480A02C00E94360A812F26
:10150000902FDF91CF911F910F910895FC011182CF
:10151000108213821282158214820E94690A089531
:10152000EF92FF920F931F93CF93DF93EC017B0118
:101530008A01BA010E94DA09882321F4CE010E94AF
:10154000360A07C01D830C8388819981B7010E94E8
:10155000EA00CE01DF91CF911F910F91FF90EF90A4
:101560000895CF93DF93EC01198218821B821A82AF
:101570001D821C826115710551F0DB010D90002068
:10158000E9F71197A61BB70BAD010E94900ADF91F6
:10159000CF910895FC01808191810E94FA0C0895F9
:1015A000CF93DF930E94270B0E940703CEE4D7E07E
:1015B0000E9429012097E1F30E944E07F9CF1F9264
:1015C0000F920FB60F9211242F933F938F939F93F7
:1015D000AF93BF9380919C0290919D02A0919E0237
:1015E000B0919F023091A0020196A11DB11D232F41
:1015F0002D5F2D3720F02D570196A11DB11D209391
:10160000A00280939C0290939D02A0939E02B093AF
:101610009F028091980290919902A0919A02B091B4
:101620009B020196A11DB11D80939802909399028F
:10163000A0939A02B0939B02BF91AF919F918F911B
:101640003F912F910F900FBE0F901F901895789497
:1016500084B5826084BD84B5816084BD85B58260B7
:1016600085BD85B5816085BDEEE6F0E08081816055
:101670008083E1E8F0E01082808182608083808155
:1016800081608083E0E8F0E0808181608083E1EB2D
:10169000F0E0808184608083E0EBF0E08081816015
:1016A0008083EAE7F0E080818460808380818260CB
:1016B00080838081816080838081806880831092B4
:1016C000C1000895EF92FF920F931F93CF93DF9382
:1016D0007B018C013FB7F894809198029091990218
:1016E000A0919A02B0919B0226B5A89B05C02F3FFE
:1016F00019F00196A11DB11D3FBFBA2FA92F982F38
:101700008827820F911DA11DB11D52E0880F991FDE
:10171000AA1FBB1F5A95D1F7EC0130C00E94730E6F
:101720003FB7F8948091980290919902A0919A0203
:10173000B0919B0226B5A89B05C02F3F19F00196DA
:10174000A11DB11D3FBFBA2FA92F982F8827820F47
:10175000911DA11DB11D32E0880F991FAA1FBB1F4B
:101760003A95D1F78C1B9D0B885E9340B8F2089494
:10177000E108F10801091109C851DC4FE114F10435
:101780000105110559F6DF91CF911F910F91FF903F
:10179000EF900895CF93DF93482F50E0CA01805F08
:1017A0009E4FFC01349144505F4FFA01849188238D
:1017B00069F190E0880F991FFC01E252FF4FA5915B
:1017C000B491FC01E851FF4FC591D491662351F4C7
:1017D0002FB7F8948C91932F909589238C938881BF
:1017E00089230BC0623061F42FB7F8948C91932F4A
:1017F000909589238C938881832B88832FBF06C083
:101800009FB7F8948C91832B8C939FBFDF91CF91DE
:101810000895482F50E0CA018C5D9E4FFC01249131
:10182000CA01805F9E4FFC01949144505F4FFA01C2
:101830003491332309F440C0222351F1233071F055
:10184000243028F42130A1F0223011F514C02630C4
:10185000B1F02730C1F02430D9F404C08091800069
:101860008F7703C0809180008F7D8093800010C0AF
:1018700084B58F7702C084B58F7D84BD09C0809107
:10188000B0008F7703C08091B0008F7D8093B0004F
:10189000E32FF0E0EE0FFF1FE851FF4FA591B49149
:1018A0002FB7F894662321F48C919095892302C078
:1018B0008C91892B8C932FBF08950F931F93CF93F7
:1018C000DF93BC018230910510F462E070E0E0919A
:1018D000A302F091A40240E050E0A0E0B0E024C0F8
:1018E0008081918186179707D0F08617970771F44A
:1018F00082819381109729F013969C938E9312976F
:101900002CC09093A4028093A30227C041155105D7
:1019100019F08417950718F48D01AC01EF01DF0170
:10192000828193819C01F9013097D1F641155105CF
:10193000F9F0CA01861B970B8430910580F48A81E7
:101940009B810115110521F0F8019383828304C066
:101950009093A4028093A302FE01329645C0FE013B
:10196000E80FF91F619371930297998388833CC0B4
:101970008091A1029091A202892B41F480910B01E8
:1019800090910C019093A2028093A10240910D01CD
:1019900050910E014115510541F44DB75EB780914C
:1019A000090190910A01481B590B2091A102309125
:1019B000A20224173507B0F4CA01821B930B8617C5
:1019C000970780F0AB014E5F5F4F8417950750F08B
:1019D000420F531F5093A2024093A102F901619359
:1019E000719302C0E0E0F0E0CF01DF91CF911F9151
:1019F0000F910895CF93DF939C01009709F48FC056
:101A0000EC0122971B821A826091A3027091A402BA
:101A10006115710581F488819981820F931F20914E
:101A2000A1023091A2022817390739F5D093A202FA
:101A3000C093A10274C0DB0140E050E0AC17BD07C9
:101A400008F1BB83AA83FE0121913191E20FF31FBC
:101A5000AE17BF0779F48D919C911197280F391F0C
:101A60002E5F3F4F3983288312968D919C91139757
:101A70009B838A834115510571F4D093A402C093CE
:101A8000A3024DC012968D919C911397AD010097C2
:101A900011F0DC01D3CFDA011396DC93CE931297C9
:101AA000FA0121913191E20FF31FCE17DF0769F49C
:101AB00088819981280F391F2E5F3F4FFA013183AA
:101AC00020838A819B8193838283E0E0F0E0DB01C5
:101AD00012968D919C911397009719F0BC01FD010E
:101AE000F6CFAB014E5F5F4FDB018D919C91840F70
:101AF000951F2091A1023091A2022817390779F48D
:101B0000309729F41092A4021092A30202C013820B
:101B10001282425050405093A2024093A102DF91A2
:101B2000CF9108956F927F928F929F92AF92BF92C2
:101B3000CF92DF92EF92FF920F931F93CF93DF9399
:101B40008C01009729F4CB010E945D0C8C01BBC075
:101B50008EEFE82E8FEFF82EE00EF11E4801860E74
:101B6000971E8E149F0408F4ACC0D7014D915C9170
:101B7000119746175707B8F04530510508F4A3C030
:101B8000CA0104978617970708F49DC04250504039
:101B9000461B570BF401419351936D937C93CF01F6
:101BA0000E94FA0C90C05B01A41AB50A3801640EB9
:101BB000751EA091A302B091A402E0E0F0E0CC2455
:101BC000DD2447C0A615B705A9F5CD91DC91119785
:101BD000CE0102968A159B0568F1CE018A199B09F0
:101BE000029612962C91129713963C91059758F0F5
:101BF000F40122833383CA19DB09D183C083D7015F
:101C00006D937C9309C04E5F5F4F4C0F5D1FF701D2
:101C100051834083C901FC01C114D10431F0D601C4
:101C20001396FC93EE9312974EC0F093A402E093A8
:101C3000A30249C08D919C911197E817F90708F408
:101C4000FC016D0112968C91129713969C919C0148
:101C5000D901109709F0B6CF8091A1029091A2020C
:101C600086159705E9F4E617F707D0F420910D01E2
:101C700030910E012115310541F42DB73EB7809109
:101C8000090190910A01281B390B82169306C8F4AA
:101C90009092A2028092A102F7017183608313C027
:101CA000CB010E945D0CEC01009759F0D7014D91DA
:101CB0005C91B8010E94D800C8010E94FA0C8E0104
:101CC00002C000E010E0C801DF91CF911F910F9199
:101CD000FF90EF90DF90CF90BF90AF909F908F904C
:101CE0007F906F9008950895629FD001739FF001D7
:101CF000829FE00DF11D649FE00DF11D929FF00D9C
:101D0000839FF00D749FF00D659FF00D9927729FD2
:101D1000B00DE11DF91F639FB00DE11DF91FBD015D
:101D2000CF0111240895A1E21A2EAA1BBB1BFD01AD
:101D30000DC0AA1FBB1FEE1FFF1FA217B307E407AA
:101D4000F50720F0A21BB30BE40BF50B661F771F02
:101D5000881F991F1A9469F76095709580959095E2
:101D60009B01AC01BD01CF010895EE0FFF1F05904F
:0A1D7000F491E02D0994F894FFCFE0
:101D7A0000040302013E4111018000A50200000097
:101D8A00000000CB059A0518052105360547050010
:101D9A000000000E070608B106CD06BD06EB0600D8
:00000001FF
